{
  "_format": "hh-sol-artifact-1",
  "contractName": "PaymentV1",
  "sourceName": "contracts/PaymentVersions.sol",
  "abi": [
    {
      "anonymous": false,
      "inputs": [
        {
          "indexed": false,
          "internalType": "address",
          "name": "previousAdmin",
          "type": "address"
        },
        {
          "indexed": false,
          "internalType": "address",
          "name": "newAdmin",
          "type": "address"
        }
      ],
      "name": "AdminChanged",
      "type": "event"
    },
    {
      "anonymous": false,
      "inputs": [
        {
          "indexed": true,
          "internalType": "address",
          "name": "beacon",
          "type": "address"
        }
      ],
      "name": "BeaconUpgraded",
      "type": "event"
    },
    {
      "anonymous": false,
      "inputs": [
        {
          "indexed": false,
          "internalType": "uint8",
          "name": "version",
          "type": "uint8"
        }
      ],
      "name": "Initialized",
      "type": "event"
    },
    {
      "anonymous": false,
      "inputs": [
        {
          "indexed": true,
          "internalType": "address",
          "name": "previousOwner",
          "type": "address"
        },
        {
          "indexed": true,
          "internalType": "address",
          "name": "newOwner",
          "type": "address"
        }
      ],
      "name": "OwnershipTransferred",
      "type": "event"
    },
    {
      "anonymous": false,
      "inputs": [
        {
          "indexed": false,
          "internalType": "address",
          "name": "subscriber",
          "type": "address"
        },
        {
          "components": [
            {
              "internalType": "address",
              "name": "merchant",
              "type": "address"
            },
            {
              "internalType": "address",
              "name": "token",
              "type": "address"
            },
            {
              "internalType": "uint256",
              "name": "planId",
              "type": "uint256"
            },
            {
              "internalType": "uint256",
              "name": "amount",
              "type": "uint256"
            },
            {
              "internalType": "uint256",
              "name": "frequency",
              "type": "uint256"
            },
            {
              "internalType": "uint8",
              "name": "planType",
              "type": "uint8"
            },
            {
              "internalType": "string",
              "name": "planTypeInfos",
              "type": "string"
            },
            {
              "internalType": "string",
              "name": "planName",
              "type": "string"
            },
            {
              "internalType": "string",
              "name": "merchantName",
              "type": "string"
            },
            {
              "internalType": "uint256",
              "name": "paid",
              "type": "uint256"
            },
            {
              "internalType": "uint256",
              "name": "released",
              "type": "uint256"
            }
          ],
          "indexed": false,
          "internalType": "struct PaymentV0.Plan",
          "name": "plan",
          "type": "tuple"
        },
        {
          "components": [
            {
              "internalType": "uint256",
              "name": "subscriptionId",
              "type": "uint256"
            },
            {
              "internalType": "uint256",
              "name": "planId",
              "type": "uint256"
            },
            {
              "internalType": "address",
              "name": "subscriber",
              "type": "address"
            },
            {
              "internalType": "string",
              "name": "subscriberInfos",
              "type": "string"
            },
            {
              "internalType": "uint256",
              "name": "start",
              "type": "uint256"
            },
            {
              "internalType": "uint256",
              "name": "nextPayment",
              "type": "uint256"
            },
            {
              "internalType": "uint256",
              "name": "paid",
              "type": "uint256"
            }
          ],
          "indexed": false,
          "internalType": "struct PaymentV0.Subscription",
          "name": "subscription",
          "type": "tuple"
        },
        {
          "indexed": false,
          "internalType": "uint256",
          "name": "date",
          "type": "uint256"
        }
      ],
      "name": "SubscriptionCreated",
      "type": "event"
    },
    {
      "anonymous": false,
      "inputs": [
        {
          "indexed": true,
          "internalType": "address",
          "name": "implementation",
          "type": "address"
        }
      ],
      "name": "Upgraded",
      "type": "event"
    },
    {
      "inputs": [
        {
          "internalType": "uint256",
          "name": "planId",
          "type": "uint256"
        }
      ],
      "name": "allowance",
      "outputs": [
        {
          "internalType": "uint256",
          "name": "success",
          "type": "uint256"
        }
      ],
      "stateMutability": "view",
      "type": "function"
    },
    {
      "inputs": [
        {
          "internalType": "uint256",
          "name": "subscriptionId",
          "type": "uint256"
        }
      ],
      "name": "balance",
      "outputs": [
        {
          "internalType": "uint256",
          "name": "success",
          "type": "uint256"
        }
      ],
      "stateMutability": "view",
      "type": "function"
    },
    {
      "inputs": [
        {
          "internalType": "uint256",
          "name": "subscriptionId",
          "type": "uint256"
        }
      ],
      "name": "cancel",
      "outputs": [],
      "stateMutability": "nonpayable",
      "type": "function"
    },
    {
      "inputs": [
        {
          "internalType": "address",
          "name": "token",
          "type": "address"
        },
        {
          "internalType": "uint256",
          "name": "amount",
          "type": "uint256"
        },
        {
          "internalType": "uint256",
          "name": "frequency",
          "type": "uint256"
        },
        {
          "internalType": "uint8",
          "name": "planType",
          "type": "uint8"
        },
        {
          "internalType": "string",
          "name": "planTypeInfos",
          "type": "string"
        },
        {
          "internalType": "string",
          "name": "planName",
          "type": "string"
        },
        {
          "internalType": "string",
          "name": "merchantName",
          "type": "string"
        }
      ],
      "name": "createPlan",
      "outputs": [],
      "stateMutability": "nonpayable",
      "type": "function"
    },
    {
      "inputs": [],
      "name": "getContractVersion",
      "outputs": [
        {
          "internalType": "uint256",
          "name": "",
          "type": "uint256"
        }
      ],
      "stateMutability": "view",
      "type": "function"
    },
    {
      "inputs": [
        {
          "internalType": "bool",
          "name": "onlyMine",
          "type": "bool"
        }
      ],
      "name": "getPlans",
      "outputs": [
        {
          "components": [
            {
              "internalType": "address",
              "name": "merchant",
              "type": "address"
            },
            {
              "internalType": "address",
              "name": "token",
              "type": "address"
            },
            {
              "internalType": "uint256",
              "name": "planId",
              "type": "uint256"
            },
            {
              "internalType": "uint256",
              "name": "amount",
              "type": "uint256"
            },
            {
              "internalType": "uint256",
              "name": "frequency",
              "type": "uint256"
            },
            {
              "internalType": "uint8",
              "name": "planType",
              "type": "uint8"
            },
            {
              "internalType": "string",
              "name": "planTypeInfos",
              "type": "string"
            },
            {
              "internalType": "string",
              "name": "planName",
              "type": "string"
            },
            {
              "internalType": "string",
              "name": "merchantName",
              "type": "string"
            },
            {
              "internalType": "uint256",
              "name": "paid",
              "type": "uint256"
            },
            {
              "internalType": "uint256",
              "name": "released",
              "type": "uint256"
            }
          ],
          "internalType": "struct PaymentV0.Plan[]",
          "name": "",
          "type": "tuple[]"
        }
      ],
      "stateMutability": "view",
      "type": "function"
    },
    {
      "inputs": [
        {
          "internalType": "bool",
          "name": "onlyMine",
          "type": "bool"
        }
      ],
      "name": "getSubscriptions",
      "outputs": [
        {
          "components": [
            {
              "internalType": "uint256",
              "name": "subscriptionId",
              "type": "uint256"
            },
            {
              "internalType": "uint256",
              "name": "planId",
              "type": "uint256"
            },
            {
              "internalType": "address",
              "name": "subscriber",
              "type": "address"
            },
            {
              "internalType": "string",
              "name": "subscriberInfos",
              "type": "string"
            },
            {
              "internalType": "uint256",
              "name": "start",
              "type": "uint256"
            },
            {
              "internalType": "uint256",
              "name": "nextPayment",
              "type": "uint256"
            },
            {
              "internalType": "uint256",
              "name": "paid",
              "type": "uint256"
            }
          ],
          "internalType": "struct PaymentV0.Subscription[]",
          "name": "",
          "type": "tuple[]"
        }
      ],
      "stateMutability": "view",
      "type": "function"
    },
    {
      "inputs": [],
      "name": "init",
      "outputs": [],
      "stateMutability": "nonpayable",
      "type": "function"
    },
    {
      "inputs": [],
      "name": "initialize",
      "outputs": [],
      "stateMutability": "nonpayable",
      "type": "function"
    },
    {
      "inputs": [
        {
          "internalType": "uint256",
          "name": "planId",
          "type": "uint256"
        }
      ],
      "name": "isPayable",
      "outputs": [
        {
          "internalType": "bool",
          "name": "success",
          "type": "bool"
        }
      ],
      "stateMutability": "view",
      "type": "function"
    },
    {
      "inputs": [
        {
          "internalType": "uint256",
          "name": "subscriptionId",
          "type": "uint256"
        }
      ],
      "name": "isRenewable",
      "outputs": [
        {
          "internalType": "bool",
          "name": "success",
          "type": "bool"
        }
      ],
      "stateMutability": "view",
      "type": "function"
    },
    {
      "inputs": [],
      "name": "nextPlanId",
      "outputs": [
        {
          "internalType": "uint256",
          "name": "",
          "type": "uint256"
        }
      ],
      "stateMutability": "view",
      "type": "function"
    },
    {
      "inputs": [],
      "name": "nextSubscriptionId",
      "outputs": [
        {
          "internalType": "uint256",
          "name": "",
          "type": "uint256"
        }
      ],
      "stateMutability": "view",
      "type": "function"
    },
    {
      "inputs": [],
      "name": "owner",
      "outputs": [
        {
          "internalType": "address",
          "name": "",
          "type": "address"
        }
      ],
      "stateMutability": "view",
      "type": "function"
    },
    {
      "inputs": [
        {
          "internalType": "uint256",
          "name": "subscriptionId",
          "type": "uint256"
        }
      ],
      "name": "pay",
      "outputs": [],
      "stateMutability": "nonpayable",
      "type": "function"
    },
    {
      "inputs": [
        {
          "internalType": "uint256",
          "name": "",
          "type": "uint256"
        }
      ],
      "name": "plans",
      "outputs": [
        {
          "internalType": "address",
          "name": "merchant",
          "type": "address"
        },
        {
          "internalType": "address",
          "name": "token",
          "type": "address"
        },
        {
          "internalType": "uint256",
          "name": "planId",
          "type": "uint256"
        },
        {
          "internalType": "uint256",
          "name": "amount",
          "type": "uint256"
        },
        {
          "internalType": "uint256",
          "name": "frequency",
          "type": "uint256"
        },
        {
          "internalType": "uint8",
          "name": "planType",
          "type": "uint8"
        },
        {
          "internalType": "string",
          "name": "planTypeInfos",
          "type": "string"
        },
        {
          "internalType": "string",
          "name": "planName",
          "type": "string"
        },
        {
          "internalType": "string",
          "name": "merchantName",
          "type": "string"
        },
        {
          "internalType": "uint256",
          "name": "paid",
          "type": "uint256"
        },
        {
          "internalType": "uint256",
          "name": "released",
          "type": "uint256"
        }
      ],
      "stateMutability": "view",
      "type": "function"
    },
    {
      "inputs": [],
      "name": "proxiableUUID",
      "outputs": [
        {
          "internalType": "bytes32",
          "name": "",
          "type": "bytes32"
        }
      ],
      "stateMutability": "view",
      "type": "function"
    },
    {
      "inputs": [],
      "name": "renounceOwnership",
      "outputs": [],
      "stateMutability": "nonpayable",
      "type": "function"
    },
    {
      "inputs": [
        {
          "internalType": "uint256",
          "name": "planId",
          "type": "uint256"
        },
        {
          "internalType": "string",
          "name": "customData",
          "type": "string"
        }
      ],
      "name": "subscribe",
      "outputs": [],
      "stateMutability": "nonpayable",
      "type": "function"
    },
    {
      "inputs": [
        {
          "internalType": "address",
          "name": "newOwner",
          "type": "address"
        }
      ],
      "name": "transferOwnership",
      "outputs": [],
      "stateMutability": "nonpayable",
      "type": "function"
    },
    {
      "inputs": [
        {
          "internalType": "address",
          "name": "newImplementation",
          "type": "address"
        }
      ],
      "name": "upgradeTo",
      "outputs": [],
      "stateMutability": "nonpayable",
      "type": "function"
    },
    {
      "inputs": [
        {
          "internalType": "address",
          "name": "newImplementation",
          "type": "address"
        },
        {
          "internalType": "bytes",
          "name": "data",
          "type": "bytes"
        }
      ],
      "name": "upgradeToAndCall",
      "outputs": [],
      "stateMutability": "payable",
      "type": "function"
    },
    {
      "inputs": [
        {
          "internalType": "address",
          "name": "tokenAddress",
          "type": "address"
        }
      ],
      "name": "withdrawal",
      "outputs": [],
      "stateMutability": "nonpayable",
      "type": "function"
    }
  ],
  "bytecode": "0x60a06040523073ffffffffffffffffffffffffffffffffffffffff1660809073ffffffffffffffffffffffffffffffffffffffff1681525034801561004357600080fd5b50608051615ba36200007c600039600081816106c20152818161075101528181610bc401528181610c530152610d030152615ba36000f3fe6080604052600436106101405760003560e01c80638da5cb5b116100b6578063cde317af1161006f578063cde317af1461042f578063d8a1854d1461046c578063da58935f146104a9578063e1c7392a146104d4578063f2fde38b146104eb578063ff8f44021461051457610140565b80638da5cb5b1461030557806396131049146103305780639f7d647d14610359578063b162061614610396578063b1c9cc2f146103dd578063c290d6911461040657610140565b806352d1902d1161010857806352d1902d1461022d5780635f8d26b214610258578063715018a6146102835780638129fc1c1461029a57806386d4fbd3146102b15780638aa10435146102da57610140565b80632e43d7dc146101455780633659cfe61461018257806340e58ee5146101ab57806347bb89f0146101d45780634f1ef28614610211575b600080fd5b34801561015157600080fd5b5061016c60048036038101906101679190613f90565b610551565b6040516101799190613fcc565b60405180910390f35b34801561018e57600080fd5b506101a960048036038101906101a49190614045565b6106c0565b005b3480156101b757600080fd5b506101d260048036038101906101cd9190613f90565b610849565b005b3480156101e057600080fd5b506101fb60048036038101906101f69190613f90565b610a09565b6040516102089190613fcc565b60405180910390f35b61022b600480360381019061022691906141b8565b610bc2565b005b34801561023957600080fd5b50610242610cff565b60405161024f919061422d565b60405180910390f35b34801561026457600080fd5b5061026d610db8565b60405161027a9190613fcc565b60405180910390f35b34801561028f57600080fd5b50610298610dbe565b005b3480156102a657600080fd5b506102af610dd2565b005b3480156102bd57600080fd5b506102d860048036038101906102d391906142e9565b610f20565b005b3480156102e657600080fd5b506102ef611377565b6040516102fc9190613fcc565b60405180910390f35b34801561031157600080fd5b5061031a611380565b6040516103279190614354565b60405180910390f35b34801561033c57600080fd5b5061035760048036038101906103529190614045565b6113aa565b005b34801561036557600080fd5b50610380600480360381019061037b9190613f90565b611852565b60405161038d919061438a565b60405180910390f35b3480156103a257600080fd5b506103bd60048036038101906103b89190613f90565b611aba565b6040516103d49b9a99989796959493929190614449565b60405180910390f35b3480156103e957600080fd5b5061040460048036038101906103ff9190614535565b611cf9565b005b34801561041257600080fd5b5061042d60048036038101906104289190613f90565b611f9f565b005b34801561043b57600080fd5b5061045660048036038101906104519190613f90565b612263565b604051610463919061438a565b60405180910390f35b34801561047857600080fd5b50610493600480360381019061048e9190614657565b61293b565b6040516104a091906148ba565b60405180910390f35b3480156104b557600080fd5b506104be612ec8565b6040516104cb9190613fcc565b60405180910390f35b3480156104e057600080fd5b506104e9612ece565b005b3480156104f757600080fd5b50610512600480360381019061050d9190614045565b61300c565b005b34801561052057600080fd5b5061053b60048036038101906105369190614657565b613090565b6040516105489190614a3a565b60405180910390f35b60008073ffffffffffffffffffffffffffffffffffffffff1660cb600084815260200190815260200160002060000160009054906101000a900473ffffffffffffffffffffffffffffffffffffffff1673ffffffffffffffffffffffffffffffffffffffff1614156105f8576040517f08c379a00000000000000000000000000000000000000000000000000000000081526004016105ef90614aa8565b60405180910390fd5b60cb600083815260200190815260200160002060010160009054906101000a900473ffffffffffffffffffffffffffffffffffffffff1673ffffffffffffffffffffffffffffffffffffffff1663dd62ed3e33306040518363ffffffff1660e01b8152600401610669929190614ac8565b60206040518083038186803b15801561068157600080fd5b505afa158015610695573d6000803e3d6000fd5b505050506040513d601f19601f820116820180604052508101906106b99190614b06565b9050919050565b7f000000000000000000000000000000000000000000000000000000000000000073ffffffffffffffffffffffffffffffffffffffff163073ffffffffffffffffffffffffffffffffffffffff16141561074f576040517f08c379a000000000000000000000000000000000000000000000000000000000815260040161074690614ba5565b60405180910390fd5b7f000000000000000000000000000000000000000000000000000000000000000073ffffffffffffffffffffffffffffffffffffffff1661078e613485565b73ffffffffffffffffffffffffffffffffffffffff16146107e4576040517f08c379a00000000000000000000000000000000000000000000000000000000081526004016107db90614c37565b60405180910390fd5b6107ed816134dc565b61084681600067ffffffffffffffff81111561080c5761080b61408d565b5b6040519080825280601f01601f19166020018201604052801561083e5781602001600182028036833780820191505090505b5060006134e7565b50565b600060cc60008381526020019081526020016000209050600073ffffffffffffffffffffffffffffffffffffffff168160020160009054906101000a900473ffffffffffffffffffffffffffffffffffffffff1673ffffffffffffffffffffffffffffffffffffffff1614156108f4576040517f08c379a00000000000000000000000000000000000000000000000000000000081526004016108eb90614aa8565b60405180910390fd5b6000805b60ca54811161098e573373ffffffffffffffffffffffffffffffffffffffff1660cc600083815260200190815260200160002060020160009054906101000a900473ffffffffffffffffffffffffffffffffffffffff1673ffffffffffffffffffffffffffffffffffffffff16141561097b576001826109789190614c86565b91505b808061098690614cdc565b9150506108f8565b5060cc600084815260200190815260200160002060008082016000905560018201600090556002820160006101000a81549073ffffffffffffffffffffffffffffffffffffffff02191690556003820160006109ea9190613d87565b6004820160009055600582016000905560068201600090555050505050565b60008073ffffffffffffffffffffffffffffffffffffffff1660cc600084815260200190815260200160002060020160009054906101000a900473ffffffffffffffffffffffffffffffffffffffff1673ffffffffffffffffffffffffffffffffffffffff161415610ab0576040517f08c379a0000000000000000000000000000000000000000000000000000000008152600401610aa790614aa8565b60405180910390fd5b60cb600060cc600085815260200190815260200160002060010154815260200190815260200160002060010160009054906101000a900473ffffffffffffffffffffffffffffffffffffffff1673ffffffffffffffffffffffffffffffffffffffff166370a0823160cc600085815260200190815260200160002060020160009054906101000a900473ffffffffffffffffffffffffffffffffffffffff166040518263ffffffff1660e01b8152600401610b6b9190614354565b60206040518083038186803b158015610b8357600080fd5b505afa158015610b97573d6000803e3d6000fd5b505050506040513d601f19601f82011682018060405250810190610bbb9190614b06565b9050919050565b7f000000000000000000000000000000000000000000000000000000000000000073ffffffffffffffffffffffffffffffffffffffff163073ffffffffffffffffffffffffffffffffffffffff161415610c51576040517f08c379a0000000000000000000000000000000000000000000000000000000008152600401610c4890614ba5565b60405180910390fd5b7f000000000000000000000000000000000000000000000000000000000000000073ffffffffffffffffffffffffffffffffffffffff16610c90613485565b73ffffffffffffffffffffffffffffffffffffffff1614610ce6576040517f08c379a0000000000000000000000000000000000000000000000000000000008152600401610cdd90614c37565b60405180910390fd5b610cef826134dc565b610cfb828260016134e7565b5050565b60007f000000000000000000000000000000000000000000000000000000000000000073ffffffffffffffffffffffffffffffffffffffff163073ffffffffffffffffffffffffffffffffffffffff1614610d8f576040517f08c379a0000000000000000000000000000000000000000000000000000000008152600401610d8690614d97565b60405180910390fd5b7f360894a13ba1a3210667c828492db98dca3e2076cc3735a920a3ca505d382bbc60001b905090565b60c95481565b610dc6613664565b610dd060006136e2565b565b60008060019054906101000a900460ff16159050808015610e035750600160008054906101000a900460ff1660ff16105b80610e305750610e12306137a8565b158015610e2f5750600160008054906101000a900460ff1660ff16145b5b610e6f576040517f08c379a0000000000000000000000000000000000000000000000000000000008152600401610e6690614e29565b60405180910390fd5b60016000806101000a81548160ff021916908360ff1602179055508015610eac576001600060016101000a81548160ff0219169083151502179055505b610eb46137cb565b600060ca81905550600060c9819055508015610f1d5760008060016101000a81548160ff0219169083151502179055507f7f26b83ff96e1f2b6a682f133852f6798a09c465da95921460cefb38474024986001604051610f149190614e8e565b60405180910390a15b50565b600060cb600084815260200190815260200160002060010160009054906101000a900473ffffffffffffffffffffffffffffffffffffffff169050600060cb60008581526020019081526020016000209050600073ffffffffffffffffffffffffffffffffffffffff168160000160009054906101000a900473ffffffffffffffffffffffffffffffffffffffff1673ffffffffffffffffffffffffffffffffffffffff161415611006576040517f08c379a0000000000000000000000000000000000000000000000000000000008152600401610ffd90614aa8565b60405180910390fd5b80600301548273ffffffffffffffffffffffffffffffffffffffff1663dd62ed3e33306040518363ffffffff1660e01b8152600401611046929190614ac8565b60206040518083038186803b15801561105e57600080fd5b505afa158015611072573d6000803e3d6000fd5b505050506040513d601f19601f820116820180604052508101906110969190614b06565b116110d6576040517f08c379a00000000000000000000000000000000000000000000000000000000081526004016110cd90614ef5565b60405180910390fd5b8173ffffffffffffffffffffffffffffffffffffffff166323b872dd333073ffffffffffffffffffffffffffffffffffffffff16638da5cb5b6040518163ffffffff1660e01b815260040160206040518083038186803b15801561113957600080fd5b505afa15801561114d573d6000803e3d6000fd5b505050506040513d601f19601f820116820180604052508101906111719190614f2a565b84600301546040518463ffffffff1660e01b815260040161119493929190614f57565b602060405180830381600087803b1580156111ae57600080fd5b505af11580156111c2573d6000803e3d6000fd5b505050506040513d601f19601f820116820180604052508101906111e69190614fa3565b5060006040518060e0016040528060ca548152602001836002015481526020013373ffffffffffffffffffffffffffffffffffffffff16815260200185815260200142815260200183600401544261123e9190614c86565b81526020018360030154815250905081600301548260090160008282546112659190614c86565b925050819055508060cc600060ca548152602001908152602001600020600082015181600001556020820151816001015560408201518160020160006101000a81548173ffffffffffffffffffffffffffffffffffffffff021916908373ffffffffffffffffffffffffffffffffffffffff16021790555060608201518160030190805190602001906112f9929190613dc7565b506080820151816004015560a0820151816005015560c082015181600601559050507f583e6585c2965bb96ff91335bb72a800c14bc36dee7765b1edd4895d20f59b32338383426040516113509493929190615345565b60405180910390a160ca600081548092919061136b90614cdc565b91905055505050505050565b60006001905090565b6000603360009054906101000a900473ffffffffffffffffffffffffffffffffffffffff16905090565b6000819050600073ffffffffffffffffffffffffffffffffffffffff163373ffffffffffffffffffffffffffffffffffffffff16141561141f576040517f08c379a000000000000000000000000000000000000000000000000000000000815260040161141690614aa8565b60405180910390fd5b60008173ffffffffffffffffffffffffffffffffffffffff1663dd62ed3e3073ffffffffffffffffffffffffffffffffffffffff16638da5cb5b6040518163ffffffff1660e01b815260040160206040518083038186803b15801561148357600080fd5b505afa158015611497573d6000803e3d6000fd5b505050506040513d601f19601f820116820180604052508101906114bb9190614f2a565b306040518363ffffffff1660e01b81526004016114d9929190614ac8565b60206040518083038186803b1580156114f157600080fd5b505afa158015611505573d6000803e3d6000fd5b505050506040513d601f19601f820116820180604052508101906115299190614b06565b11611569576040517f08c379a000000000000000000000000000000000000000000000000000000000815260040161156090614ef5565b60405180910390fd5b6000805b60c95481116116de573373ffffffffffffffffffffffffffffffffffffffff1660cb600083815260200190815260200160002060000160009054906101000a900473ffffffffffffffffffffffffffffffffffffffff1673ffffffffffffffffffffffffffffffffffffffff1614801561164857508373ffffffffffffffffffffffffffffffffffffffff1660cb600083815260200190815260200160002060010160009054906101000a900473ffffffffffffffffffffffffffffffffffffffff1673ffffffffffffffffffffffffffffffffffffffff16145b801561167f575060cb6000828152602001908152602001600020600a015460cb600083815260200190815260200160002060090154115b156116cb57600060cb6000838152602001908152602001600020905080600a015481600901546116af9190615398565b836116ba9190614c86565b9250806009015481600a0181905550505b80806116d690614cdc565b91505061156d565b5061171e6040518060400160405280600a81526020017f72656c656173652025730000000000000000000000000000000000000000000081525082613911565b600081111561184d578173ffffffffffffffffffffffffffffffffffffffff166323b872dd3073ffffffffffffffffffffffffffffffffffffffff16638da5cb5b6040518163ffffffff1660e01b815260040160206040518083038186803b15801561178957600080fd5b505afa15801561179d573d6000803e3d6000fd5b505050506040513d601f19601f820116820180604052508101906117c19190614f2a565b3360646062866117d191906153cc565b6117db9190615455565b6040518463ffffffff1660e01b81526004016117f993929190614f57565b602060405180830381600087803b15801561181357600080fd5b505af1158015611827573d6000803e3d6000fd5b505050506040513d601f19601f8201168201806040525081019061184b9190614fa3565b505b505050565b60008073ffffffffffffffffffffffffffffffffffffffff1660cb600084815260200190815260200160002060000160009054906101000a900473ffffffffffffffffffffffffffffffffffffffff1673ffffffffffffffffffffffffffffffffffffffff1614156118f9576040517f08c379a00000000000000000000000000000000000000000000000000000000081526004016118f090614aa8565b60405180910390fd5b60cb60008381526020019081526020016000206003015460cb600084815260200190815260200160002060010160009054906101000a900473ffffffffffffffffffffffffffffffffffffffff1673ffffffffffffffffffffffffffffffffffffffff1663dd62ed3e33306040518363ffffffff1660e01b8152600401611981929190614ac8565b60206040518083038186803b15801561199957600080fd5b505afa1580156119ad573d6000803e3d6000fd5b505050506040513d601f19601f820116820180604052508101906119d19190614b06565b10158015611ab3575060cb60008381526020019081526020016000206003015460cb600084815260200190815260200160002060010160009054906101000a900473ffffffffffffffffffffffffffffffffffffffff1673ffffffffffffffffffffffffffffffffffffffff166370a08231336040518263ffffffff1660e01b8152600401611a609190614354565b60206040518083038186803b158015611a7857600080fd5b505afa158015611a8c573d6000803e3d6000fd5b505050506040513d601f19601f82011682018060405250810190611ab09190614b06565b10155b9050919050565b60cb6020528060005260406000206000915090508060000160009054906101000a900473ffffffffffffffffffffffffffffffffffffffff16908060010160009054906101000a900473ffffffffffffffffffffffffffffffffffffffff16908060020154908060030154908060040154908060050160009054906101000a900460ff1690806006018054611b4e90615091565b80601f0160208091040260200160405190810160405280929190818152602001828054611b7a90615091565b8015611bc75780601f10611b9c57610100808354040283529160200191611bc7565b820191906000526020600020905b815481529060010190602001808311611baa57829003601f168201915b505050505090806007018054611bdc90615091565b80601f0160208091040260200160405190810160405280929190818152602001828054611c0890615091565b8015611c555780601f10611c2a57610100808354040283529160200191611c55565b820191906000526020600020905b815481529060010190602001808311611c3857829003601f168201915b505050505090806008018054611c6a90615091565b80601f0160208091040260200160405190810160405280929190818152602001828054611c9690615091565b8015611ce35780601f10611cb857610100808354040283529160200191611ce3565b820191906000526020600020905b815481529060010190602001808311611cc657829003601f168201915b50505050509080600901549080600a015490508b565b600073ffffffffffffffffffffffffffffffffffffffff168773ffffffffffffffffffffffffffffffffffffffff161415611d69576040517f08c379a0000000000000000000000000000000000000000000000000000000008152600401611d6090614aa8565b60405180910390fd5b60008611611dac576040517f08c379a0000000000000000000000000000000000000000000000000000000008152600401611da3906154d2565b60405180910390fd5b6040518061016001604052803373ffffffffffffffffffffffffffffffffffffffff1681526020018873ffffffffffffffffffffffffffffffffffffffff16815260200160c95481526020018781526020018681526020018560ff16815260200184815260200183815260200182815260200160008152602001600081525060cb600060c954815260200190815260200160002060008201518160000160006101000a81548173ffffffffffffffffffffffffffffffffffffffff021916908373ffffffffffffffffffffffffffffffffffffffff16021790555060208201518160010160006101000a81548173ffffffffffffffffffffffffffffffffffffffff021916908373ffffffffffffffffffffffffffffffffffffffff16021790555060408201518160020155606082015181600301556080820151816004015560a08201518160050160006101000a81548160ff021916908360ff16021790555060c0820151816006019080519060200190611f29929190613dc7565b5060e0820151816007019080519060200190611f46929190613dc7565b50610100820151816008019080519060200190611f64929190613dc7565b50610120820151816009015561014082015181600a015590505060c96000815480929190611f9190614cdc565b919050555050505050505050565b600060cc60008381526020019081526020016000209050600073ffffffffffffffffffffffffffffffffffffffff168160020160009054906101000a900473ffffffffffffffffffffffffffffffffffffffff1673ffffffffffffffffffffffffffffffffffffffff16141561204a576040517f08c379a000000000000000000000000000000000000000000000000000000000815260040161204190614aa8565b60405180910390fd5b80600501544211612090576040517f08c379a00000000000000000000000000000000000000000000000000000000081526004016120879061553e565b60405180910390fd5b600060cb60008360010154815260200190815260200160002090508060010160009054906101000a900473ffffffffffffffffffffffffffffffffffffffff1673ffffffffffffffffffffffffffffffffffffffff166323b872dd8360020160009054906101000a900473ffffffffffffffffffffffffffffffffffffffff163073ffffffffffffffffffffffffffffffffffffffff16638da5cb5b6040518163ffffffff1660e01b815260040160206040518083038186803b15801561215657600080fd5b505afa15801561216a573d6000803e3d6000fd5b505050506040513d601f19601f8201168201806040525081019061218e9190614f2a565b84600301546040518463ffffffff1660e01b81526004016121b193929190614f57565b602060405180830381600087803b1580156121cb57600080fd5b505af11580156121df573d6000803e3d6000fd5b505050506040513d601f19601f820116820180604052508101906122039190614fa3565b50806004015482600501546122189190614c86565b826005018190555080600301548260060160008282546122389190614c86565b9250508190555080600301548160090160008282546122579190614c86565b92505081905550505050565b60008073ffffffffffffffffffffffffffffffffffffffff1660cc600084815260200190815260200160002060020160009054906101000a900473ffffffffffffffffffffffffffffffffffffffff1673ffffffffffffffffffffffffffffffffffffffff16141561230a576040517f08c379a000000000000000000000000000000000000000000000000000000000815260040161230190614aa8565b60405180910390fd5b600073ffffffffffffffffffffffffffffffffffffffff1660cb600060cc600086815260200190815260200160002060010154815260200190815260200160002060000160009054906101000a900473ffffffffffffffffffffffffffffffffffffffff1673ffffffffffffffffffffffffffffffffffffffff1614156123c6576040517f08c379a00000000000000000000000000000000000000000000000000000000081526004016123bd90614aa8565b60405180910390fd5b60cb600060cc60008581526020019081526020016000206001015481526020019081526020016000206003015460cb600060cc600086815260200190815260200160002060010154815260200190815260200160002060010160009054906101000a900473ffffffffffffffffffffffffffffffffffffffff1673ffffffffffffffffffffffffffffffffffffffff1663dd62ed3e60cc600086815260200190815260200160002060020160009054906101000a900473ffffffffffffffffffffffffffffffffffffffff16306040518363ffffffff1660e01b81526004016124b0929190614ac8565b60206040518083038186803b1580156124c857600080fd5b505afa1580156124dc573d6000803e3d6000fd5b505050506040513d601f19601f820116820180604052508101906125009190614b06565b11612540576040517f08c379a0000000000000000000000000000000000000000000000000000000008152600401612537906155aa565b60405180910390fd5b60cb600060cc60008581526020019081526020016000206001015481526020019081526020016000206003015460cb600060cc600086815260200190815260200160002060010154815260200190815260200160002060010160009054906101000a900473ffffffffffffffffffffffffffffffffffffffff1673ffffffffffffffffffffffffffffffffffffffff166370a0823160cc600086815260200190815260200160002060020160009054906101000a900473ffffffffffffffffffffffffffffffffffffffff166040518263ffffffff1660e01b81526004016126289190614354565b60206040518083038186803b15801561264057600080fd5b505afa158015612654573d6000803e3d6000fd5b505050506040513d601f19601f820116820180604052508101906126789190614b06565b116126b8576040517f08c379a00000000000000000000000000000000000000000000000000000000081526004016126af90615616565b60405180910390fd5b60cb600060cc60008581526020019081526020016000206001015481526020019081526020016000206003015460cb600060cc600086815260200190815260200160002060010154815260200190815260200160002060010160009054906101000a900473ffffffffffffffffffffffffffffffffffffffff1673ffffffffffffffffffffffffffffffffffffffff1663dd62ed3e60cc600086815260200190815260200160002060020160009054906101000a900473ffffffffffffffffffffffffffffffffffffffff16306040518363ffffffff1660e01b81526004016127a2929190614ac8565b60206040518083038186803b1580156127ba57600080fd5b505afa1580156127ce573d6000803e3d6000fd5b505050506040513d601f19601f820116820180604052508101906127f29190614b06565b118015612934575060cb600060cc60008581526020019081526020016000206001015481526020019081526020016000206003015460cb600060cc600086815260200190815260200160002060010154815260200190815260200160002060010160009054906101000a900473ffffffffffffffffffffffffffffffffffffffff1673ffffffffffffffffffffffffffffffffffffffff166370a0823160cc600086815260200190815260200160002060020160009054906101000a900473ffffffffffffffffffffffffffffffffffffffff166040518263ffffffff1660e01b81526004016128e29190614354565b60206040518083038186803b1580156128fa57600080fd5b505afa15801561290e573d6000803e3d6000fd5b505050506040513d601f19601f820116820180604052508101906129329190614b06565b115b9050919050565b60606000805b60c9548111612a5d5783156129cf573373ffffffffffffffffffffffffffffffffffffffff1660cb600083815260200190815260200160002060000160009054906101000a900473ffffffffffffffffffffffffffffffffffffffff1673ffffffffffffffffffffffffffffffffffffffff1614156129ca576001826129c79190614c86565b91505b612a4a565b600073ffffffffffffffffffffffffffffffffffffffff1660cb600083815260200190815260200160002060000160009054906101000a900473ffffffffffffffffffffffffffffffffffffffff1673ffffffffffffffffffffffffffffffffffffffff1614612a4957600182612a469190614c86565b91505b5b8080612a5590614cdc565b915050612941565b5060008167ffffffffffffffff811115612a7a57612a7961408d565b5b604051908082528060200260200182016040528015612ab357816020015b612aa0613e4d565b815260200190600190039081612a985790505b5090506000805b60c954811015612ebc57600073ffffffffffffffffffffffffffffffffffffffff1660cb600083815260200190815260200160002060000160009054906101000a900473ffffffffffffffffffffffffffffffffffffffff1673ffffffffffffffffffffffffffffffffffffffff1614612ea957851580612ba55750858015612ba457503373ffffffffffffffffffffffffffffffffffffffff1660cb600083815260200190815260200160002060000160009054906101000a900473ffffffffffffffffffffffffffffffffffffffff1673ffffffffffffffffffffffffffffffffffffffff16145b5b15612ea85760cb6000828152602001908152602001600020604051806101600160405290816000820160009054906101000a900473ffffffffffffffffffffffffffffffffffffffff1673ffffffffffffffffffffffffffffffffffffffff1673ffffffffffffffffffffffffffffffffffffffff1681526020016001820160009054906101000a900473ffffffffffffffffffffffffffffffffffffffff1673ffffffffffffffffffffffffffffffffffffffff1673ffffffffffffffffffffffffffffffffffffffff1681526020016002820154815260200160038201548152602001600482015481526020016005820160009054906101000a900460ff1660ff1660ff168152602001600682018054612cc090615091565b80601f0160208091040260200160405190810160405280929190818152602001828054612cec90615091565b8015612d395780601f10612d0e57610100808354040283529160200191612d39565b820191906000526020600020905b815481529060010190602001808311612d1c57829003601f168201915b50505050508152602001600782018054612d5290615091565b80601f0160208091040260200160405190810160405280929190818152602001828054612d7e90615091565b8015612dcb5780601f10612da057610100808354040283529160200191612dcb565b820191906000526020600020905b815481529060010190602001808311612dae57829003601f168201915b50505050508152602001600882018054612de490615091565b80601f0160208091040260200160405190810160405280929190818152602001828054612e1090615091565b8015612e5d5780601f10612e3257610100808354040283529160200191612e5d565b820191906000526020600020905b815481529060010190602001808311612e4057829003601f168201915b5050505050815260200160098201548152602001600a82015481525050838381518110612e8d57612e8c615636565b5b6020026020010181905250600182612ea59190614c86565b91505b5b8080612eb490614cdc565b915050612aba565b50819350505050919050565b60ca5481565b60008060019054906101000a900460ff16159050808015612eff5750600160008054906101000a900460ff1660ff16105b80612f2c5750612f0e306137a8565b158015612f2b5750600160008054906101000a900460ff1660ff16145b5b612f6b576040517f08c379a0000000000000000000000000000000000000000000000000000000008152600401612f6290614e29565b60405180910390fd5b60016000806101000a81548160ff021916908360ff1602179055508015612fa8576001600060016101000a81548160ff0219169083151502179055505b612fb0610dd2565b80156130095760008060016101000a81548160ff0219169083151502179055507f7f26b83ff96e1f2b6a682f133852f6798a09c465da95921460cefb384740249860016040516130009190614e8e565b60405180910390a15b50565b613014613664565b600073ffffffffffffffffffffffffffffffffffffffff168173ffffffffffffffffffffffffffffffffffffffff161415613084576040517f08c379a000000000000000000000000000000000000000000000000000000000815260040161307b906156d7565b60405180910390fd5b61308d816136e2565b50565b60606000805b60ca5481116131b2578315613124573373ffffffffffffffffffffffffffffffffffffffff1660cc600083815260200190815260200160002060020160009054906101000a900473ffffffffffffffffffffffffffffffffffffffff1673ffffffffffffffffffffffffffffffffffffffff16141561311f5760018261311c9190614c86565b91505b61319f565b600073ffffffffffffffffffffffffffffffffffffffff1660cc600083815260200190815260200160002060020160009054906101000a900473ffffffffffffffffffffffffffffffffffffffff1673ffffffffffffffffffffffffffffffffffffffff161461319e5760018261319b9190614c86565b91505b5b80806131aa90614cdc565b915050613096565b5060008167ffffffffffffffff8111156131cf576131ce61408d565b5b60405190808252806020026020018201604052801561320857816020015b6131f5613ed6565b8152602001906001900390816131ed5790505b5090506000805b60ca5481101561347957600073ffffffffffffffffffffffffffffffffffffffff1660cc600083815260200190815260200160002060020160009054906101000a900473ffffffffffffffffffffffffffffffffffffffff1673ffffffffffffffffffffffffffffffffffffffff1614613466578515806132fa57508580156132f957503373ffffffffffffffffffffffffffffffffffffffff1660cc600083815260200190815260200160002060020160009054906101000a900473ffffffffffffffffffffffffffffffffffffffff1673ffffffffffffffffffffffffffffffffffffffff16145b5b156134655760cc60008281526020019081526020016000206040518060e001604052908160008201548152602001600182015481526020016002820160009054906101000a900473ffffffffffffffffffffffffffffffffffffffff1673ffffffffffffffffffffffffffffffffffffffff1673ffffffffffffffffffffffffffffffffffffffff16815260200160038201805461339790615091565b80601f01602080910402602001604051908101604052809291908181526020018280546133c390615091565b80156134105780601f106133e557610100808354040283529160200191613410565b820191906000526020600020905b8154815290600101906020018083116133f357829003601f168201915b50505050508152602001600482015481526020016005820154815260200160068201548152505083838151811061344a57613449615636565b5b60200260200101819052506001826134629190614c86565b91505b5b808061347190614cdc565b91505061320f565b50819350505050919050565b60006134b37f360894a13ba1a3210667c828492db98dca3e2076cc3735a920a3ca505d382bbc60001b6139ad565b60000160009054906101000a900473ffffffffffffffffffffffffffffffffffffffff16905090565b6134e4613664565b50565b6135137f4910fdfa16fed3260ed0e7147f7cc6da11a60208b5b9406d12a635614ffd914360001b6139b7565b60000160009054906101000a900460ff161561353757613532836139c1565b61365f565b8273ffffffffffffffffffffffffffffffffffffffff166352d1902d6040518163ffffffff1660e01b815260040160206040518083038186803b15801561357d57600080fd5b505afa9250505080156135ae57506040513d601f19601f820116820180604052508101906135ab9190615723565b60015b6135ed576040517f08c379a00000000000000000000000000000000000000000000000000000000081526004016135e4906157c2565b60405180910390fd5b7f360894a13ba1a3210667c828492db98dca3e2076cc3735a920a3ca505d382bbc60001b8114613652576040517f08c379a000000000000000000000000000000000000000000000000000000000815260040161364990615854565b60405180910390fd5b5061365e838383613a7a565b5b505050565b61366c613aa6565b73ffffffffffffffffffffffffffffffffffffffff1661368a611380565b73ffffffffffffffffffffffffffffffffffffffff16146136e0576040517f08c379a00000000000000000000000000000000000000000000000000000000081526004016136d7906158c0565b60405180910390fd5b565b6000603360009054906101000a900473ffffffffffffffffffffffffffffffffffffffff16905081603360006101000a81548173ffffffffffffffffffffffffffffffffffffffff021916908373ffffffffffffffffffffffffffffffffffffffff1602179055508173ffffffffffffffffffffffffffffffffffffffff168173ffffffffffffffffffffffffffffffffffffffff167f8be0079c531659141344cd1fd0a4f28419497f9722a3daafe3b4186f6b6457e060405160405180910390a35050565b6000808273ffffffffffffffffffffffffffffffffffffffff163b119050919050565b60008060019054906101000a900460ff161590508080156137fc5750600160008054906101000a900460ff1660ff16105b80613829575061380b306137a8565b1580156138285750600160008054906101000a900460ff1660ff16145b5b613868576040517f08c379a000000000000000000000000000000000000000000000000000000000815260040161385f90614e29565b60405180910390fd5b60016000806101000a81548160ff021916908360ff16021790555080156138a5576001600060016101000a81548160ff0219169083151502179055505b6138ad613aae565b6138b5613b07565b801561390e5760008060016101000a81548160ff0219169083151502179055507f7f26b83ff96e1f2b6a682f133852f6798a09c465da95921460cefb384740249860016040516139059190614e8e565b60405180910390a15b50565b6139a982826040516024016139279291906158e0565b6040516020818303038152906040527fb60e72cc000000000000000000000000000000000000000000000000000000007bffffffffffffffffffffffffffffffffffffffffffffffffffffffff19166020820180517bffffffffffffffffffffffffffffffffffffffffffffffffffffffff8381831617835250505050613b58565b5050565b6000819050919050565b6000819050919050565b6139ca816137a8565b613a09576040517f08c379a0000000000000000000000000000000000000000000000000000000008152600401613a0090615982565b60405180910390fd5b80613a367f360894a13ba1a3210667c828492db98dca3e2076cc3735a920a3ca505d382bbc60001b6139ad565b60000160006101000a81548173ffffffffffffffffffffffffffffffffffffffff021916908373ffffffffffffffffffffffffffffffffffffffff16021790555050565b613a8383613b81565b600082511180613a905750805b15613aa157613a9f8383613bd0565b505b505050565b600033905090565b600060019054906101000a900460ff16613afd576040517f08c379a0000000000000000000000000000000000000000000000000000000008152600401613af490615a14565b60405180910390fd5b613b05613cb4565b565b600060019054906101000a900460ff16613b56576040517f08c379a0000000000000000000000000000000000000000000000000000000008152600401613b4d90615a14565b60405180910390fd5b565b60008151905060006a636f6e736f6c652e6c6f679050602083016000808483855afa5050505050565b613b8a816139c1565b8073ffffffffffffffffffffffffffffffffffffffff167fbc7cd75a20ee27fd9adebab32041f755214dbc6bffa90cc0225b39da2e5c2d3b60405160405180910390a250565b6060613bdb836137a8565b613c1a576040517f08c379a0000000000000000000000000000000000000000000000000000000008152600401613c1190615aa6565b60405180910390fd5b6000808473ffffffffffffffffffffffffffffffffffffffff1684604051613c429190615b0d565b600060405180830381855af49150503d8060008114613c7d576040519150601f19603f3d011682016040523d82523d6000602084013e613c82565b606091505b5091509150613caa8282604051806060016040528060278152602001615b4760279139613d15565b9250505092915050565b600060019054906101000a900460ff16613d03576040517f08c379a0000000000000000000000000000000000000000000000000000000008152600401613cfa90615a14565b60405180910390fd5b613d13613d0e613aa6565b6136e2565b565b60608315613d2557829050613d30565b613d2f8383613d37565b5b9392505050565b600082511115613d4a5781518083602001fd5b806040517f08c379a0000000000000000000000000000000000000000000000000000000008152600401613d7e9190615b24565b60405180910390fd5b508054613d9390615091565b6000825580601f10613da55750613dc4565b601f016020900490600052602060002090810190613dc39190613f29565b5b50565b828054613dd390615091565b90600052602060002090601f016020900481019282613df55760008555613e3c565b82601f10613e0e57805160ff1916838001178555613e3c565b82800160010185558215613e3c579182015b82811115613e3b578251825591602001919060010190613e20565b5b509050613e499190613f29565b5090565b604051806101600160405280600073ffffffffffffffffffffffffffffffffffffffff168152602001600073ffffffffffffffffffffffffffffffffffffffff168152602001600081526020016000815260200160008152602001600060ff16815260200160608152602001606081526020016060815260200160008152602001600081525090565b6040518060e001604052806000815260200160008152602001600073ffffffffffffffffffffffffffffffffffffffff168152602001606081526020016000815260200160008152602001600081525090565b5b80821115613f42576000816000905550600101613f2a565b5090565b6000604051905090565b600080fd5b600080fd5b6000819050919050565b613f6d81613f5a565b8114613f7857600080fd5b50565b600081359050613f8a81613f64565b92915050565b600060208284031215613fa657613fa5613f50565b5b6000613fb484828501613f7b565b91505092915050565b613fc681613f5a565b82525050565b6000602082019050613fe16000830184613fbd565b92915050565b600073ffffffffffffffffffffffffffffffffffffffff82169050919050565b600061401282613fe7565b9050919050565b61402281614007565b811461402d57600080fd5b50565b60008135905061403f81614019565b92915050565b60006020828403121561405b5761405a613f50565b5b600061406984828501614030565b91505092915050565b600080fd5b600080fd5b6000601f19601f8301169050919050565b7f4e487b7100000000000000000000000000000000000000000000000000000000600052604160045260246000fd5b6140c58261407c565b810181811067ffffffffffffffff821117156140e4576140e361408d565b5b80604052505050565b60006140f7613f46565b905061410382826140bc565b919050565b600067ffffffffffffffff8211156141235761412261408d565b5b61412c8261407c565b9050602081019050919050565b82818337600083830152505050565b600061415b61415684614108565b6140ed565b90508281526020810184848401111561417757614176614077565b5b614182848285614139565b509392505050565b600082601f83011261419f5761419e614072565b5b81356141af848260208601614148565b91505092915050565b600080604083850312156141cf576141ce613f50565b5b60006141dd85828601614030565b925050602083013567ffffffffffffffff8111156141fe576141fd613f55565b5b61420a8582860161418a565b9150509250929050565b6000819050919050565b61422781614214565b82525050565b6000602082019050614242600083018461421e565b92915050565b600067ffffffffffffffff8211156142635761426261408d565b5b61426c8261407c565b9050602081019050919050565b600061428c61428784614248565b6140ed565b9050828152602081018484840111156142a8576142a7614077565b5b6142b3848285614139565b509392505050565b600082601f8301126142d0576142cf614072565b5b81356142e0848260208601614279565b91505092915050565b60008060408385031215614300576142ff613f50565b5b600061430e85828601613f7b565b925050602083013567ffffffffffffffff81111561432f5761432e613f55565b5b61433b858286016142bb565b9150509250929050565b61434e81614007565b82525050565b60006020820190506143696000830184614345565b92915050565b60008115159050919050565b6143848161436f565b82525050565b600060208201905061439f600083018461437b565b92915050565b600060ff82169050919050565b6143bb816143a5565b82525050565b600081519050919050565b600082825260208201905092915050565b60005b838110156143fb5780820151818401526020810190506143e0565b8381111561440a576000848401525b50505050565b600061441b826143c1565b61442581856143cc565b93506144358185602086016143dd565b61443e8161407c565b840191505092915050565b60006101608201905061445f600083018e614345565b61446c602083018d614345565b614479604083018c613fbd565b614486606083018b613fbd565b614493608083018a613fbd565b6144a060a08301896143b2565b81810360c08301526144b28188614410565b905081810360e08301526144c68187614410565b90508181036101008301526144db8186614410565b90506144eb610120830185613fbd565b6144f9610140830184613fbd565b9c9b505050505050505050505050565b614512816143a5565b811461451d57600080fd5b50565b60008135905061452f81614509565b92915050565b600080600080600080600060e0888a03121561455457614553613f50565b5b60006145628a828b01614030565b97505060206145738a828b01613f7b565b96505060406145848a828b01613f7b565b95505060606145958a828b01614520565b945050608088013567ffffffffffffffff8111156145b6576145b5613f55565b5b6145c28a828b016142bb565b93505060a088013567ffffffffffffffff8111156145e3576145e2613f55565b5b6145ef8a828b016142bb565b92505060c088013567ffffffffffffffff8111156146105761460f613f55565b5b61461c8a828b016142bb565b91505092959891949750929550565b6146348161436f565b811461463f57600080fd5b50565b6000813590506146518161462b565b92915050565b60006020828403121561466d5761466c613f50565b5b600061467b84828501614642565b91505092915050565b600081519050919050565b600082825260208201905092915050565b6000819050602082019050919050565b6146b981614007565b82525050565b6146c881613f5a565b82525050565b6146d7816143a5565b82525050565b600082825260208201905092915050565b60006146f9826143c1565b61470381856146dd565b93506147138185602086016143dd565b61471c8161407c565b840191505092915050565b60006101608301600083015161474060008601826146b0565b50602083015161475360208601826146b0565b50604083015161476660408601826146bf565b50606083015161477960608601826146bf565b50608083015161478c60808601826146bf565b5060a083015161479f60a08601826146ce565b5060c083015184820360c08601526147b782826146ee565b91505060e083015184820360e08601526147d182826146ee565b9150506101008301518482036101008601526147ed82826146ee565b9150506101208301516148046101208601826146bf565b506101408301516148196101408601826146bf565b508091505092915050565b60006148308383614727565b905092915050565b6000602082019050919050565b600061485082614684565b61485a818561468f565b93508360208202850161486c856146a0565b8060005b858110156148a857848403895281516148898582614824565b945061489483614838565b925060208a01995050600181019050614870565b50829750879550505050505092915050565b600060208201905081810360008301526148d48184614845565b905092915050565b600081519050919050565b600082825260208201905092915050565b6000819050602082019050919050565b600060e08301600083015161492060008601826146bf565b50602083015161493360208601826146bf565b50604083015161494660408601826146b0565b506060830151848203606086015261495e82826146ee565b915050608083015161497360808601826146bf565b5060a083015161498660a08601826146bf565b5060c083015161499960c08601826146bf565b508091505092915050565b60006149b08383614908565b905092915050565b6000602082019050919050565b60006149d0826148dc565b6149da81856148e7565b9350836020820285016149ec856148f8565b8060005b85811015614a285784840389528151614a0985826149a4565b9450614a14836149b8565b925060208a019950506001810190506149f0565b50829750879550505050505092915050565b60006020820190508181036000830152614a5481846149c5565b905092915050565b7f4e45000000000000000000000000000000000000000000000000000000000000600082015250565b6000614a926002836143cc565b9150614a9d82614a5c565b602082019050919050565b60006020820190508181036000830152614ac181614a85565b9050919050565b6000604082019050614add6000830185614345565b614aea6020830184614345565b9392505050565b600081519050614b0081613f64565b92915050565b600060208284031215614b1c57614b1b613f50565b5b6000614b2a84828501614af1565b91505092915050565b7f46756e6374696f6e206d7573742062652063616c6c6564207468726f7567682060008201527f64656c656761746563616c6c0000000000000000000000000000000000000000602082015250565b6000614b8f602c836143cc565b9150614b9a82614b33565b604082019050919050565b60006020820190508181036000830152614bbe81614b82565b9050919050565b7f46756e6374696f6e206d7573742062652063616c6c6564207468726f7567682060008201527f6163746976652070726f78790000000000000000000000000000000000000000602082015250565b6000614c21602c836143cc565b9150614c2c82614bc5565b604082019050919050565b60006020820190508181036000830152614c5081614c14565b9050919050565b7f4e487b7100000000000000000000000000000000000000000000000000000000600052601160045260246000fd5b6000614c9182613f5a565b9150614c9c83613f5a565b9250827fffffffffffffffffffffffffffffffffffffffffffffffffffffffffffffffff03821115614cd157614cd0614c57565b5b828201905092915050565b6000614ce782613f5a565b91507fffffffffffffffffffffffffffffffffffffffffffffffffffffffffffffffff821415614d1a57614d19614c57565b5b600182019050919050565b7f555550535570677261646561626c653a206d757374206e6f742062652063616c60008201527f6c6564207468726f7567682064656c656761746563616c6c0000000000000000602082015250565b6000614d816038836143cc565b9150614d8c82614d25565b604082019050919050565b60006020820190508181036000830152614db081614d74565b9050919050565b7f496e697469616c697a61626c653a20636f6e747261637420697320616c72656160008201527f647920696e697469616c697a6564000000000000000000000000000000000000602082015250565b6000614e13602e836143cc565b9150614e1e82614db7565b604082019050919050565b60006020820190508181036000830152614e4281614e06565b9050919050565b6000819050919050565b6000819050919050565b6000614e78614e73614e6e84614e49565b614e53565b6143a5565b9050919050565b614e8881614e5d565b82525050565b6000602082019050614ea36000830184614e7f565b92915050565b7f4e41000000000000000000000000000000000000000000000000000000000000600082015250565b6000614edf6002836143cc565b9150614eea82614ea9565b602082019050919050565b60006020820190508181036000830152614f0e81614ed2565b9050919050565b600081519050614f2481614019565b92915050565b600060208284031215614f4057614f3f613f50565b5b6000614f4e84828501614f15565b91505092915050565b6000606082019050614f6c6000830186614345565b614f796020830185614345565b614f866040830184613fbd565b949350505050565b600081519050614f9d8161462b565b92915050565b600060208284031215614fb957614fb8613f50565b5b6000614fc784828501614f8e565b91505092915050565b60008160001c9050919050565b600073ffffffffffffffffffffffffffffffffffffffff82169050919050565b600061501061500b83614fd0565b614fdd565b9050919050565b6000819050919050565b600061503461502f83614fd0565b615017565b9050919050565b600060ff82169050919050565b600061505b61505683614fd0565b61503b565b9050919050565b7f4e487b7100000000000000000000000000000000000000000000000000000000600052602260045260246000fd5b600060028204905060018216806150a957607f821691505b602082108114156150bd576150bc615062565b5b50919050565b60008190508160005260206000209050919050565b600081546150e581615091565b6150ef81866146dd565b9450600182166000811461510a576001811461511c5761514f565b60ff198316865260208601935061514f565b615125856150c3565b60005b8381101561514757815481890152600182019150602081019050615128565b808801955050505b50505092915050565b60006101608301600080840154905061517081614ffd565b61517d60008701826146b0565b506001840154905061518e81614ffd565b61519b60208701826146b0565b50600284015490506151ac81615021565b6151b960408701826146bf565b50600384015490506151ca81615021565b6151d760608701826146bf565b50600484015490506151e881615021565b6151f560808701826146bf565b506005840154905061520681615048565b61521360a08701826146ce565b506006840185830360c087015261522a83826150d8565b9250506007840185830360e087015261524383826150d8565b9250506008840185830361010087015261525d83826150d8565b9250506009840154905061527081615021565b61527e6101208701826146bf565b50600a840154905061528f81615021565b61529d6101408701826146bf565b50819250505092915050565b600060e0830160008301516152c160008601826146bf565b5060208301516152d460208601826146bf565b5060408301516152e760408601826146b0565b50606083015184820360608601526152ff82826146ee565b915050608083015161531460808601826146bf565b5060a083015161532760a08601826146bf565b5060c083015161533a60c08601826146bf565b508091505092915050565b600060808201905061535a6000830187614345565b818103602083015261536c8186615158565b9050818103604083015261538081856152a9565b905061538f6060830184613fbd565b95945050505050565b60006153a382613f5a565b91506153ae83613f5a565b9250828210156153c1576153c0614c57565b5b828203905092915050565b60006153d782613f5a565b91506153e283613f5a565b9250817fffffffffffffffffffffffffffffffffffffffffffffffffffffffffffffffff048311821515161561541b5761541a614c57565b5b828202905092915050565b7f4e487b7100000000000000000000000000000000000000000000000000000000600052601260045260246000fd5b600061546082613f5a565b915061546b83613f5a565b92508261547b5761547a615426565b5b828204905092915050565b7f4754300000000000000000000000000000000000000000000000000000000000600082015250565b60006154bc6003836143cc565b91506154c782615486565b602082019050919050565b600060208201905081810360008301526154eb816154af565b9050919050565b7f4e4f545f44554500000000000000000000000000000000000000000000000000600082015250565b60006155286007836143cc565b9150615533826154f2565b602082019050919050565b600060208201905081810360008301526155578161551b565b9050919050565b7f414d4f554e545f4e4f545f414c4c4f5745440000000000000000000000000000600082015250565b60006155946012836143cc565b915061559f8261555e565b602082019050919050565b600060208201905081810360008301526155c381615587565b9050919050565b7f414d4f554e545f4e494e5f42414c414e43450000000000000000000000000000600082015250565b60006156006012836143cc565b915061560b826155ca565b602082019050919050565b6000602082019050818103600083015261562f816155f3565b9050919050565b7f4e487b7100000000000000000000000000000000000000000000000000000000600052603260045260246000fd5b7f4f776e61626c653a206e6577206f776e657220697320746865207a65726f206160008201527f6464726573730000000000000000000000000000000000000000000000000000602082015250565b60006156c16026836143cc565b91506156cc82615665565b604082019050919050565b600060208201905081810360008301526156f0816156b4565b9050919050565b61570081614214565b811461570b57600080fd5b50565b60008151905061571d816156f7565b92915050565b60006020828403121561573957615738613f50565b5b60006157478482850161570e565b91505092915050565b7f45524331393637557067726164653a206e657720696d706c656d656e7461746960008201527f6f6e206973206e6f742055555053000000000000000000000000000000000000602082015250565b60006157ac602e836143cc565b91506157b782615750565b604082019050919050565b600060208201905081810360008301526157db8161579f565b9050919050565b7f45524331393637557067726164653a20756e737570706f727465642070726f7860008201527f6961626c65555549440000000000000000000000000000000000000000000000602082015250565b600061583e6029836143cc565b9150615849826157e2565b604082019050919050565b6000602082019050818103600083015261586d81615831565b9050919050565b7f4f776e61626c653a2063616c6c6572206973206e6f7420746865206f776e6572600082015250565b60006158aa6020836143cc565b91506158b582615874565b602082019050919050565b600060208201905081810360008301526158d98161589d565b9050919050565b600060408201905081810360008301526158fa8185614410565b90506159096020830184613fbd565b9392505050565b7f455243313936373a206e657720696d706c656d656e746174696f6e206973206e60008201527f6f74206120636f6e747261637400000000000000000000000000000000000000602082015250565b600061596c602d836143cc565b915061597782615910565b604082019050919050565b6000602082019050818103600083015261599b8161595f565b9050919050565b7f496e697469616c697a61626c653a20636f6e7472616374206973206e6f74206960008201527f6e697469616c697a696e67000000000000000000000000000000000000000000602082015250565b60006159fe602b836143cc565b9150615a09826159a2565b604082019050919050565b60006020820190508181036000830152615a2d816159f1565b9050919050565b7f416464726573733a2064656c65676174652063616c6c20746f206e6f6e2d636f60008201527f6e74726163740000000000000000000000000000000000000000000000000000602082015250565b6000615a906026836143cc565b9150615a9b82615a34565b604082019050919050565b60006020820190508181036000830152615abf81615a83565b9050919050565b600081519050919050565b600081905092915050565b6000615ae782615ac6565b615af18185615ad1565b9350615b018185602086016143dd565b80840191505092915050565b6000615b198284615adc565b915081905092915050565b60006020820190508181036000830152615b3e8184614410565b90509291505056fe416464726573733a206c6f772d6c6576656c2064656c65676174652063616c6c206661696c6564a2646970667358221220cf0dc5209fe77bdb41a9a0d51d96d3b052234171f8146f8e88908ac0b22e14cb64736f6c63430008090033",
  "linkReferences": {},
  "deployedLinkReferences": {}
}