{
  "_format": "hh-sol-artifact-1",
  "contractName": "PaymentV1",
  "sourceName": "contracts/PaymentVersions.sol",
  "abi": [
    {
      "anonymous": false,
      "inputs": [
        {
          "indexed": false,
          "internalType": "address",
          "name": "previousAdmin",
          "type": "address"
        },
        {
          "indexed": false,
          "internalType": "address",
          "name": "newAdmin",
          "type": "address"
        }
      ],
      "name": "AdminChanged",
      "type": "event"
    },
    {
      "anonymous": false,
      "inputs": [
        {
          "indexed": true,
          "internalType": "address",
          "name": "beacon",
          "type": "address"
        }
      ],
      "name": "BeaconUpgraded",
      "type": "event"
    },
    {
      "anonymous": false,
      "inputs": [
        {
          "indexed": false,
          "internalType": "uint8",
          "name": "version",
          "type": "uint8"
        }
      ],
      "name": "Initialized",
      "type": "event"
    },
    {
      "anonymous": false,
      "inputs": [
        {
          "indexed": true,
          "internalType": "address",
          "name": "previousOwner",
          "type": "address"
        },
        {
          "indexed": true,
          "internalType": "address",
          "name": "newOwner",
          "type": "address"
        }
      ],
      "name": "OwnershipTransferred",
      "type": "event"
    },
    {
      "anonymous": false,
      "inputs": [
        {
          "indexed": false,
          "internalType": "address",
          "name": "subscriber",
          "type": "address"
        },
        {
          "components": [
            {
              "internalType": "address",
              "name": "merchant",
              "type": "address"
            },
            {
              "internalType": "address",
              "name": "token",
              "type": "address"
            },
            {
              "internalType": "uint256",
              "name": "planId",
              "type": "uint256"
            },
            {
              "internalType": "uint256",
              "name": "amount",
              "type": "uint256"
            },
            {
              "internalType": "uint256",
              "name": "frequency",
              "type": "uint256"
            },
            {
              "internalType": "uint8",
              "name": "planType",
              "type": "uint8"
            },
            {
              "internalType": "string",
              "name": "planTypeInfos",
              "type": "string"
            },
            {
              "internalType": "string",
              "name": "planName",
              "type": "string"
            },
            {
              "internalType": "string",
              "name": "merchantName",
              "type": "string"
            }
          ],
          "indexed": false,
          "internalType": "struct PaymentV0.Plan",
          "name": "plan",
          "type": "tuple"
        },
        {
          "components": [
            {
              "internalType": "uint256",
              "name": "subscriptionId",
              "type": "uint256"
            },
            {
              "internalType": "uint256",
              "name": "planId",
              "type": "uint256"
            },
            {
              "internalType": "address",
              "name": "subscriber",
              "type": "address"
            },
            {
              "internalType": "string",
              "name": "subscriberInfos",
              "type": "string"
            },
            {
              "internalType": "uint256",
              "name": "start",
              "type": "uint256"
            },
            {
              "internalType": "uint256",
              "name": "nextPayment",
              "type": "uint256"
            }
          ],
          "indexed": false,
          "internalType": "struct PaymentV0.Subscription",
          "name": "subscription",
          "type": "tuple"
        },
        {
          "indexed": false,
          "internalType": "uint256",
          "name": "date",
          "type": "uint256"
        }
      ],
      "name": "SubscriptionCreated",
      "type": "event"
    },
    {
      "anonymous": false,
      "inputs": [
        {
          "indexed": true,
          "internalType": "address",
          "name": "implementation",
          "type": "address"
        }
      ],
      "name": "Upgraded",
      "type": "event"
    },
    {
      "inputs": [
        {
          "internalType": "uint256",
          "name": "planId",
          "type": "uint256"
        }
      ],
      "name": "allowance",
      "outputs": [
        {
          "internalType": "uint256",
          "name": "success",
          "type": "uint256"
        }
      ],
      "stateMutability": "view",
      "type": "function"
    },
    {
      "inputs": [
        {
          "internalType": "uint256",
          "name": "subscriptionId",
          "type": "uint256"
        }
      ],
      "name": "balance",
      "outputs": [
        {
          "internalType": "uint256",
          "name": "success",
          "type": "uint256"
        }
      ],
      "stateMutability": "view",
      "type": "function"
    },
    {
      "inputs": [
        {
          "internalType": "uint256",
          "name": "subscriptionId",
          "type": "uint256"
        }
      ],
      "name": "cancel",
      "outputs": [],
      "stateMutability": "nonpayable",
      "type": "function"
    },
    {
      "inputs": [
        {
          "internalType": "address",
          "name": "token",
          "type": "address"
        },
        {
          "internalType": "uint256",
          "name": "amount",
          "type": "uint256"
        },
        {
          "internalType": "uint256",
          "name": "frequency",
          "type": "uint256"
        },
        {
          "internalType": "uint8",
          "name": "planType",
          "type": "uint8"
        },
        {
          "internalType": "string",
          "name": "planTypeInfos",
          "type": "string"
        },
        {
          "internalType": "string",
          "name": "planName",
          "type": "string"
        },
        {
          "internalType": "string",
          "name": "merchantName",
          "type": "string"
        }
      ],
      "name": "createPlan",
      "outputs": [],
      "stateMutability": "nonpayable",
      "type": "function"
    },
    {
      "inputs": [],
      "name": "getContractVersion",
      "outputs": [
        {
          "internalType": "uint256",
          "name": "",
          "type": "uint256"
        }
      ],
      "stateMutability": "view",
      "type": "function"
    },
    {
      "inputs": [
        {
          "internalType": "bool",
          "name": "onlyMine",
          "type": "bool"
        }
      ],
      "name": "getPlans",
      "outputs": [
        {
          "components": [
            {
              "internalType": "address",
              "name": "merchant",
              "type": "address"
            },
            {
              "internalType": "address",
              "name": "token",
              "type": "address"
            },
            {
              "internalType": "uint256",
              "name": "planId",
              "type": "uint256"
            },
            {
              "internalType": "uint256",
              "name": "amount",
              "type": "uint256"
            },
            {
              "internalType": "uint256",
              "name": "frequency",
              "type": "uint256"
            },
            {
              "internalType": "uint8",
              "name": "planType",
              "type": "uint8"
            },
            {
              "internalType": "string",
              "name": "planTypeInfos",
              "type": "string"
            },
            {
              "internalType": "string",
              "name": "planName",
              "type": "string"
            },
            {
              "internalType": "string",
              "name": "merchantName",
              "type": "string"
            }
          ],
          "internalType": "struct PaymentV0.Plan[]",
          "name": "",
          "type": "tuple[]"
        }
      ],
      "stateMutability": "view",
      "type": "function"
    },
    {
      "inputs": [
        {
          "internalType": "bool",
          "name": "onlyMine",
          "type": "bool"
        }
      ],
      "name": "getSubscriptions",
      "outputs": [
        {
          "components": [
            {
              "internalType": "uint256",
              "name": "subscriptionId",
              "type": "uint256"
            },
            {
              "internalType": "uint256",
              "name": "planId",
              "type": "uint256"
            },
            {
              "internalType": "address",
              "name": "subscriber",
              "type": "address"
            },
            {
              "internalType": "string",
              "name": "subscriberInfos",
              "type": "string"
            },
            {
              "internalType": "uint256",
              "name": "start",
              "type": "uint256"
            },
            {
              "internalType": "uint256",
              "name": "nextPayment",
              "type": "uint256"
            }
          ],
          "internalType": "struct PaymentV0.Subscription[]",
          "name": "",
          "type": "tuple[]"
        }
      ],
      "stateMutability": "view",
      "type": "function"
    },
    {
      "inputs": [],
      "name": "init",
      "outputs": [],
      "stateMutability": "nonpayable",
      "type": "function"
    },
    {
      "inputs": [],
      "name": "initialize",
      "outputs": [],
      "stateMutability": "nonpayable",
      "type": "function"
    },
    {
      "inputs": [
        {
          "internalType": "uint256",
          "name": "planId",
          "type": "uint256"
        }
      ],
      "name": "isPayable",
      "outputs": [
        {
          "internalType": "bool",
          "name": "success",
          "type": "bool"
        }
      ],
      "stateMutability": "view",
      "type": "function"
    },
    {
      "inputs": [
        {
          "internalType": "uint256",
          "name": "subscriptionId",
          "type": "uint256"
        }
      ],
      "name": "isRenewable",
      "outputs": [
        {
          "internalType": "bool",
          "name": "success",
          "type": "bool"
        }
      ],
      "stateMutability": "view",
      "type": "function"
    },
    {
      "inputs": [],
      "name": "nextPlanId",
      "outputs": [
        {
          "internalType": "uint256",
          "name": "",
          "type": "uint256"
        }
      ],
      "stateMutability": "view",
      "type": "function"
    },
    {
      "inputs": [],
      "name": "nextSubscriptionId",
      "outputs": [
        {
          "internalType": "uint256",
          "name": "",
          "type": "uint256"
        }
      ],
      "stateMutability": "view",
      "type": "function"
    },
    {
      "inputs": [],
      "name": "owner",
      "outputs": [
        {
          "internalType": "address",
          "name": "",
          "type": "address"
        }
      ],
      "stateMutability": "view",
      "type": "function"
    },
    {
      "inputs": [
        {
          "internalType": "uint256",
          "name": "subscriptionId",
          "type": "uint256"
        }
      ],
      "name": "pay",
      "outputs": [],
      "stateMutability": "nonpayable",
      "type": "function"
    },
    {
      "inputs": [
        {
          "internalType": "uint256",
          "name": "",
          "type": "uint256"
        }
      ],
      "name": "plans",
      "outputs": [
        {
          "internalType": "address",
          "name": "merchant",
          "type": "address"
        },
        {
          "internalType": "address",
          "name": "token",
          "type": "address"
        },
        {
          "internalType": "uint256",
          "name": "planId",
          "type": "uint256"
        },
        {
          "internalType": "uint256",
          "name": "amount",
          "type": "uint256"
        },
        {
          "internalType": "uint256",
          "name": "frequency",
          "type": "uint256"
        },
        {
          "internalType": "uint8",
          "name": "planType",
          "type": "uint8"
        },
        {
          "internalType": "string",
          "name": "planTypeInfos",
          "type": "string"
        },
        {
          "internalType": "string",
          "name": "planName",
          "type": "string"
        },
        {
          "internalType": "string",
          "name": "merchantName",
          "type": "string"
        }
      ],
      "stateMutability": "view",
      "type": "function"
    },
    {
      "inputs": [],
      "name": "proxiableUUID",
      "outputs": [
        {
          "internalType": "bytes32",
          "name": "",
          "type": "bytes32"
        }
      ],
      "stateMutability": "view",
      "type": "function"
    },
    {
      "inputs": [],
      "name": "renounceOwnership",
      "outputs": [],
      "stateMutability": "nonpayable",
      "type": "function"
    },
    {
      "inputs": [
        {
          "internalType": "uint256",
          "name": "planId",
          "type": "uint256"
        },
        {
          "internalType": "string",
          "name": "customData",
          "type": "string"
        }
      ],
      "name": "subscribe",
      "outputs": [],
      "stateMutability": "nonpayable",
      "type": "function"
    },
    {
      "inputs": [
        {
          "internalType": "address",
          "name": "",
          "type": "address"
        },
        {
          "internalType": "uint256",
          "name": "",
          "type": "uint256"
        }
      ],
      "name": "subscriptions",
      "outputs": [
        {
          "internalType": "uint256",
          "name": "subscriptionId",
          "type": "uint256"
        },
        {
          "internalType": "uint256",
          "name": "planId",
          "type": "uint256"
        },
        {
          "internalType": "address",
          "name": "subscriber",
          "type": "address"
        },
        {
          "internalType": "string",
          "name": "subscriberInfos",
          "type": "string"
        },
        {
          "internalType": "uint256",
          "name": "start",
          "type": "uint256"
        },
        {
          "internalType": "uint256",
          "name": "nextPayment",
          "type": "uint256"
        }
      ],
      "stateMutability": "view",
      "type": "function"
    },
    {
      "inputs": [
        {
          "internalType": "address",
          "name": "newOwner",
          "type": "address"
        }
      ],
      "name": "transferOwnership",
      "outputs": [],
      "stateMutability": "nonpayable",
      "type": "function"
    },
    {
      "inputs": [
        {
          "internalType": "address",
          "name": "newImplementation",
          "type": "address"
        }
      ],
      "name": "upgradeTo",
      "outputs": [],
      "stateMutability": "nonpayable",
      "type": "function"
    },
    {
      "inputs": [
        {
          "internalType": "address",
          "name": "newImplementation",
          "type": "address"
        },
        {
          "internalType": "bytes",
          "name": "data",
          "type": "bytes"
        }
      ],
      "name": "upgradeToAndCall",
      "outputs": [],
      "stateMutability": "payable",
      "type": "function"
    }
  ],
  "bytecode": "0x60a06040523073ffffffffffffffffffffffffffffffffffffffff1660809073ffffffffffffffffffffffffffffffffffffffff1681525034801561004357600080fd5b506080516156566200007c600039600081816106d90152818161076801528181610cba01528181610d490152610df901526156566000f3fe6080604052600436106101405760003560e01c80638aa10435116100b6578063cde317af1161006f578063cde317af14610446578063d8a1854d14610483578063da58935f146104c0578063e1c7392a146104eb578063f2fde38b14610502578063ff8f44021461052b57610140565b80638aa104351461031c5780638da5cb5b146103475780639f7d647d14610372578063b1620616146103af578063b1c9cc2f146103f4578063c290d6911461041d57610140565b806352d1902d1161010857806352d1902d1461022d5780635f8d26b214610258578063623da3d114610283578063715018a6146102c55780638129fc1c146102dc57806386d4fbd3146102f357610140565b80632e43d7dc146101455780633659cfe61461018257806340e58ee5146101ab57806347bb89f0146101d45780634f1ef28614610211575b600080fd5b34801561015157600080fd5b5061016c60048036038101906101679190613ba7565b610568565b6040516101799190613be3565b60405180910390f35b34801561018e57600080fd5b506101a960048036038101906101a49190613c5c565b6106d7565b005b3480156101b757600080fd5b506101d260048036038101906101cd9190613ba7565b610860565b005b3480156101e057600080fd5b506101fb60048036038101906101f69190613ba7565b610aff565b6040516102089190613be3565b60405180910390f35b61022b60048036038101906102269190613dcf565b610cb8565b005b34801561023957600080fd5b50610242610df5565b60405161024f9190613e44565b60405180910390f35b34801561026457600080fd5b5061026d610eae565b60405161027a9190613be3565b60405180910390f35b34801561028f57600080fd5b506102aa60048036038101906102a59190613e5f565b610eb4565b6040516102bc96959493929190613f36565b60405180910390f35b3480156102d157600080fd5b506102da610fa5565b005b3480156102e857600080fd5b506102f1610fb9565b005b3480156102ff57600080fd5b5061031a6004803603810190610315919061403f565b611107565b005b34801561032857600080fd5b506103316115b4565b60405161033e9190613be3565b60405180910390f35b34801561035357600080fd5b5061035c6115bd565b604051610369919061409b565b60405180910390f35b34801561037e57600080fd5b5061039960048036038101906103949190613ba7565b6115e7565b6040516103a691906140d1565b60405180910390f35b3480156103bb57600080fd5b506103d660048036038101906103d19190613ba7565b61184d565b6040516103eb99989796959493929190614108565b60405180910390f35b34801561040057600080fd5b5061041b600480360381019061041691906141d6565b611a80565b005b34801561042957600080fd5b50610444600480360381019061043f9190613ba7565b611d45565b005b34801561045257600080fd5b5061046d60048036038101906104689190613ba7565b611f72565b60405161047a91906140d1565b60405180910390f35b34801561048f57600080fd5b506104aa60048036038101906104a591906142f8565b61264a565b6040516104b79190614531565b60405180910390f35b3480156104cc57600080fd5b506104d5612bc3565b6040516104e29190613be3565b60405180910390f35b3480156104f757600080fd5b50610500612bc9565b005b34801561050e57600080fd5b5061052960048036038101906105249190613c5c565b612d07565b005b34801561053757600080fd5b50610552600480360381019061054d91906142f8565b612d8b565b60405161055f919061469e565b60405180910390f35b60008073ffffffffffffffffffffffffffffffffffffffff1660cb600084815260200190815260200160002060000160009054906101000a900473ffffffffffffffffffffffffffffffffffffffff1673ffffffffffffffffffffffffffffffffffffffff16141561060f576040517f08c379a00000000000000000000000000000000000000000000000000000000081526004016106069061470c565b60405180910390fd5b60cb600083815260200190815260200160002060010160009054906101000a900473ffffffffffffffffffffffffffffffffffffffff1673ffffffffffffffffffffffffffffffffffffffff1663dd62ed3e33306040518363ffffffff1660e01b815260040161068092919061472c565b60206040518083038186803b15801561069857600080fd5b505afa1580156106ac573d6000803e3d6000fd5b505050506040513d601f19601f820116820180604052508101906106d0919061476a565b9050919050565b7f000000000000000000000000000000000000000000000000000000000000000073ffffffffffffffffffffffffffffffffffffffff163073ffffffffffffffffffffffffffffffffffffffff161415610766576040517f08c379a000000000000000000000000000000000000000000000000000000000815260040161075d90614809565b60405180910390fd5b7f000000000000000000000000000000000000000000000000000000000000000073ffffffffffffffffffffffffffffffffffffffff166107a5613176565b73ffffffffffffffffffffffffffffffffffffffff16146107fb576040517f08c379a00000000000000000000000000000000000000000000000000000000081526004016107f29061489b565b60405180910390fd5b610804816131cd565b61085d81600067ffffffffffffffff81111561082357610822613ca4565b5b6040519080825280601f01601f1916602001820160405280156108555781602001600182028036833780820191505090505b5060006131d8565b50565b600060cc60003373ffffffffffffffffffffffffffffffffffffffff1673ffffffffffffffffffffffffffffffffffffffff16815260200190815260200160002060008381526020019081526020016000209050600073ffffffffffffffffffffffffffffffffffffffff168160020160009054906101000a900473ffffffffffffffffffffffffffffffffffffffff1673ffffffffffffffffffffffffffffffffffffffff161415610948576040517f08c379a000000000000000000000000000000000000000000000000000000000815260040161093f9061470c565b60405180910390fd5b6000805b60ca5481116109e2573373ffffffffffffffffffffffffffffffffffffffff1660cd600083815260200190815260200160002060020160009054906101000a900473ffffffffffffffffffffffffffffffffffffffff1673ffffffffffffffffffffffffffffffffffffffff1614156109cf576001826109cc91906148ea565b91505b80806109da90614940565b91505061094c565b5060cc60003373ffffffffffffffffffffffffffffffffffffffff1673ffffffffffffffffffffffffffffffffffffffff168152602001908152602001600020600084815260200190815260200160002060008082016000905560018201600090556002820160006101000a81549073ffffffffffffffffffffffffffffffffffffffff0219169055600382016000610a7b91906139b3565b60048201600090556005820160009055505060cd600084815260200190815260200160002060008082016000905560018201600090556002820160006101000a81549073ffffffffffffffffffffffffffffffffffffffff0219169055600382016000610ae891906139b3565b600482016000905560058201600090555050505050565b60008073ffffffffffffffffffffffffffffffffffffffff1660cd600084815260200190815260200160002060020160009054906101000a900473ffffffffffffffffffffffffffffffffffffffff1673ffffffffffffffffffffffffffffffffffffffff161415610ba6576040517f08c379a0000000000000000000000000000000000000000000000000000000008152600401610b9d9061470c565b60405180910390fd5b60cb600060cd600085815260200190815260200160002060010154815260200190815260200160002060010160009054906101000a900473ffffffffffffffffffffffffffffffffffffffff1673ffffffffffffffffffffffffffffffffffffffff166370a0823160cd600085815260200190815260200160002060020160009054906101000a900473ffffffffffffffffffffffffffffffffffffffff166040518263ffffffff1660e01b8152600401610c61919061409b565b60206040518083038186803b158015610c7957600080fd5b505afa158015610c8d573d6000803e3d6000fd5b505050506040513d601f19601f82011682018060405250810190610cb1919061476a565b9050919050565b7f000000000000000000000000000000000000000000000000000000000000000073ffffffffffffffffffffffffffffffffffffffff163073ffffffffffffffffffffffffffffffffffffffff161415610d47576040517f08c379a0000000000000000000000000000000000000000000000000000000008152600401610d3e90614809565b60405180910390fd5b7f000000000000000000000000000000000000000000000000000000000000000073ffffffffffffffffffffffffffffffffffffffff16610d86613176565b73ffffffffffffffffffffffffffffffffffffffff1614610ddc576040517f08c379a0000000000000000000000000000000000000000000000000000000008152600401610dd39061489b565b60405180910390fd5b610de5826131cd565b610df1828260016131d8565b5050565b60007f000000000000000000000000000000000000000000000000000000000000000073ffffffffffffffffffffffffffffffffffffffff163073ffffffffffffffffffffffffffffffffffffffff1614610e85576040517f08c379a0000000000000000000000000000000000000000000000000000000008152600401610e7c906149fb565b60405180910390fd5b7f360894a13ba1a3210667c828492db98dca3e2076cc3735a920a3ca505d382bbc60001b905090565b60c95481565b60cc602052816000526040600020602052806000526040600020600091509150508060000154908060010154908060020160009054906101000a900473ffffffffffffffffffffffffffffffffffffffff1690806003018054610f1690614a4a565b80601f0160208091040260200160405190810160405280929190818152602001828054610f4290614a4a565b8015610f8f5780601f10610f6457610100808354040283529160200191610f8f565b820191906000526020600020905b815481529060010190602001808311610f7257829003601f168201915b5050505050908060040154908060050154905086565b610fad613355565b610fb760006133d3565b565b60008060019054906101000a900460ff16159050808015610fea5750600160008054906101000a900460ff1660ff16105b806110175750610ff930613499565b1580156110165750600160008054906101000a900460ff1660ff16145b5b611056576040517f08c379a000000000000000000000000000000000000000000000000000000000815260040161104d90614aee565b60405180910390fd5b60016000806101000a81548160ff021916908360ff1602179055508015611093576001600060016101000a81548160ff0219169083151502179055505b61109b6134bc565b600060ca81905550600060c98190555080156111045760008060016101000a81548160ff0219169083151502179055507f7f26b83ff96e1f2b6a682f133852f6798a09c465da95921460cefb384740249860016040516110fb9190614b53565b60405180910390a15b50565b600060cb600084815260200190815260200160002060010160009054906101000a900473ffffffffffffffffffffffffffffffffffffffff169050600060cb60008581526020019081526020016000209050600073ffffffffffffffffffffffffffffffffffffffff168160000160009054906101000a900473ffffffffffffffffffffffffffffffffffffffff1673ffffffffffffffffffffffffffffffffffffffff1614156111ed576040517f08c379a00000000000000000000000000000000000000000000000000000000081526004016111e49061470c565b60405180910390fd5b80600301548273ffffffffffffffffffffffffffffffffffffffff1663dd62ed3e33306040518363ffffffff1660e01b815260040161122d92919061472c565b60206040518083038186803b15801561124557600080fd5b505afa158015611259573d6000803e3d6000fd5b505050506040513d601f19601f8201168201806040525081019061127d919061476a565b116112bd576040517f08c379a00000000000000000000000000000000000000000000000000000000081526004016112b490614bba565b60405180910390fd5b8173ffffffffffffffffffffffffffffffffffffffff166323b872dd338360000160009054906101000a900473ffffffffffffffffffffffffffffffffffffffff1684600301546040518463ffffffff1660e01b815260040161132293929190614bda565b602060405180830381600087803b15801561133c57600080fd5b505af1158015611350573d6000803e3d6000fd5b505050506040513d601f19601f820116820180604052508101906113749190614c26565b5060006040518060c0016040528060ca548152602001836002015481526020013373ffffffffffffffffffffffffffffffffffffffff1681526020018581526020014281526020018360040154426113cc91906148ea565b81525090508060cc60003373ffffffffffffffffffffffffffffffffffffffff1673ffffffffffffffffffffffffffffffffffffffff168152602001908152602001600020600060ca548152602001908152602001600020600082015181600001556020820151816001015560408201518160020160006101000a81548173ffffffffffffffffffffffffffffffffffffffff021916908373ffffffffffffffffffffffffffffffffffffffff160217905550606082015181600301908051906020019061149b9291906139f3565b506080820151816004015560a082015181600501559050508060cd600060ca548152602001908152602001600020600082015181600001556020820151816001015560408201518160020160006101000a81548173ffffffffffffffffffffffffffffffffffffffff021916908373ffffffffffffffffffffffffffffffffffffffff16021790555060608201518160030190805190602001906115409291906139f3565b506080820151816004015560a082015181600501559050507f8dafd73228a3869b3d1d33b2ee0f47016e0762ee88722f52720f5948ed67cdb63383834260405161158d9493929190614f16565b60405180910390a160ca60008154809291906115a890614940565b91905055505050505050565b60006001905090565b6000603360009054906101000a900473ffffffffffffffffffffffffffffffffffffffff16905090565b60008073ffffffffffffffffffffffffffffffffffffffff1660cb600084815260200190815260200160002060000160009054906101000a900473ffffffffffffffffffffffffffffffffffffffff1673ffffffffffffffffffffffffffffffffffffffff16141561168e576040517f08c379a00000000000000000000000000000000000000000000000000000000081526004016116859061470c565b60405180910390fd5b60cb60008381526020019081526020016000206003015460cb600084815260200190815260200160002060010160009054906101000a900473ffffffffffffffffffffffffffffffffffffffff1673ffffffffffffffffffffffffffffffffffffffff1663dd62ed3e33306040518363ffffffff1660e01b815260040161171692919061472c565b60206040518083038186803b15801561172e57600080fd5b505afa158015611742573d6000803e3d6000fd5b505050506040513d601f19601f82011682018060405250810190611766919061476a565b118015611846575060cb60008381526020019081526020016000206003015460cb600084815260200190815260200160002060010160009054906101000a900473ffffffffffffffffffffffffffffffffffffffff1673ffffffffffffffffffffffffffffffffffffffff166370a08231336040518263ffffffff1660e01b81526004016117f4919061409b565b60206040518083038186803b15801561180c57600080fd5b505afa158015611820573d6000803e3d6000fd5b505050506040513d601f19601f82011682018060405250810190611844919061476a565b115b9050919050565b60cb6020528060005260406000206000915090508060000160009054906101000a900473ffffffffffffffffffffffffffffffffffffffff16908060010160009054906101000a900473ffffffffffffffffffffffffffffffffffffffff16908060020154908060030154908060040154908060050160009054906101000a900460ff16908060060180546118e190614a4a565b80601f016020809104026020016040519081016040528092919081815260200182805461190d90614a4a565b801561195a5780601f1061192f5761010080835404028352916020019161195a565b820191906000526020600020905b81548152906001019060200180831161193d57829003601f168201915b50505050509080600701805461196f90614a4a565b80601f016020809104026020016040519081016040528092919081815260200182805461199b90614a4a565b80156119e85780601f106119bd576101008083540402835291602001916119e8565b820191906000526020600020905b8154815290600101906020018083116119cb57829003601f168201915b5050505050908060080180546119fd90614a4a565b80601f0160208091040260200160405190810160405280929190818152602001828054611a2990614a4a565b8015611a765780601f10611a4b57610100808354040283529160200191611a76565b820191906000526020600020905b815481529060010190602001808311611a5957829003601f168201915b5050505050905089565b600073ffffffffffffffffffffffffffffffffffffffff168773ffffffffffffffffffffffffffffffffffffffff161415611af0576040517f08c379a0000000000000000000000000000000000000000000000000000000008152600401611ae79061470c565b60405180910390fd5b60008611611b33576040517f08c379a0000000000000000000000000000000000000000000000000000000008152600401611b2a90614fb5565b60405180910390fd5b60008511611b76576040517f08c379a0000000000000000000000000000000000000000000000000000000008152600401611b6d90614fb5565b60405180910390fd5b6040518061012001604052803373ffffffffffffffffffffffffffffffffffffffff1681526020018873ffffffffffffffffffffffffffffffffffffffff16815260200160c95481526020018781526020018681526020018560ff1681526020018481526020018381526020018281525060cb600060c954815260200190815260200160002060008201518160000160006101000a81548173ffffffffffffffffffffffffffffffffffffffff021916908373ffffffffffffffffffffffffffffffffffffffff16021790555060208201518160010160006101000a81548173ffffffffffffffffffffffffffffffffffffffff021916908373ffffffffffffffffffffffffffffffffffffffff16021790555060408201518160020155606082015181600301556080820151816004015560a08201518160050160006101000a81548160ff021916908360ff16021790555060c0820151816006019080519060200190611ce59291906139f3565b5060e0820151816007019080519060200190611d029291906139f3565b50610100820151816008019080519060200190611d209291906139f3565b5090505060c96000815480929190611d3790614940565b919050555050505050505050565b600060cd60008381526020019081526020016000209050600073ffffffffffffffffffffffffffffffffffffffff168160020160009054906101000a900473ffffffffffffffffffffffffffffffffffffffff1673ffffffffffffffffffffffffffffffffffffffff161415611df0576040517f08c379a0000000000000000000000000000000000000000000000000000000008152600401611de79061470c565b60405180910390fd5b80600501544211611e36576040517f08c379a0000000000000000000000000000000000000000000000000000000008152600401611e2d90615021565b60405180910390fd5b600060cb60008360010154815260200190815260200160002090508060010160009054906101000a900473ffffffffffffffffffffffffffffffffffffffff1673ffffffffffffffffffffffffffffffffffffffff166323b872dd8360020160009054906101000a900473ffffffffffffffffffffffffffffffffffffffff168360000160009054906101000a900473ffffffffffffffffffffffffffffffffffffffff1684600301546040518463ffffffff1660e01b8152600401611efe93929190614bda565b602060405180830381600087803b158015611f1857600080fd5b505af1158015611f2c573d6000803e3d6000fd5b505050506040513d601f19601f82011682018060405250810190611f509190614c26565b5080600401548260050154611f6591906148ea565b8260050181905550505050565b60008073ffffffffffffffffffffffffffffffffffffffff1660cd600084815260200190815260200160002060020160009054906101000a900473ffffffffffffffffffffffffffffffffffffffff1673ffffffffffffffffffffffffffffffffffffffff161415612019576040517f08c379a00000000000000000000000000000000000000000000000000000000081526004016120109061470c565b60405180910390fd5b600073ffffffffffffffffffffffffffffffffffffffff1660cb600060cd600086815260200190815260200160002060010154815260200190815260200160002060000160009054906101000a900473ffffffffffffffffffffffffffffffffffffffff1673ffffffffffffffffffffffffffffffffffffffff1614156120d5576040517f08c379a00000000000000000000000000000000000000000000000000000000081526004016120cc9061470c565b60405180910390fd5b60cb600060cd60008581526020019081526020016000206001015481526020019081526020016000206003015460cb600060cd600086815260200190815260200160002060010154815260200190815260200160002060010160009054906101000a900473ffffffffffffffffffffffffffffffffffffffff1673ffffffffffffffffffffffffffffffffffffffff1663dd62ed3e60cd600086815260200190815260200160002060020160009054906101000a900473ffffffffffffffffffffffffffffffffffffffff16306040518363ffffffff1660e01b81526004016121bf92919061472c565b60206040518083038186803b1580156121d757600080fd5b505afa1580156121eb573d6000803e3d6000fd5b505050506040513d601f19601f8201168201806040525081019061220f919061476a565b1161224f576040517f08c379a00000000000000000000000000000000000000000000000000000000081526004016122469061508d565b60405180910390fd5b60cb600060cd60008581526020019081526020016000206001015481526020019081526020016000206003015460cb600060cd600086815260200190815260200160002060010154815260200190815260200160002060010160009054906101000a900473ffffffffffffffffffffffffffffffffffffffff1673ffffffffffffffffffffffffffffffffffffffff166370a0823160cd600086815260200190815260200160002060020160009054906101000a900473ffffffffffffffffffffffffffffffffffffffff166040518263ffffffff1660e01b8152600401612337919061409b565b60206040518083038186803b15801561234f57600080fd5b505afa158015612363573d6000803e3d6000fd5b505050506040513d601f19601f82011682018060405250810190612387919061476a565b116123c7576040517f08c379a00000000000000000000000000000000000000000000000000000000081526004016123be906150f9565b60405180910390fd5b60cb600060cd60008581526020019081526020016000206001015481526020019081526020016000206003015460cb600060cd600086815260200190815260200160002060010154815260200190815260200160002060010160009054906101000a900473ffffffffffffffffffffffffffffffffffffffff1673ffffffffffffffffffffffffffffffffffffffff1663dd62ed3e60cd600086815260200190815260200160002060020160009054906101000a900473ffffffffffffffffffffffffffffffffffffffff16306040518363ffffffff1660e01b81526004016124b192919061472c565b60206040518083038186803b1580156124c957600080fd5b505afa1580156124dd573d6000803e3d6000fd5b505050506040513d601f19601f82011682018060405250810190612501919061476a565b118015612643575060cb600060cd60008581526020019081526020016000206001015481526020019081526020016000206003015460cb600060cd600086815260200190815260200160002060010154815260200190815260200160002060010160009054906101000a900473ffffffffffffffffffffffffffffffffffffffff1673ffffffffffffffffffffffffffffffffffffffff166370a0823160cd600086815260200190815260200160002060020160009054906101000a900473ffffffffffffffffffffffffffffffffffffffff166040518263ffffffff1660e01b81526004016125f1919061409b565b60206040518083038186803b15801561260957600080fd5b505afa15801561261d573d6000803e3d6000fd5b505050506040513d601f19601f82011682018060405250810190612641919061476a565b115b9050919050565b60606000805b60c954811161276c5783156126de573373ffffffffffffffffffffffffffffffffffffffff1660cb600083815260200190815260200160002060000160009054906101000a900473ffffffffffffffffffffffffffffffffffffffff1673ffffffffffffffffffffffffffffffffffffffff1614156126d9576001826126d691906148ea565b91505b612759565b600073ffffffffffffffffffffffffffffffffffffffff1660cb600083815260200190815260200160002060000160009054906101000a900473ffffffffffffffffffffffffffffffffffffffff1673ffffffffffffffffffffffffffffffffffffffff16146127585760018261275591906148ea565b91505b5b808061276490614940565b915050612650565b5060008167ffffffffffffffff81111561278957612788613ca4565b5b6040519080825280602002602001820160405280156127c257816020015b6127af613a79565b8152602001906001900390816127a75790505b5090506000805b60c954811015612bb757600073ffffffffffffffffffffffffffffffffffffffff1660cb600083815260200190815260200160002060000160009054906101000a900473ffffffffffffffffffffffffffffffffffffffff1673ffffffffffffffffffffffffffffffffffffffff1614612ba4578515806128b457508580156128b357503373ffffffffffffffffffffffffffffffffffffffff1660cb600083815260200190815260200160002060000160009054906101000a900473ffffffffffffffffffffffffffffffffffffffff1673ffffffffffffffffffffffffffffffffffffffff16145b5b15612ba35760cb6000828152602001908152602001600020604051806101200160405290816000820160009054906101000a900473ffffffffffffffffffffffffffffffffffffffff1673ffffffffffffffffffffffffffffffffffffffff1673ffffffffffffffffffffffffffffffffffffffff1681526020016001820160009054906101000a900473ffffffffffffffffffffffffffffffffffffffff1673ffffffffffffffffffffffffffffffffffffffff1673ffffffffffffffffffffffffffffffffffffffff1681526020016002820154815260200160038201548152602001600482015481526020016005820160009054906101000a900460ff1660ff1660ff1681526020016006820180546129cf90614a4a565b80601f01602080910402602001604051908101604052809291908181526020018280546129fb90614a4a565b8015612a485780601f10612a1d57610100808354040283529160200191612a48565b820191906000526020600020905b815481529060010190602001808311612a2b57829003601f168201915b50505050508152602001600782018054612a6190614a4a565b80601f0160208091040260200160405190810160405280929190818152602001828054612a8d90614a4a565b8015612ada5780601f10612aaf57610100808354040283529160200191612ada565b820191906000526020600020905b815481529060010190602001808311612abd57829003601f168201915b50505050508152602001600882018054612af390614a4a565b80601f0160208091040260200160405190810160405280929190818152602001828054612b1f90614a4a565b8015612b6c5780601f10612b4157610100808354040283529160200191612b6c565b820191906000526020600020905b815481529060010190602001808311612b4f57829003601f168201915b505050505081525050838381518110612b8857612b87615119565b5b6020026020010181905250600182612ba091906148ea565b91505b5b8080612baf90614940565b9150506127c9565b50819350505050919050565b60ca5481565b60008060019054906101000a900460ff16159050808015612bfa5750600160008054906101000a900460ff1660ff16105b80612c275750612c0930613499565b158015612c265750600160008054906101000a900460ff1660ff16145b5b612c66576040517f08c379a0000000000000000000000000000000000000000000000000000000008152600401612c5d90614aee565b60405180910390fd5b60016000806101000a81548160ff021916908360ff1602179055508015612ca3576001600060016101000a81548160ff0219169083151502179055505b612cab610fb9565b8015612d045760008060016101000a81548160ff0219169083151502179055507f7f26b83ff96e1f2b6a682f133852f6798a09c465da95921460cefb38474024986001604051612cfb9190614b53565b60405180910390a15b50565b612d0f613355565b600073ffffffffffffffffffffffffffffffffffffffff168173ffffffffffffffffffffffffffffffffffffffff161415612d7f576040517f08c379a0000000000000000000000000000000000000000000000000000000008152600401612d76906151ba565b60405180910390fd5b612d88816133d3565b50565b60606000805b60ca548111612ead578315612e1f573373ffffffffffffffffffffffffffffffffffffffff1660cd600083815260200190815260200160002060020160009054906101000a900473ffffffffffffffffffffffffffffffffffffffff1673ffffffffffffffffffffffffffffffffffffffff161415612e1a57600182612e1791906148ea565b91505b612e9a565b600073ffffffffffffffffffffffffffffffffffffffff1660cd600083815260200190815260200160002060020160009054906101000a900473ffffffffffffffffffffffffffffffffffffffff1673ffffffffffffffffffffffffffffffffffffffff1614612e9957600182612e9691906148ea565b91505b5b8080612ea590614940565b915050612d91565b5060008167ffffffffffffffff811115612eca57612ec9613ca4565b5b604051908082528060200260200182016040528015612f0357816020015b612ef0613af4565b815260200190600190039081612ee85790505b5090506000805b60ca5481101561316a57600073ffffffffffffffffffffffffffffffffffffffff1660cd600083815260200190815260200160002060020160009054906101000a900473ffffffffffffffffffffffffffffffffffffffff1673ffffffffffffffffffffffffffffffffffffffff161461315757851580612ff55750858015612ff457503373ffffffffffffffffffffffffffffffffffffffff1660cd600083815260200190815260200160002060020160009054906101000a900473ffffffffffffffffffffffffffffffffffffffff1673ffffffffffffffffffffffffffffffffffffffff16145b5b156131565760cd60008281526020019081526020016000206040518060c001604052908160008201548152602001600182015481526020016002820160009054906101000a900473ffffffffffffffffffffffffffffffffffffffff1673ffffffffffffffffffffffffffffffffffffffff1673ffffffffffffffffffffffffffffffffffffffff16815260200160038201805461309290614a4a565b80601f01602080910402602001604051908101604052809291908181526020018280546130be90614a4a565b801561310b5780601f106130e05761010080835404028352916020019161310b565b820191906000526020600020905b8154815290600101906020018083116130ee57829003601f168201915b505050505081526020016004820154815260200160058201548152505083838151811061313b5761313a615119565b5b602002602001018190525060018261315391906148ea565b91505b5b808061316290614940565b915050612f0a565b50819350505050919050565b60006131a47f360894a13ba1a3210667c828492db98dca3e2076cc3735a920a3ca505d382bbc60001b613602565b60000160009054906101000a900473ffffffffffffffffffffffffffffffffffffffff16905090565b6131d5613355565b50565b6132047f4910fdfa16fed3260ed0e7147f7cc6da11a60208b5b9406d12a635614ffd914360001b61360c565b60000160009054906101000a900460ff16156132285761322383613616565b613350565b8273ffffffffffffffffffffffffffffffffffffffff166352d1902d6040518163ffffffff1660e01b815260040160206040518083038186803b15801561326e57600080fd5b505afa92505050801561329f57506040513d601f19601f8201168201806040525081019061329c9190615206565b60015b6132de576040517f08c379a00000000000000000000000000000000000000000000000000000000081526004016132d5906152a5565b60405180910390fd5b7f360894a13ba1a3210667c828492db98dca3e2076cc3735a920a3ca505d382bbc60001b8114613343576040517f08c379a000000000000000000000000000000000000000000000000000000000815260040161333a90615337565b60405180910390fd5b5061334f8383836136cf565b5b505050565b61335d6136fb565b73ffffffffffffffffffffffffffffffffffffffff1661337b6115bd565b73ffffffffffffffffffffffffffffffffffffffff16146133d1576040517f08c379a00000000000000000000000000000000000000000000000000000000081526004016133c8906153a3565b60405180910390fd5b565b6000603360009054906101000a900473ffffffffffffffffffffffffffffffffffffffff16905081603360006101000a81548173ffffffffffffffffffffffffffffffffffffffff021916908373ffffffffffffffffffffffffffffffffffffffff1602179055508173ffffffffffffffffffffffffffffffffffffffff168173ffffffffffffffffffffffffffffffffffffffff167f8be0079c531659141344cd1fd0a4f28419497f9722a3daafe3b4186f6b6457e060405160405180910390a35050565b6000808273ffffffffffffffffffffffffffffffffffffffff163b119050919050565b60008060019054906101000a900460ff161590508080156134ed5750600160008054906101000a900460ff1660ff16105b8061351a57506134fc30613499565b1580156135195750600160008054906101000a900460ff1660ff16145b5b613559576040517f08c379a000000000000000000000000000000000000000000000000000000000815260040161355090614aee565b60405180910390fd5b60016000806101000a81548160ff021916908360ff1602179055508015613596576001600060016101000a81548160ff0219169083151502179055505b61359e613703565b6135a661375c565b80156135ff5760008060016101000a81548160ff0219169083151502179055507f7f26b83ff96e1f2b6a682f133852f6798a09c465da95921460cefb384740249860016040516135f69190614b53565b60405180910390a15b50565b6000819050919050565b6000819050919050565b61361f81613499565b61365e576040517f08c379a000000000000000000000000000000000000000000000000000000000815260040161365590615435565b60405180910390fd5b8061368b7f360894a13ba1a3210667c828492db98dca3e2076cc3735a920a3ca505d382bbc60001b613602565b60000160006101000a81548173ffffffffffffffffffffffffffffffffffffffff021916908373ffffffffffffffffffffffffffffffffffffffff16021790555050565b6136d8836137ad565b6000825111806136e55750805b156136f6576136f483836137fc565b505b505050565b600033905090565b600060019054906101000a900460ff16613752576040517f08c379a0000000000000000000000000000000000000000000000000000000008152600401613749906154c7565b60405180910390fd5b61375a6138e0565b565b600060019054906101000a900460ff166137ab576040517f08c379a00000000000000000000000000000000000000000000000000000000081526004016137a2906154c7565b60405180910390fd5b565b6137b681613616565b8073ffffffffffffffffffffffffffffffffffffffff167fbc7cd75a20ee27fd9adebab32041f755214dbc6bffa90cc0225b39da2e5c2d3b60405160405180910390a250565b606061380783613499565b613846576040517f08c379a000000000000000000000000000000000000000000000000000000000815260040161383d90615559565b60405180910390fd5b6000808473ffffffffffffffffffffffffffffffffffffffff168460405161386e91906155c0565b600060405180830381855af49150503d80600081146138a9576040519150601f19603f3d011682016040523d82523d6000602084013e6138ae565b606091505b50915091506138d682826040518060600160405280602781526020016155fa60279139613941565b9250505092915050565b600060019054906101000a900460ff1661392f576040517f08c379a0000000000000000000000000000000000000000000000000000000008152600401613926906154c7565b60405180910390fd5b61393f61393a6136fb565b6133d3565b565b606083156139515782905061395c565b61395b8383613963565b5b9392505050565b6000825111156139765781518083602001fd5b806040517f08c379a00000000000000000000000000000000000000000000000000000000081526004016139aa91906155d7565b60405180910390fd5b5080546139bf90614a4a565b6000825580601f106139d157506139f0565b601f0160209004906000526020600020908101906139ef9190613b40565b5b50565b8280546139ff90614a4a565b90600052602060002090601f016020900481019282613a215760008555613a68565b82601f10613a3a57805160ff1916838001178555613a68565b82800160010185558215613a68579182015b82811115613a67578251825591602001919060010190613a4c565b5b509050613a759190613b40565b5090565b604051806101200160405280600073ffffffffffffffffffffffffffffffffffffffff168152602001600073ffffffffffffffffffffffffffffffffffffffff168152602001600081526020016000815260200160008152602001600060ff1681526020016060815260200160608152602001606081525090565b6040518060c001604052806000815260200160008152602001600073ffffffffffffffffffffffffffffffffffffffff1681526020016060815260200160008152602001600081525090565b5b80821115613b59576000816000905550600101613b41565b5090565b6000604051905090565b600080fd5b600080fd5b6000819050919050565b613b8481613b71565b8114613b8f57600080fd5b50565b600081359050613ba181613b7b565b92915050565b600060208284031215613bbd57613bbc613b67565b5b6000613bcb84828501613b92565b91505092915050565b613bdd81613b71565b82525050565b6000602082019050613bf86000830184613bd4565b92915050565b600073ffffffffffffffffffffffffffffffffffffffff82169050919050565b6000613c2982613bfe565b9050919050565b613c3981613c1e565b8114613c4457600080fd5b50565b600081359050613c5681613c30565b92915050565b600060208284031215613c7257613c71613b67565b5b6000613c8084828501613c47565b91505092915050565b600080fd5b600080fd5b6000601f19601f8301169050919050565b7f4e487b7100000000000000000000000000000000000000000000000000000000600052604160045260246000fd5b613cdc82613c93565b810181811067ffffffffffffffff82111715613cfb57613cfa613ca4565b5b80604052505050565b6000613d0e613b5d565b9050613d1a8282613cd3565b919050565b600067ffffffffffffffff821115613d3a57613d39613ca4565b5b613d4382613c93565b9050602081019050919050565b82818337600083830152505050565b6000613d72613d6d84613d1f565b613d04565b905082815260208101848484011115613d8e57613d8d613c8e565b5b613d99848285613d50565b509392505050565b600082601f830112613db657613db5613c89565b5b8135613dc6848260208601613d5f565b91505092915050565b60008060408385031215613de657613de5613b67565b5b6000613df485828601613c47565b925050602083013567ffffffffffffffff811115613e1557613e14613b6c565b5b613e2185828601613da1565b9150509250929050565b6000819050919050565b613e3e81613e2b565b82525050565b6000602082019050613e596000830184613e35565b92915050565b60008060408385031215613e7657613e75613b67565b5b6000613e8485828601613c47565b9250506020613e9585828601613b92565b9150509250929050565b613ea881613c1e565b82525050565b600081519050919050565b600082825260208201905092915050565b60005b83811015613ee8578082015181840152602081019050613ecd565b83811115613ef7576000848401525b50505050565b6000613f0882613eae565b613f128185613eb9565b9350613f22818560208601613eca565b613f2b81613c93565b840191505092915050565b600060c082019050613f4b6000830189613bd4565b613f586020830188613bd4565b613f656040830187613e9f565b8181036060830152613f778186613efd565b9050613f866080830185613bd4565b613f9360a0830184613bd4565b979650505050505050565b600067ffffffffffffffff821115613fb957613fb8613ca4565b5b613fc282613c93565b9050602081019050919050565b6000613fe2613fdd84613f9e565b613d04565b905082815260208101848484011115613ffe57613ffd613c8e565b5b614009848285613d50565b509392505050565b600082601f83011261402657614025613c89565b5b8135614036848260208601613fcf565b91505092915050565b6000806040838503121561405657614055613b67565b5b600061406485828601613b92565b925050602083013567ffffffffffffffff81111561408557614084613b6c565b5b61409185828601614011565b9150509250929050565b60006020820190506140b06000830184613e9f565b92915050565b60008115159050919050565b6140cb816140b6565b82525050565b60006020820190506140e660008301846140c2565b92915050565b600060ff82169050919050565b614102816140ec565b82525050565b60006101208201905061411e600083018c613e9f565b61412b602083018b613e9f565b614138604083018a613bd4565b6141456060830189613bd4565b6141526080830188613bd4565b61415f60a08301876140f9565b81810360c08301526141718186613efd565b905081810360e08301526141858185613efd565b905081810361010083015261419a8184613efd565b90509a9950505050505050505050565b6141b3816140ec565b81146141be57600080fd5b50565b6000813590506141d0816141aa565b92915050565b600080600080600080600060e0888a0312156141f5576141f4613b67565b5b60006142038a828b01613c47565b97505060206142148a828b01613b92565b96505060406142258a828b01613b92565b95505060606142368a828b016141c1565b945050608088013567ffffffffffffffff81111561425757614256613b6c565b5b6142638a828b01614011565b93505060a088013567ffffffffffffffff81111561428457614283613b6c565b5b6142908a828b01614011565b92505060c088013567ffffffffffffffff8111156142b1576142b0613b6c565b5b6142bd8a828b01614011565b91505092959891949750929550565b6142d5816140b6565b81146142e057600080fd5b50565b6000813590506142f2816142cc565b92915050565b60006020828403121561430e5761430d613b67565b5b600061431c848285016142e3565b91505092915050565b600081519050919050565b600082825260208201905092915050565b6000819050602082019050919050565b61435a81613c1e565b82525050565b61436981613b71565b82525050565b614378816140ec565b82525050565b600082825260208201905092915050565b600061439a82613eae565b6143a4818561437e565b93506143b4818560208601613eca565b6143bd81613c93565b840191505092915050565b6000610120830160008301516143e16000860182614351565b5060208301516143f46020860182614351565b5060408301516144076040860182614360565b50606083015161441a6060860182614360565b50608083015161442d6080860182614360565b5060a083015161444060a086018261436f565b5060c083015184820360c0860152614458828261438f565b91505060e083015184820360e0860152614472828261438f565b91505061010083015184820361010086015261448e828261438f565b9150508091505092915050565b60006144a783836143c8565b905092915050565b6000602082019050919050565b60006144c782614325565b6144d18185614330565b9350836020820285016144e385614341565b8060005b8581101561451f5784840389528151614500858261449b565b945061450b836144af565b925060208a019950506001810190506144e7565b50829750879550505050505092915050565b6000602082019050818103600083015261454b81846144bc565b905092915050565b600081519050919050565b600082825260208201905092915050565b6000819050602082019050919050565b600060c0830160008301516145976000860182614360565b5060208301516145aa6020860182614360565b5060408301516145bd6040860182614351565b50606083015184820360608601526145d5828261438f565b91505060808301516145ea6080860182614360565b5060a08301516145fd60a0860182614360565b508091505092915050565b6000614614838361457f565b905092915050565b6000602082019050919050565b600061463482614553565b61463e818561455e565b9350836020820285016146508561456f565b8060005b8581101561468c578484038952815161466d8582614608565b94506146788361461c565b925060208a01995050600181019050614654565b50829750879550505050505092915050565b600060208201905081810360008301526146b88184614629565b905092915050565b7f4e45000000000000000000000000000000000000000000000000000000000000600082015250565b60006146f6600283613eb9565b9150614701826146c0565b602082019050919050565b60006020820190508181036000830152614725816146e9565b9050919050565b60006040820190506147416000830185613e9f565b61474e6020830184613e9f565b9392505050565b60008151905061476481613b7b565b92915050565b6000602082840312156147805761477f613b67565b5b600061478e84828501614755565b91505092915050565b7f46756e6374696f6e206d7573742062652063616c6c6564207468726f7567682060008201527f64656c656761746563616c6c0000000000000000000000000000000000000000602082015250565b60006147f3602c83613eb9565b91506147fe82614797565b604082019050919050565b60006020820190508181036000830152614822816147e6565b9050919050565b7f46756e6374696f6e206d7573742062652063616c6c6564207468726f7567682060008201527f6163746976652070726f78790000000000000000000000000000000000000000602082015250565b6000614885602c83613eb9565b915061489082614829565b604082019050919050565b600060208201905081810360008301526148b481614878565b9050919050565b7f4e487b7100000000000000000000000000000000000000000000000000000000600052601160045260246000fd5b60006148f582613b71565b915061490083613b71565b9250827fffffffffffffffffffffffffffffffffffffffffffffffffffffffffffffffff03821115614935576149346148bb565b5b828201905092915050565b600061494b82613b71565b91507fffffffffffffffffffffffffffffffffffffffffffffffffffffffffffffffff82141561497e5761497d6148bb565b5b600182019050919050565b7f555550535570677261646561626c653a206d757374206e6f742062652063616c60008201527f6c6564207468726f7567682064656c656761746563616c6c0000000000000000602082015250565b60006149e5603883613eb9565b91506149f082614989565b604082019050919050565b60006020820190508181036000830152614a14816149d8565b9050919050565b7f4e487b7100000000000000000000000000000000000000000000000000000000600052602260045260246000fd5b60006002820490506001821680614a6257607f821691505b60208210811415614a7657614a75614a1b565b5b50919050565b7f496e697469616c697a61626c653a20636f6e747261637420697320616c72656160008201527f647920696e697469616c697a6564000000000000000000000000000000000000602082015250565b6000614ad8602e83613eb9565b9150614ae382614a7c565b604082019050919050565b60006020820190508181036000830152614b0781614acb565b9050919050565b6000819050919050565b6000819050919050565b6000614b3d614b38614b3384614b0e565b614b18565b6140ec565b9050919050565b614b4d81614b22565b82525050565b6000602082019050614b686000830184614b44565b92915050565b7f4e41000000000000000000000000000000000000000000000000000000000000600082015250565b6000614ba4600283613eb9565b9150614baf82614b6e565b602082019050919050565b60006020820190508181036000830152614bd381614b97565b9050919050565b6000606082019050614bef6000830186613e9f565b614bfc6020830185613e9f565b614c096040830184613bd4565b949350505050565b600081519050614c20816142cc565b92915050565b600060208284031215614c3c57614c3b613b67565b5b6000614c4a84828501614c11565b91505092915050565b60008160001c9050919050565b600073ffffffffffffffffffffffffffffffffffffffff82169050919050565b6000614c93614c8e83614c53565b614c60565b9050919050565b6000819050919050565b6000614cb7614cb283614c53565b614c9a565b9050919050565b600060ff82169050919050565b6000614cde614cd983614c53565b614cbe565b9050919050565b60008190508160005260206000209050919050565b60008154614d0781614a4a565b614d11818661437e565b94506001821660008114614d2c5760018114614d3e57614d71565b60ff1983168652602086019350614d71565b614d4785614ce5565b60005b83811015614d6957815481890152600182019150602081019050614d4a565b808801955050505b50505092915050565b600061012083016000808401549050614d9281614c80565b614d9f6000870182614351565b5060018401549050614db081614c80565b614dbd6020870182614351565b5060028401549050614dce81614ca4565b614ddb6040870182614360565b5060038401549050614dec81614ca4565b614df96060870182614360565b5060048401549050614e0a81614ca4565b614e176080870182614360565b5060058401549050614e2881614ccb565b614e3560a087018261436f565b506006840185830360c0870152614e4c8382614cfa565b9250506007840185830360e0870152614e658382614cfa565b92505060088401858303610100870152614e7f8382614cfa565b925050819250505092915050565b600060c083016000830151614ea56000860182614360565b506020830151614eb86020860182614360565b506040830151614ecb6040860182614351565b5060608301518482036060860152614ee3828261438f565b9150506080830151614ef86080860182614360565b5060a0830151614f0b60a0860182614360565b508091505092915050565b6000608082019050614f2b6000830187613e9f565b8181036020830152614f3d8186614d7a565b90508181036040830152614f518185614e8d565b9050614f606060830184613bd4565b95945050505050565b7f4754300000000000000000000000000000000000000000000000000000000000600082015250565b6000614f9f600383613eb9565b9150614faa82614f69565b602082019050919050565b60006020820190508181036000830152614fce81614f92565b9050919050565b7f4e4f545f44554500000000000000000000000000000000000000000000000000600082015250565b600061500b600783613eb9565b915061501682614fd5565b602082019050919050565b6000602082019050818103600083015261503a81614ffe565b9050919050565b7f414d4f554e545f4e4f545f414c4c4f5745440000000000000000000000000000600082015250565b6000615077601283613eb9565b915061508282615041565b602082019050919050565b600060208201905081810360008301526150a68161506a565b9050919050565b7f414d4f554e545f4e494e5f42414c414e43450000000000000000000000000000600082015250565b60006150e3601283613eb9565b91506150ee826150ad565b602082019050919050565b60006020820190508181036000830152615112816150d6565b9050919050565b7f4e487b7100000000000000000000000000000000000000000000000000000000600052603260045260246000fd5b7f4f776e61626c653a206e6577206f776e657220697320746865207a65726f206160008201527f6464726573730000000000000000000000000000000000000000000000000000602082015250565b60006151a4602683613eb9565b91506151af82615148565b604082019050919050565b600060208201905081810360008301526151d381615197565b9050919050565b6151e381613e2b565b81146151ee57600080fd5b50565b600081519050615200816151da565b92915050565b60006020828403121561521c5761521b613b67565b5b600061522a848285016151f1565b91505092915050565b7f45524331393637557067726164653a206e657720696d706c656d656e7461746960008201527f6f6e206973206e6f742055555053000000000000000000000000000000000000602082015250565b600061528f602e83613eb9565b915061529a82615233565b604082019050919050565b600060208201905081810360008301526152be81615282565b9050919050565b7f45524331393637557067726164653a20756e737570706f727465642070726f7860008201527f6961626c65555549440000000000000000000000000000000000000000000000602082015250565b6000615321602983613eb9565b915061532c826152c5565b604082019050919050565b6000602082019050818103600083015261535081615314565b9050919050565b7f4f776e61626c653a2063616c6c6572206973206e6f7420746865206f776e6572600082015250565b600061538d602083613eb9565b915061539882615357565b602082019050919050565b600060208201905081810360008301526153bc81615380565b9050919050565b7f455243313936373a206e657720696d706c656d656e746174696f6e206973206e60008201527f6f74206120636f6e747261637400000000000000000000000000000000000000602082015250565b600061541f602d83613eb9565b915061542a826153c3565b604082019050919050565b6000602082019050818103600083015261544e81615412565b9050919050565b7f496e697469616c697a61626c653a20636f6e7472616374206973206e6f74206960008201527f6e697469616c697a696e67000000000000000000000000000000000000000000602082015250565b60006154b1602b83613eb9565b91506154bc82615455565b604082019050919050565b600060208201905081810360008301526154e0816154a4565b9050919050565b7f416464726573733a2064656c65676174652063616c6c20746f206e6f6e2d636f60008201527f6e74726163740000000000000000000000000000000000000000000000000000602082015250565b6000615543602683613eb9565b915061554e826154e7565b604082019050919050565b6000602082019050818103600083015261557281615536565b9050919050565b600081519050919050565b600081905092915050565b600061559a82615579565b6155a48185615584565b93506155b4818560208601613eca565b80840191505092915050565b60006155cc828461558f565b915081905092915050565b600060208201905081810360008301526155f18184613efd565b90509291505056fe416464726573733a206c6f772d6c6576656c2064656c65676174652063616c6c206661696c6564a264697066735822122091d17c2681d70cdf6286b83dd8f3a51bc2229bed57c39d37f5acc8869498701c64736f6c63430008090033",
  "linkReferences": {},
  "deployedLinkReferences": {}
}