{
  "_format": "hh-sol-artifact-1",
  "contractName": "PaymentV2",
  "sourceName": "contracts/PaymentVersions.sol",
  "abi": [
    {
      "anonymous": false,
      "inputs": [
        {
          "indexed": false,
          "internalType": "address",
          "name": "previousAdmin",
          "type": "address"
        },
        {
          "indexed": false,
          "internalType": "address",
          "name": "newAdmin",
          "type": "address"
        }
      ],
      "name": "AdminChanged",
      "type": "event"
    },
    {
      "anonymous": false,
      "inputs": [
        {
          "indexed": true,
          "internalType": "address",
          "name": "beacon",
          "type": "address"
        }
      ],
      "name": "BeaconUpgraded",
      "type": "event"
    },
    {
      "anonymous": false,
      "inputs": [
        {
          "indexed": false,
          "internalType": "uint8",
          "name": "version",
          "type": "uint8"
        }
      ],
      "name": "Initialized",
      "type": "event"
    },
    {
      "anonymous": false,
      "inputs": [
        {
          "indexed": true,
          "internalType": "address",
          "name": "previousOwner",
          "type": "address"
        },
        {
          "indexed": true,
          "internalType": "address",
          "name": "newOwner",
          "type": "address"
        }
      ],
      "name": "OwnershipTransferred",
      "type": "event"
    },
    {
      "anonymous": false,
      "inputs": [
        {
          "indexed": false,
          "internalType": "address",
          "name": "subscriber",
          "type": "address"
        },
        {
          "components": [
            {
              "internalType": "address",
              "name": "merchant",
              "type": "address"
            },
            {
              "internalType": "address",
              "name": "token",
              "type": "address"
            },
            {
              "internalType": "uint256",
              "name": "planId",
              "type": "uint256"
            },
            {
              "internalType": "uint256",
              "name": "amount",
              "type": "uint256"
            },
            {
              "internalType": "uint256",
              "name": "frequency",
              "type": "uint256"
            },
            {
              "internalType": "uint8",
              "name": "planType",
              "type": "uint8"
            },
            {
              "internalType": "string",
              "name": "planTypeInfos",
              "type": "string"
            },
            {
              "internalType": "string",
              "name": "planName",
              "type": "string"
            },
            {
              "internalType": "string",
              "name": "merchantName",
              "type": "string"
            },
            {
              "internalType": "string",
              "name": "tokenName",
              "type": "string"
            }
          ],
          "indexed": false,
          "internalType": "struct PaymentV0.Plan",
          "name": "plan",
          "type": "tuple"
        },
        {
          "components": [
            {
              "internalType": "uint256",
              "name": "subscriptionId",
              "type": "uint256"
            },
            {
              "components": [
                {
                  "internalType": "address",
                  "name": "merchant",
                  "type": "address"
                },
                {
                  "internalType": "address",
                  "name": "token",
                  "type": "address"
                },
                {
                  "internalType": "uint256",
                  "name": "planId",
                  "type": "uint256"
                },
                {
                  "internalType": "uint256",
                  "name": "amount",
                  "type": "uint256"
                },
                {
                  "internalType": "uint256",
                  "name": "frequency",
                  "type": "uint256"
                },
                {
                  "internalType": "uint8",
                  "name": "planType",
                  "type": "uint8"
                },
                {
                  "internalType": "string",
                  "name": "planTypeInfos",
                  "type": "string"
                },
                {
                  "internalType": "string",
                  "name": "planName",
                  "type": "string"
                },
                {
                  "internalType": "string",
                  "name": "merchantName",
                  "type": "string"
                },
                {
                  "internalType": "string",
                  "name": "tokenName",
                  "type": "string"
                }
              ],
              "internalType": "struct PaymentV0.Plan",
              "name": "plan",
              "type": "tuple"
            },
            {
              "internalType": "address",
              "name": "subscriber",
              "type": "address"
            },
            {
              "internalType": "string",
              "name": "subscriberInfos",
              "type": "string"
            },
            {
              "internalType": "uint256",
              "name": "start",
              "type": "uint256"
            },
            {
              "internalType": "uint256",
              "name": "nextPayment",
              "type": "uint256"
            }
          ],
          "indexed": false,
          "internalType": "struct PaymentV0.Subscription",
          "name": "subscription",
          "type": "tuple"
        },
        {
          "indexed": false,
          "internalType": "uint256",
          "name": "date",
          "type": "uint256"
        }
      ],
      "name": "SubscriptionCreated",
      "type": "event"
    },
    {
      "anonymous": false,
      "inputs": [
        {
          "indexed": true,
          "internalType": "address",
          "name": "implementation",
          "type": "address"
        }
      ],
      "name": "Upgraded",
      "type": "event"
    },
    {
      "inputs": [
        {
          "internalType": "uint256",
          "name": "planId",
          "type": "uint256"
        }
      ],
      "name": "allowance",
      "outputs": [
        {
          "internalType": "uint256",
          "name": "success",
          "type": "uint256"
        }
      ],
      "stateMutability": "view",
      "type": "function"
    },
    {
      "inputs": [
        {
          "internalType": "uint256",
          "name": "subscriptionId",
          "type": "uint256"
        }
      ],
      "name": "cancel",
      "outputs": [],
      "stateMutability": "nonpayable",
      "type": "function"
    },
    {
      "inputs": [
        {
          "internalType": "address",
          "name": "token",
          "type": "address"
        },
        {
          "internalType": "uint256",
          "name": "amount",
          "type": "uint256"
        },
        {
          "internalType": "uint256",
          "name": "frequency",
          "type": "uint256"
        },
        {
          "internalType": "uint8",
          "name": "planType",
          "type": "uint8"
        },
        {
          "internalType": "string",
          "name": "planTypeInfos",
          "type": "string"
        },
        {
          "internalType": "string",
          "name": "tokenName",
          "type": "string"
        },
        {
          "internalType": "string",
          "name": "planName",
          "type": "string"
        },
        {
          "internalType": "string",
          "name": "merchantName",
          "type": "string"
        }
      ],
      "name": "createPlan",
      "outputs": [],
      "stateMutability": "nonpayable",
      "type": "function"
    },
    {
      "inputs": [],
      "name": "getAllSubscriptions",
      "outputs": [
        {
          "components": [
            {
              "internalType": "uint256",
              "name": "subscriptionId",
              "type": "uint256"
            },
            {
              "components": [
                {
                  "internalType": "address",
                  "name": "merchant",
                  "type": "address"
                },
                {
                  "internalType": "address",
                  "name": "token",
                  "type": "address"
                },
                {
                  "internalType": "uint256",
                  "name": "planId",
                  "type": "uint256"
                },
                {
                  "internalType": "uint256",
                  "name": "amount",
                  "type": "uint256"
                },
                {
                  "internalType": "uint256",
                  "name": "frequency",
                  "type": "uint256"
                },
                {
                  "internalType": "uint8",
                  "name": "planType",
                  "type": "uint8"
                },
                {
                  "internalType": "string",
                  "name": "planTypeInfos",
                  "type": "string"
                },
                {
                  "internalType": "string",
                  "name": "planName",
                  "type": "string"
                },
                {
                  "internalType": "string",
                  "name": "merchantName",
                  "type": "string"
                },
                {
                  "internalType": "string",
                  "name": "tokenName",
                  "type": "string"
                }
              ],
              "internalType": "struct PaymentV0.Plan",
              "name": "plan",
              "type": "tuple"
            },
            {
              "internalType": "address",
              "name": "subscriber",
              "type": "address"
            },
            {
              "internalType": "string",
              "name": "subscriberInfos",
              "type": "string"
            },
            {
              "internalType": "uint256",
              "name": "start",
              "type": "uint256"
            },
            {
              "internalType": "uint256",
              "name": "nextPayment",
              "type": "uint256"
            }
          ],
          "internalType": "struct PaymentV0.Subscription[]",
          "name": "",
          "type": "tuple[]"
        }
      ],
      "stateMutability": "view",
      "type": "function"
    },
    {
      "inputs": [],
      "name": "getContractVersion",
      "outputs": [
        {
          "internalType": "uint256",
          "name": "",
          "type": "uint256"
        }
      ],
      "stateMutability": "pure",
      "type": "function"
    },
    {
      "inputs": [
        {
          "internalType": "bool",
          "name": "onlyMine",
          "type": "bool"
        }
      ],
      "name": "getPlans",
      "outputs": [
        {
          "components": [
            {
              "internalType": "address",
              "name": "merchant",
              "type": "address"
            },
            {
              "internalType": "address",
              "name": "token",
              "type": "address"
            },
            {
              "internalType": "uint256",
              "name": "planId",
              "type": "uint256"
            },
            {
              "internalType": "uint256",
              "name": "amount",
              "type": "uint256"
            },
            {
              "internalType": "uint256",
              "name": "frequency",
              "type": "uint256"
            },
            {
              "internalType": "uint8",
              "name": "planType",
              "type": "uint8"
            },
            {
              "internalType": "string",
              "name": "planTypeInfos",
              "type": "string"
            },
            {
              "internalType": "string",
              "name": "planName",
              "type": "string"
            },
            {
              "internalType": "string",
              "name": "merchantName",
              "type": "string"
            },
            {
              "internalType": "string",
              "name": "tokenName",
              "type": "string"
            }
          ],
          "internalType": "struct PaymentV0.Plan[]",
          "name": "",
          "type": "tuple[]"
        }
      ],
      "stateMutability": "view",
      "type": "function"
    },
    {
      "inputs": [],
      "name": "getSubscriptions",
      "outputs": [
        {
          "components": [
            {
              "internalType": "uint256",
              "name": "subscriptionId",
              "type": "uint256"
            },
            {
              "components": [
                {
                  "internalType": "address",
                  "name": "merchant",
                  "type": "address"
                },
                {
                  "internalType": "address",
                  "name": "token",
                  "type": "address"
                },
                {
                  "internalType": "uint256",
                  "name": "planId",
                  "type": "uint256"
                },
                {
                  "internalType": "uint256",
                  "name": "amount",
                  "type": "uint256"
                },
                {
                  "internalType": "uint256",
                  "name": "frequency",
                  "type": "uint256"
                },
                {
                  "internalType": "uint8",
                  "name": "planType",
                  "type": "uint8"
                },
                {
                  "internalType": "string",
                  "name": "planTypeInfos",
                  "type": "string"
                },
                {
                  "internalType": "string",
                  "name": "planName",
                  "type": "string"
                },
                {
                  "internalType": "string",
                  "name": "merchantName",
                  "type": "string"
                },
                {
                  "internalType": "string",
                  "name": "tokenName",
                  "type": "string"
                }
              ],
              "internalType": "struct PaymentV0.Plan",
              "name": "plan",
              "type": "tuple"
            },
            {
              "internalType": "address",
              "name": "subscriber",
              "type": "address"
            },
            {
              "internalType": "string",
              "name": "subscriberInfos",
              "type": "string"
            },
            {
              "internalType": "uint256",
              "name": "start",
              "type": "uint256"
            },
            {
              "internalType": "uint256",
              "name": "nextPayment",
              "type": "uint256"
            }
          ],
          "internalType": "struct PaymentV0.Subscription[]",
          "name": "",
          "type": "tuple[]"
        }
      ],
      "stateMutability": "view",
      "type": "function"
    },
    {
      "inputs": [],
      "name": "init",
      "outputs": [],
      "stateMutability": "nonpayable",
      "type": "function"
    },
    {
      "inputs": [],
      "name": "initialize",
      "outputs": [],
      "stateMutability": "nonpayable",
      "type": "function"
    },
    {
      "inputs": [
        {
          "internalType": "uint256",
          "name": "planId",
          "type": "uint256"
        }
      ],
      "name": "isPayable",
      "outputs": [
        {
          "internalType": "bool",
          "name": "success",
          "type": "bool"
        }
      ],
      "stateMutability": "view",
      "type": "function"
    },
    {
      "inputs": [],
      "name": "nextPlanId",
      "outputs": [
        {
          "internalType": "uint256",
          "name": "",
          "type": "uint256"
        }
      ],
      "stateMutability": "view",
      "type": "function"
    },
    {
      "inputs": [],
      "name": "nextSubscriptionId",
      "outputs": [
        {
          "internalType": "uint256",
          "name": "",
          "type": "uint256"
        }
      ],
      "stateMutability": "view",
      "type": "function"
    },
    {
      "inputs": [],
      "name": "owner",
      "outputs": [
        {
          "internalType": "address",
          "name": "",
          "type": "address"
        }
      ],
      "stateMutability": "view",
      "type": "function"
    },
    {
      "inputs": [
        {
          "internalType": "address",
          "name": "subscriber",
          "type": "address"
        },
        {
          "internalType": "uint256",
          "name": "subscriptionId",
          "type": "uint256"
        }
      ],
      "name": "pay",
      "outputs": [],
      "stateMutability": "nonpayable",
      "type": "function"
    },
    {
      "inputs": [
        {
          "internalType": "uint256",
          "name": "",
          "type": "uint256"
        }
      ],
      "name": "plans",
      "outputs": [
        {
          "internalType": "address",
          "name": "merchant",
          "type": "address"
        },
        {
          "internalType": "address",
          "name": "token",
          "type": "address"
        },
        {
          "internalType": "uint256",
          "name": "planId",
          "type": "uint256"
        },
        {
          "internalType": "uint256",
          "name": "amount",
          "type": "uint256"
        },
        {
          "internalType": "uint256",
          "name": "frequency",
          "type": "uint256"
        },
        {
          "internalType": "uint8",
          "name": "planType",
          "type": "uint8"
        },
        {
          "internalType": "string",
          "name": "planTypeInfos",
          "type": "string"
        },
        {
          "internalType": "string",
          "name": "planName",
          "type": "string"
        },
        {
          "internalType": "string",
          "name": "merchantName",
          "type": "string"
        },
        {
          "internalType": "string",
          "name": "tokenName",
          "type": "string"
        }
      ],
      "stateMutability": "view",
      "type": "function"
    },
    {
      "inputs": [],
      "name": "proxiableUUID",
      "outputs": [
        {
          "internalType": "bytes32",
          "name": "",
          "type": "bytes32"
        }
      ],
      "stateMutability": "view",
      "type": "function"
    },
    {
      "inputs": [],
      "name": "renounceOwnership",
      "outputs": [],
      "stateMutability": "nonpayable",
      "type": "function"
    },
    {
      "inputs": [
        {
          "internalType": "uint256",
          "name": "planId",
          "type": "uint256"
        },
        {
          "internalType": "string",
          "name": "customData",
          "type": "string"
        }
      ],
      "name": "subscribe",
      "outputs": [],
      "stateMutability": "nonpayable",
      "type": "function"
    },
    {
      "inputs": [
        {
          "internalType": "address",
          "name": "",
          "type": "address"
        },
        {
          "internalType": "uint256",
          "name": "",
          "type": "uint256"
        }
      ],
      "name": "subscriptions",
      "outputs": [
        {
          "internalType": "uint256",
          "name": "subscriptionId",
          "type": "uint256"
        },
        {
          "components": [
            {
              "internalType": "address",
              "name": "merchant",
              "type": "address"
            },
            {
              "internalType": "address",
              "name": "token",
              "type": "address"
            },
            {
              "internalType": "uint256",
              "name": "planId",
              "type": "uint256"
            },
            {
              "internalType": "uint256",
              "name": "amount",
              "type": "uint256"
            },
            {
              "internalType": "uint256",
              "name": "frequency",
              "type": "uint256"
            },
            {
              "internalType": "uint8",
              "name": "planType",
              "type": "uint8"
            },
            {
              "internalType": "string",
              "name": "planTypeInfos",
              "type": "string"
            },
            {
              "internalType": "string",
              "name": "planName",
              "type": "string"
            },
            {
              "internalType": "string",
              "name": "merchantName",
              "type": "string"
            },
            {
              "internalType": "string",
              "name": "tokenName",
              "type": "string"
            }
          ],
          "internalType": "struct PaymentV0.Plan",
          "name": "plan",
          "type": "tuple"
        },
        {
          "internalType": "address",
          "name": "subscriber",
          "type": "address"
        },
        {
          "internalType": "string",
          "name": "subscriberInfos",
          "type": "string"
        },
        {
          "internalType": "uint256",
          "name": "start",
          "type": "uint256"
        },
        {
          "internalType": "uint256",
          "name": "nextPayment",
          "type": "uint256"
        }
      ],
      "stateMutability": "view",
      "type": "function"
    },
    {
      "inputs": [
        {
          "internalType": "address",
          "name": "newOwner",
          "type": "address"
        }
      ],
      "name": "transferOwnership",
      "outputs": [],
      "stateMutability": "nonpayable",
      "type": "function"
    },
    {
      "inputs": [
        {
          "internalType": "address",
          "name": "newImplementation",
          "type": "address"
        }
      ],
      "name": "upgradeTo",
      "outputs": [],
      "stateMutability": "nonpayable",
      "type": "function"
    },
    {
      "inputs": [
        {
          "internalType": "address",
          "name": "newImplementation",
          "type": "address"
        },
        {
          "internalType": "bytes",
          "name": "data",
          "type": "bytes"
        }
      ],
      "name": "upgradeToAndCall",
      "outputs": [],
      "stateMutability": "payable",
      "type": "function"
    }
  ],
  "bytecode": "0x60a06040523073ffffffffffffffffffffffffffffffffffffffff1660809073ffffffffffffffffffffffffffffffffffffffff1681525034801561004357600080fd5b506080516167226200007c6000396000818161067a01528181610709015281816113dc0152818161146b015261151b01526167226000f3fe6080604052600436106101355760003560e01c806386d4fbd3116100ab578063c40768761161006f578063c407687614610403578063d8a1854d1461042c578063da58935f14610469578063e1c7392a14610494578063f2fde38b146104ab578063fedc7445146104d457610135565b806386d4fbd3146103015780638aa104351461032a5780638da5cb5b146103555780639f7d647d14610380578063b1620616146103bd57610135565b806352d1902d116100fd57806352d1902d1461021057806356eb00a11461023b5780635f8d26b214610266578063623da3d114610291578063715018a6146102d35780638129fc1c146102ea57610135565b80632e43d7dc1461013a5780633659cfe6146101775780633b47a9ac146101a057806340e58ee5146101cb5780634f1ef286146101f4575b600080fd5b34801561014657600080fd5b50610161600480360381019061015c91906148ba565b6104fd565b60405161016e91906148f6565b60405180910390f35b34801561018357600080fd5b5061019e6004803603810190610199919061496f565b610678565b005b3480156101ac57600080fd5b506101b5610801565b6040516101c29190614cb0565b60405180910390f35b3480156101d757600080fd5b506101f260048036038101906101ed91906148ba565b610e30565b005b61020e60048036038101906102099190614e07565b6113da565b005b34801561021c57600080fd5b50610225611517565b6040516102329190614e7c565b60405180910390f35b34801561024757600080fd5b506102506115d0565b60405161025d9190614cb0565b60405180910390f35b34801561027257600080fd5b5061027b611baa565b60405161028891906148f6565b60405180910390f35b34801561029d57600080fd5b506102b860048036038101906102b39190614e97565b611bb0565b6040516102ca9695949392919061501f565b60405180910390f35b3480156102df57600080fd5b506102e8611fdb565b005b3480156102f657600080fd5b506102ff611fef565b005b34801561030d57600080fd5b506103286004803603810190610323919061512f565b612135565b005b34801561033657600080fd5b5061033f612c0f565b60405161034c91906148f6565b60405180910390f35b34801561036157600080fd5b5061036a612c18565b604051610377919061518b565b60405180910390f35b34801561038c57600080fd5b506103a760048036038101906103a291906148ba565b612c42565b6040516103b491906151c1565b60405180910390f35b3480156103c957600080fd5b506103e460048036038101906103df91906148ba565b612e5a565b6040516103fa9a999897969594939291906151eb565b60405180910390f35b34801561040f57600080fd5b5061042a60048036038101906104259190614e97565b61311b565b005b34801561043857600080fd5b50610453600480360381019061044e91906152cf565b61336b565b60405161046091906153be565b60405180910390f35b34801561047557600080fd5b5061047e61388c565b60405161048b91906148f6565b60405180910390f35b3480156104a057600080fd5b506104a9613892565b005b3480156104b757600080fd5b506104d260048036038101906104cd919061496f565b6139d0565b005b3480156104e057600080fd5b506104fb60048036038101906104f6919061540c565b613a54565b005b60008060cb600084815260200190815260200160002060010160009054906101000a900473ffffffffffffffffffffffffffffffffffffffff169050600060cb60008581526020019081526020016000209050600073ffffffffffffffffffffffffffffffffffffffff168160000160009054906101000a900473ffffffffffffffffffffffffffffffffffffffff1673ffffffffffffffffffffffffffffffffffffffff1614156105e4576040517f08c379a00000000000000000000000000000000000000000000000000000000081526004016105db9061557e565b60405180910390fd5b8173ffffffffffffffffffffffffffffffffffffffff1663dd62ed3e33306040518363ffffffff1660e01b815260040161061f92919061559e565b60206040518083038186803b15801561063757600080fd5b505afa15801561064b573d6000803e3d6000fd5b505050506040513d601f19601f8201168201806040525081019061066f91906155dc565b92505050919050565b7f000000000000000000000000000000000000000000000000000000000000000073ffffffffffffffffffffffffffffffffffffffff163073ffffffffffffffffffffffffffffffffffffffff161415610707576040517f08c379a00000000000000000000000000000000000000000000000000000000081526004016106fe9061567b565b60405180910390fd5b7f000000000000000000000000000000000000000000000000000000000000000073ffffffffffffffffffffffffffffffffffffffff16610746613d3e565b73ffffffffffffffffffffffffffffffffffffffff161461079c576040517f08c379a00000000000000000000000000000000000000000000000000000000081526004016107939061570d565b60405180910390fd5b6107a581613d95565b6107fe81600067ffffffffffffffff8111156107c4576107c3614cdc565b5b6040519080825280601f01601f1916602001820160405280156107f65781602001600182028036833780820191505090505b506000613da0565b50565b6060600060cd60003373ffffffffffffffffffffffffffffffffffffffff1673ffffffffffffffffffffffffffffffffffffffff1681526020019081526020016000208054905090506000811161088d576040517f08c379a000000000000000000000000000000000000000000000000000000000815260040161088490615779565b60405180910390fd5b60008167ffffffffffffffff8111156108a9576108a8614cdc565b5b6040519080825280602002602001820160405280156108e257816020015b6108cf6146b9565b8152602001906001900390816108c75790505b50905060005b82811015610e2757600060cd60003373ffffffffffffffffffffffffffffffffffffffff1673ffffffffffffffffffffffffffffffffffffffff168152602001908152602001600020828154811061094357610942615799565b5b9060005260206000200154905060cc60003373ffffffffffffffffffffffffffffffffffffffff1673ffffffffffffffffffffffffffffffffffffffff16815260200190815260200160002060008281526020019081526020016000206040518060c00160405290816000820154815260200160018201604051806101400160405290816000820160009054906101000a900473ffffffffffffffffffffffffffffffffffffffff1673ffffffffffffffffffffffffffffffffffffffff1673ffffffffffffffffffffffffffffffffffffffff1681526020016001820160009054906101000a900473ffffffffffffffffffffffffffffffffffffffff1673ffffffffffffffffffffffffffffffffffffffff1673ffffffffffffffffffffffffffffffffffffffff1681526020016002820154815260200160038201548152602001600482015481526020016005820160009054906101000a900460ff1660ff1660ff168152602001600682018054610abd906157f7565b80601f0160208091040260200160405190810160405280929190818152602001828054610ae9906157f7565b8015610b365780601f10610b0b57610100808354040283529160200191610b36565b820191906000526020600020905b815481529060010190602001808311610b1957829003601f168201915b50505050508152602001600782018054610b4f906157f7565b80601f0160208091040260200160405190810160405280929190818152602001828054610b7b906157f7565b8015610bc85780601f10610b9d57610100808354040283529160200191610bc8565b820191906000526020600020905b815481529060010190602001808311610bab57829003601f168201915b50505050508152602001600882018054610be1906157f7565b80601f0160208091040260200160405190810160405280929190818152602001828054610c0d906157f7565b8015610c5a5780601f10610c2f57610100808354040283529160200191610c5a565b820191906000526020600020905b815481529060010190602001808311610c3d57829003601f168201915b50505050508152602001600982018054610c73906157f7565b80601f0160208091040260200160405190810160405280929190818152602001828054610c9f906157f7565b8015610cec5780601f10610cc157610100808354040283529160200191610cec565b820191906000526020600020905b815481529060010190602001808311610ccf57829003601f168201915b5050505050815250508152602001600b820160009054906101000a900473ffffffffffffffffffffffffffffffffffffffff1673ffffffffffffffffffffffffffffffffffffffff1673ffffffffffffffffffffffffffffffffffffffff168152602001600c82018054610d5f906157f7565b80601f0160208091040260200160405190810160405280929190818152602001828054610d8b906157f7565b8015610dd85780601f10610dad57610100808354040283529160200191610dd8565b820191906000526020600020905b815481529060010190602001808311610dbb57829003601f168201915b50505050508152602001600d8201548152602001600e82015481525050838381518110610e0857610e07615799565b5b6020026020010181905250508080610e1f90615858565b9150506108e8565b50809250505090565b600060cc60003373ffffffffffffffffffffffffffffffffffffffff1673ffffffffffffffffffffffffffffffffffffffff16815260200190815260200160002060008381526020019081526020016000209050600060cd60003373ffffffffffffffffffffffffffffffffffffffff1673ffffffffffffffffffffffffffffffffffffffff168152602001908152602001600020805490509050600073ffffffffffffffffffffffffffffffffffffffff1682600b0160009054906101000a900473ffffffffffffffffffffffffffffffffffffffff1673ffffffffffffffffffffffffffffffffffffffff161415610f5f576040517f08c379a0000000000000000000000000000000000000000000000000000000008152600401610f5690615913565b60405180910390fd5b6000805b600183610f709190615933565b8111610ff0578460cd60003373ffffffffffffffffffffffffffffffffffffffff1673ffffffffffffffffffffffffffffffffffffffff1681526020019081526020016000208281548110610fc857610fc7615799565b5b90600052602060002001541415610fdd578091505b8080610fe890615858565b915050610f63565b5060008190505b6001836110049190615933565b8110156110e55760cd60003373ffffffffffffffffffffffffffffffffffffffff1673ffffffffffffffffffffffffffffffffffffffff1681526020019081526020016000206001826110579190615967565b8154811061106857611067615799565b5b906000526020600020015460cd60003373ffffffffffffffffffffffffffffffffffffffff1673ffffffffffffffffffffffffffffffffffffffff16815260200190815260200160002082815481106110c4576110c3615799565b5b906000526020600020018190555080806110dd90615858565b915050610ff7565b5060cc60003373ffffffffffffffffffffffffffffffffffffffff1673ffffffffffffffffffffffffffffffffffffffff168152602001908152602001600020600085815260200190815260200160002060008082016000905560018201600080820160006101000a81549073ffffffffffffffffffffffffffffffffffffffff02191690556001820160006101000a81549073ffffffffffffffffffffffffffffffffffffffff02191690556002820160009055600382016000905560048201600090556005820160006101000a81549060ff02191690556006820160006111ce919061470b565b6007820160006111de919061470b565b6008820160006111ee919061470b565b6009820160006111fe919061470b565b5050600b820160006101000a81549073ffffffffffffffffffffffffffffffffffffffff0219169055600c82016000611237919061470b565b600d820160009055600e820160009055505060cd60003373ffffffffffffffffffffffffffffffffffffffff1673ffffffffffffffffffffffffffffffffffffffff168152602001908152602001600020805480611298576112976159bd565b5b6001900381819060005260206000200160009055905560ce600085815260200190815260200160002060008082016000905560018201600080820160006101000a81549073ffffffffffffffffffffffffffffffffffffffff02191690556001820160006101000a81549073ffffffffffffffffffffffffffffffffffffffff02191690556002820160009055600382016000905560048201600090556005820160006101000a81549060ff0219169055600682016000611359919061470b565b600782016000611369919061470b565b600882016000611379919061470b565b600982016000611389919061470b565b5050600b820160006101000a81549073ffffffffffffffffffffffffffffffffffffffff0219169055600c820160006113c2919061470b565b600d820160009055600e820160009055505050505050565b7f000000000000000000000000000000000000000000000000000000000000000073ffffffffffffffffffffffffffffffffffffffff163073ffffffffffffffffffffffffffffffffffffffff161415611469576040517f08c379a00000000000000000000000000000000000000000000000000000000081526004016114609061567b565b60405180910390fd5b7f000000000000000000000000000000000000000000000000000000000000000073ffffffffffffffffffffffffffffffffffffffff166114a8613d3e565b73ffffffffffffffffffffffffffffffffffffffff16146114fe576040517f08c379a00000000000000000000000000000000000000000000000000000000081526004016114f59061570d565b60405180910390fd5b61150782613d95565b61151382826001613da0565b5050565b60007f000000000000000000000000000000000000000000000000000000000000000073ffffffffffffffffffffffffffffffffffffffff163073ffffffffffffffffffffffffffffffffffffffff16146115a7576040517f08c379a000000000000000000000000000000000000000000000000000000000815260040161159e90615a5e565b60405180910390fd5b7f360894a13ba1a3210667c828492db98dca3e2076cc3735a920a3ca505d382bbc60001b905090565b6060600060ca5490506000811161161c576040517f08c379a000000000000000000000000000000000000000000000000000000000815260040161161390615779565b60405180910390fd5b60008167ffffffffffffffff81111561163857611637614cdc565b5b60405190808252806020026020018201604052801561167157816020015b61165e6146b9565b8152602001906001900390816116565790505b50905060005b82811015611ba15760cc600060ce6000848152602001908152602001600020600b0160009054906101000a900473ffffffffffffffffffffffffffffffffffffffff1673ffffffffffffffffffffffffffffffffffffffff1673ffffffffffffffffffffffffffffffffffffffff168152602001908152602001600020600060ce60008481526020019081526020016000206000015481526020019081526020016000206040518060c00160405290816000820154815260200160018201604051806101400160405290816000820160009054906101000a900473ffffffffffffffffffffffffffffffffffffffff1673ffffffffffffffffffffffffffffffffffffffff1673ffffffffffffffffffffffffffffffffffffffff1681526020016001820160009054906101000a900473ffffffffffffffffffffffffffffffffffffffff1673ffffffffffffffffffffffffffffffffffffffff1673ffffffffffffffffffffffffffffffffffffffff1681526020016002820154815260200160038201548152602001600482015481526020016005820160009054906101000a900460ff1660ff1660ff168152602001600682018054611838906157f7565b80601f0160208091040260200160405190810160405280929190818152602001828054611864906157f7565b80156118b15780601f10611886576101008083540402835291602001916118b1565b820191906000526020600020905b81548152906001019060200180831161189457829003601f168201915b505050505081526020016007820180546118ca906157f7565b80601f01602080910402602001604051908101604052809291908181526020018280546118f6906157f7565b80156119435780601f1061191857610100808354040283529160200191611943565b820191906000526020600020905b81548152906001019060200180831161192657829003601f168201915b5050505050815260200160088201805461195c906157f7565b80601f0160208091040260200160405190810160405280929190818152602001828054611988906157f7565b80156119d55780601f106119aa576101008083540402835291602001916119d5565b820191906000526020600020905b8154815290600101906020018083116119b857829003601f168201915b505050505081526020016009820180546119ee906157f7565b80601f0160208091040260200160405190810160405280929190818152602001828054611a1a906157f7565b8015611a675780601f10611a3c57610100808354040283529160200191611a67565b820191906000526020600020905b815481529060010190602001808311611a4a57829003601f168201915b5050505050815250508152602001600b820160009054906101000a900473ffffffffffffffffffffffffffffffffffffffff1673ffffffffffffffffffffffffffffffffffffffff1673ffffffffffffffffffffffffffffffffffffffff168152602001600c82018054611ada906157f7565b80601f0160208091040260200160405190810160405280929190818152602001828054611b06906157f7565b8015611b535780601f10611b2857610100808354040283529160200191611b53565b820191906000526020600020905b815481529060010190602001808311611b3657829003601f168201915b50505050508152602001600d8201548152602001600e82015481525050828281518110611b8357611b82615799565b5b60200260200101819052508080611b9990615858565b915050611677565b50809250505090565b60c95481565b60cc6020528160005260406000206020528060005260406000206000915091505080600001549080600101604051806101400160405290816000820160009054906101000a900473ffffffffffffffffffffffffffffffffffffffff1673ffffffffffffffffffffffffffffffffffffffff1673ffffffffffffffffffffffffffffffffffffffff1681526020016001820160009054906101000a900473ffffffffffffffffffffffffffffffffffffffff1673ffffffffffffffffffffffffffffffffffffffff1673ffffffffffffffffffffffffffffffffffffffff1681526020016002820154815260200160038201548152602001600482015481526020016005820160009054906101000a900460ff1660ff1660ff168152602001600682018054611cde906157f7565b80601f0160208091040260200160405190810160405280929190818152602001828054611d0a906157f7565b8015611d575780601f10611d2c57610100808354040283529160200191611d57565b820191906000526020600020905b815481529060010190602001808311611d3a57829003601f168201915b50505050508152602001600782018054611d70906157f7565b80601f0160208091040260200160405190810160405280929190818152602001828054611d9c906157f7565b8015611de95780601f10611dbe57610100808354040283529160200191611de9565b820191906000526020600020905b815481529060010190602001808311611dcc57829003601f168201915b50505050508152602001600882018054611e02906157f7565b80601f0160208091040260200160405190810160405280929190818152602001828054611e2e906157f7565b8015611e7b5780601f10611e5057610100808354040283529160200191611e7b565b820191906000526020600020905b815481529060010190602001808311611e5e57829003601f168201915b50505050508152602001600982018054611e94906157f7565b80601f0160208091040260200160405190810160405280929190818152602001828054611ec0906157f7565b8015611f0d5780601f10611ee257610100808354040283529160200191611f0d565b820191906000526020600020905b815481529060010190602001808311611ef057829003601f168201915b5050505050815250509080600b0160009054906101000a900473ffffffffffffffffffffffffffffffffffffffff169080600c018054611f4c906157f7565b80601f0160208091040260200160405190810160405280929190818152602001828054611f78906157f7565b8015611fc55780601f10611f9a57610100808354040283529160200191611fc5565b820191906000526020600020905b815481529060010190602001808311611fa857829003601f168201915b50505050509080600d01549080600e0154905086565b611fe3613f1d565b611fed6000613f9b565b565b60008060019054906101000a900460ff161590508080156120205750600160008054906101000a900460ff1660ff16105b8061204d575061202f30614061565b15801561204c5750600160008054906101000a900460ff1660ff16145b5b61208c576040517f08c379a000000000000000000000000000000000000000000000000000000000815260040161208390615af0565b60405180910390fd5b60016000806101000a81548160ff021916908360ff16021790555080156120c9576001600060016101000a81548160ff0219169083151502179055505b6120d1614084565b606460ca8190555080156121325760008060016101000a81548160ff0219169083151502179055507f7f26b83ff96e1f2b6a682f133852f6798a09c465da95921460cefb384740249860016040516121299190615b55565b60405180910390a15b50565b600060cb600084815260200190815260200160002060010160009054906101000a900473ffffffffffffffffffffffffffffffffffffffff169050600060cb60008581526020019081526020016000209050600073ffffffffffffffffffffffffffffffffffffffff168160000160009054906101000a900473ffffffffffffffffffffffffffffffffffffffff1673ffffffffffffffffffffffffffffffffffffffff16141561221b576040517f08c379a00000000000000000000000000000000000000000000000000000000081526004016122129061557e565b60405180910390fd5b60008273ffffffffffffffffffffffffffffffffffffffff1663dd62ed3e33306040518363ffffffff1660e01b815260040161225892919061559e565b60206040518083038186803b15801561227057600080fd5b505afa158015612284573d6000803e3d6000fd5b505050506040513d601f19601f820116820180604052508101906122a891906155dc565b9050816003015481116122f0576040517f08c379a00000000000000000000000000000000000000000000000000000000081526004016122e790615bbc565b60405180910390fd5b8273ffffffffffffffffffffffffffffffffffffffff166323b872dd338460000160009054906101000a900473ffffffffffffffffffffffffffffffffffffffff1685600301546040518463ffffffff1660e01b815260040161235593929190615bdc565b602060405180830381600087803b15801561236f57600080fd5b505af1158015612383573d6000803e3d6000fd5b505050506040513d601f19601f820116820180604052508101906123a79190615c28565b5060006040518060c0016040528060ca54815260200184604051806101400160405290816000820160009054906101000a900473ffffffffffffffffffffffffffffffffffffffff1673ffffffffffffffffffffffffffffffffffffffff1673ffffffffffffffffffffffffffffffffffffffff1681526020016001820160009054906101000a900473ffffffffffffffffffffffffffffffffffffffff1673ffffffffffffffffffffffffffffffffffffffff1673ffffffffffffffffffffffffffffffffffffffff1681526020016002820154815260200160038201548152602001600482015481526020016005820160009054906101000a900460ff1660ff1660ff1681526020016006820180546124c1906157f7565b80601f01602080910402602001604051908101604052809291908181526020018280546124ed906157f7565b801561253a5780601f1061250f5761010080835404028352916020019161253a565b820191906000526020600020905b81548152906001019060200180831161251d57829003601f168201915b50505050508152602001600782018054612553906157f7565b80601f016020809104026020016040519081016040528092919081815260200182805461257f906157f7565b80156125cc5780601f106125a1576101008083540402835291602001916125cc565b820191906000526020600020905b8154815290600101906020018083116125af57829003601f168201915b505050505081526020016008820180546125e5906157f7565b80601f0160208091040260200160405190810160405280929190818152602001828054612611906157f7565b801561265e5780601f106126335761010080835404028352916020019161265e565b820191906000526020600020905b81548152906001019060200180831161264157829003601f168201915b50505050508152602001600982018054612677906157f7565b80601f01602080910402602001604051908101604052809291908181526020018280546126a3906157f7565b80156126f05780601f106126c5576101008083540402835291602001916126f0565b820191906000526020600020905b8154815290600101906020018083116126d357829003601f168201915b50505050508152505081526020013373ffffffffffffffffffffffffffffffffffffffff1681526020018681526020014281526020018460040154426127369190615967565b81525090508060cc60003373ffffffffffffffffffffffffffffffffffffffff1673ffffffffffffffffffffffffffffffffffffffff168152602001908152602001600020600060ca5481526020019081526020016000206000820151816000015560208201518160010160008201518160000160006101000a81548173ffffffffffffffffffffffffffffffffffffffff021916908373ffffffffffffffffffffffffffffffffffffffff16021790555060208201518160010160006101000a81548173ffffffffffffffffffffffffffffffffffffffff021916908373ffffffffffffffffffffffffffffffffffffffff16021790555060408201518160020155606082015181600301556080820151816004015560a08201518160050160006101000a81548160ff021916908360ff16021790555060c082015181600601908051906020019061288a92919061474b565b5060e08201518160070190805190602001906128a792919061474b565b506101008201518160080190805190602001906128c592919061474b565b506101208201518160090190805190602001906128e392919061474b565b505050604082015181600b0160006101000a81548173ffffffffffffffffffffffffffffffffffffffff021916908373ffffffffffffffffffffffffffffffffffffffff160217905550606082015181600c01908051906020019061294992919061474b565b50608082015181600d015560a082015181600e015590505060cd60003373ffffffffffffffffffffffffffffffffffffffff1673ffffffffffffffffffffffffffffffffffffffff16815260200190815260200160002060ca5490806001815401808255809150506001900390600052602060002001600090919091909150558060ce600060ca5481526020019081526020016000206000820151816000015560208201518160010160008201518160000160006101000a81548173ffffffffffffffffffffffffffffffffffffffff021916908373ffffffffffffffffffffffffffffffffffffffff16021790555060208201518160010160006101000a81548173ffffffffffffffffffffffffffffffffffffffff021916908373ffffffffffffffffffffffffffffffffffffffff16021790555060408201518160020155606082015181600301556080820151816004015560a08201518160050160006101000a81548160ff021916908360ff16021790555060c0820151816006019080519060200190612adb92919061474b565b5060e0820151816007019080519060200190612af892919061474b565b50610100820151816008019080519060200190612b1692919061474b565b50610120820151816009019080519060200190612b3492919061474b565b505050604082015181600b0160006101000a81548173ffffffffffffffffffffffffffffffffffffffff021916908373ffffffffffffffffffffffffffffffffffffffff160217905550606082015181600c019080519060200190612b9a92919061474b565b50608082015181600d015560a082015181600e01559050507fe716126288e3feb16c89656d00f682b21a2e63dbd972dc5e9b143722ac23de2733848342604051612be79493929190615f39565b60405180910390a160ca6000815480929190612c0290615858565b9190505550505050505050565b60006002905090565b6000603360009054906101000a900473ffffffffffffffffffffffffffffffffffffffff16905090565b60008060cb600084815260200190815260200160002060010160009054906101000a900473ffffffffffffffffffffffffffffffffffffffff169050600060cb60008581526020019081526020016000209050600073ffffffffffffffffffffffffffffffffffffffff168160000160009054906101000a900473ffffffffffffffffffffffffffffffffffffffff1673ffffffffffffffffffffffffffffffffffffffff161415612d29576040517f08c379a0000000000000000000000000000000000000000000000000000000008152600401612d209061557e565b60405180910390fd5b80600301548273ffffffffffffffffffffffffffffffffffffffff1663dd62ed3e33306040518363ffffffff1660e01b8152600401612d6992919061559e565b60206040518083038186803b158015612d8157600080fd5b505afa158015612d95573d6000803e3d6000fd5b505050506040513d601f19601f82011682018060405250810190612db991906155dc565b118015612e51575080600301548273ffffffffffffffffffffffffffffffffffffffff166370a08231336040518263ffffffff1660e01b8152600401612dff919061518b565b60206040518083038186803b158015612e1757600080fd5b505afa158015612e2b573d6000803e3d6000fd5b505050506040513d601f19601f82011682018060405250810190612e4f91906155dc565b115b92505050919050565b60cb6020528060005260406000206000915090508060000160009054906101000a900473ffffffffffffffffffffffffffffffffffffffff16908060010160009054906101000a900473ffffffffffffffffffffffffffffffffffffffff16908060020154908060030154908060040154908060050160009054906101000a900460ff1690806006018054612eee906157f7565b80601f0160208091040260200160405190810160405280929190818152602001828054612f1a906157f7565b8015612f675780601f10612f3c57610100808354040283529160200191612f67565b820191906000526020600020905b815481529060010190602001808311612f4a57829003601f168201915b505050505090806007018054612f7c906157f7565b80601f0160208091040260200160405190810160405280929190818152602001828054612fa8906157f7565b8015612ff55780601f10612fca57610100808354040283529160200191612ff5565b820191906000526020600020905b815481529060010190602001808311612fd857829003601f168201915b50505050509080600801805461300a906157f7565b80601f0160208091040260200160405190810160405280929190818152602001828054613036906157f7565b80156130835780601f1061305857610100808354040283529160200191613083565b820191906000526020600020905b81548152906001019060200180831161306657829003601f168201915b505050505090806009018054613098906157f7565b80601f01602080910402602001604051908101604052809291908181526020018280546130c4906157f7565b80156131115780601f106130e657610100808354040283529160200191613111565b820191906000526020600020905b8154815290600101906020018083116130f457829003601f168201915b505050505090508a565b600060cc60008473ffffffffffffffffffffffffffffffffffffffff1673ffffffffffffffffffffffffffffffffffffffff16815260200190815260200160002060008381526020019081526020016000209050600060cb600083600101600201548152602001908152602001600020905060008160010160009054906101000a900473ffffffffffffffffffffffffffffffffffffffff169050600073ffffffffffffffffffffffffffffffffffffffff1683600b0160009054906101000a900473ffffffffffffffffffffffffffffffffffffffff1673ffffffffffffffffffffffffffffffffffffffff16141561324a576040517f08c379a000000000000000000000000000000000000000000000000000000000815260040161324190615fd8565b60405180910390fd5b82600e01544211613290576040517f08c379a000000000000000000000000000000000000000000000000000000000815260040161328790616044565b60405180910390fd5b8073ffffffffffffffffffffffffffffffffffffffff166323b872dd868460000160009054906101000a900473ffffffffffffffffffffffffffffffffffffffff1685600301546040518463ffffffff1660e01b81526004016132f593929190615bdc565b602060405180830381600087803b15801561330f57600080fd5b505af1158015613323573d6000803e3d6000fd5b505050506040513d601f19601f820116820180604052508101906133479190615c28565b50816004015483600e015461335c9190615967565b83600e01819055505050505050565b6060600060c9549050600081116133b7576040517f08c379a00000000000000000000000000000000000000000000000000000000081526004016133ae906160b0565b60405180910390fd5b60008167ffffffffffffffff8111156133d3576133d2614cdc565b5b60405190808252806020026020018201604052801561340c57816020015b6133f96147d1565b8152602001906001900390816133f15790505b50905060005b8281101561388157600073ffffffffffffffffffffffffffffffffffffffff1660cb600083815260200190815260200160002060000160009054906101000a900473ffffffffffffffffffffffffffffffffffffffff1673ffffffffffffffffffffffffffffffffffffffff161461386e578415806134fb57508480156134fa57503373ffffffffffffffffffffffffffffffffffffffff1660cb600083815260200190815260200160002060000160009054906101000a900473ffffffffffffffffffffffffffffffffffffffff1673ffffffffffffffffffffffffffffffffffffffff16145b5b1561386d5760cb6000828152602001908152602001600020604051806101400160405290816000820160009054906101000a900473ffffffffffffffffffffffffffffffffffffffff1673ffffffffffffffffffffffffffffffffffffffff1673ffffffffffffffffffffffffffffffffffffffff1681526020016001820160009054906101000a900473ffffffffffffffffffffffffffffffffffffffff1673ffffffffffffffffffffffffffffffffffffffff1673ffffffffffffffffffffffffffffffffffffffff1681526020016002820154815260200160038201548152602001600482015481526020016005820160009054906101000a900460ff1660ff1660ff168152602001600682018054613616906157f7565b80601f0160208091040260200160405190810160405280929190818152602001828054613642906157f7565b801561368f5780601f106136645761010080835404028352916020019161368f565b820191906000526020600020905b81548152906001019060200180831161367257829003601f168201915b505050505081526020016007820180546136a8906157f7565b80601f01602080910402602001604051908101604052809291908181526020018280546136d4906157f7565b80156137215780601f106136f657610100808354040283529160200191613721565b820191906000526020600020905b81548152906001019060200180831161370457829003601f168201915b5050505050815260200160088201805461373a906157f7565b80601f0160208091040260200160405190810160405280929190818152602001828054613766906157f7565b80156137b35780601f10613788576101008083540402835291602001916137b3565b820191906000526020600020905b81548152906001019060200180831161379657829003601f168201915b505050505081526020016009820180546137cc906157f7565b80601f01602080910402602001604051908101604052809291908181526020018280546137f8906157f7565b80156138455780601f1061381a57610100808354040283529160200191613845565b820191906000526020600020905b81548152906001019060200180831161382857829003601f168201915b50505050508152505082828151811061386157613860615799565b5b60200260200101819052505b5b808061387990615858565b915050613412565b508092505050919050565b60ca5481565b60008060019054906101000a900460ff161590508080156138c35750600160008054906101000a900460ff1660ff16105b806138f057506138d230614061565b1580156138ef5750600160008054906101000a900460ff1660ff16145b5b61392f576040517f08c379a000000000000000000000000000000000000000000000000000000000815260040161392690615af0565b60405180910390fd5b60016000806101000a81548160ff021916908360ff160217905550801561396c576001600060016101000a81548160ff0219169083151502179055505b6139746141ca565b80156139cd5760008060016101000a81548160ff0219169083151502179055507f7f26b83ff96e1f2b6a682f133852f6798a09c465da95921460cefb384740249860016040516139c49190615b55565b60405180910390a15b50565b6139d8613f1d565b600073ffffffffffffffffffffffffffffffffffffffff168173ffffffffffffffffffffffffffffffffffffffff161415613a48576040517f08c379a0000000000000000000000000000000000000000000000000000000008152600401613a3f90616142565b60405180910390fd5b613a5181613f9b565b50565b600073ffffffffffffffffffffffffffffffffffffffff168873ffffffffffffffffffffffffffffffffffffffff161415613ac4576040517f08c379a0000000000000000000000000000000000000000000000000000000008152600401613abb906161ae565b60405180910390fd5b60008711613b07576040517f08c379a0000000000000000000000000000000000000000000000000000000008152600401613afe9061621a565b60405180910390fd5b60008611613b4a576040517f08c379a0000000000000000000000000000000000000000000000000000000008152600401613b4190616286565b60405180910390fd5b6040518061014001604052803373ffffffffffffffffffffffffffffffffffffffff1681526020018973ffffffffffffffffffffffffffffffffffffffff16815260200160c95481526020018881526020018781526020018660ff1681526020018581526020018381526020018281526020018481525060cb600060c954815260200190815260200160002060008201518160000160006101000a81548173ffffffffffffffffffffffffffffffffffffffff021916908373ffffffffffffffffffffffffffffffffffffffff16021790555060208201518160010160006101000a81548173ffffffffffffffffffffffffffffffffffffffff021916908373ffffffffffffffffffffffffffffffffffffffff16021790555060408201518160020155606082015181600301556080820151816004015560a08201518160050160006101000a81548160ff021916908360ff16021790555060c0820151816006019080519060200190613cbf92919061474b565b5060e0820151816007019080519060200190613cdc92919061474b565b50610100820151816008019080519060200190613cfa92919061474b565b50610120820151816009019080519060200190613d1892919061474b565b5090505060c96000815480929190613d2f90615858565b91905055505050505050505050565b6000613d6c7f360894a13ba1a3210667c828492db98dca3e2076cc3735a920a3ca505d382bbc60001b614308565b60000160009054906101000a900473ffffffffffffffffffffffffffffffffffffffff16905090565b613d9d613f1d565b50565b613dcc7f4910fdfa16fed3260ed0e7147f7cc6da11a60208b5b9406d12a635614ffd914360001b614312565b60000160009054906101000a900460ff1615613df057613deb8361431c565b613f18565b8273ffffffffffffffffffffffffffffffffffffffff166352d1902d6040518163ffffffff1660e01b815260040160206040518083038186803b158015613e3657600080fd5b505afa925050508015613e6757506040513d601f19601f82011682018060405250810190613e6491906162d2565b60015b613ea6576040517f08c379a0000000000000000000000000000000000000000000000000000000008152600401613e9d90616371565b60405180910390fd5b7f360894a13ba1a3210667c828492db98dca3e2076cc3735a920a3ca505d382bbc60001b8114613f0b576040517f08c379a0000000000000000000000000000000000000000000000000000000008152600401613f0290616403565b60405180910390fd5b50613f178383836143d5565b5b505050565b613f25614401565b73ffffffffffffffffffffffffffffffffffffffff16613f43612c18565b73ffffffffffffffffffffffffffffffffffffffff1614613f99576040517f08c379a0000000000000000000000000000000000000000000000000000000008152600401613f909061646f565b60405180910390fd5b565b6000603360009054906101000a900473ffffffffffffffffffffffffffffffffffffffff16905081603360006101000a81548173ffffffffffffffffffffffffffffffffffffffff021916908373ffffffffffffffffffffffffffffffffffffffff1602179055508173ffffffffffffffffffffffffffffffffffffffff168173ffffffffffffffffffffffffffffffffffffffff167f8be0079c531659141344cd1fd0a4f28419497f9722a3daafe3b4186f6b6457e060405160405180910390a35050565b6000808273ffffffffffffffffffffffffffffffffffffffff163b119050919050565b60008060019054906101000a900460ff161590508080156140b55750600160008054906101000a900460ff1660ff16105b806140e257506140c430614061565b1580156140e15750600160008054906101000a900460ff1660ff16145b5b614121576040517f08c379a000000000000000000000000000000000000000000000000000000000815260040161411890615af0565b60405180910390fd5b60016000806101000a81548160ff021916908360ff160217905550801561415e576001600060016101000a81548160ff0219169083151502179055505b614166614409565b61416e614462565b80156141c75760008060016101000a81548160ff0219169083151502179055507f7f26b83ff96e1f2b6a682f133852f6798a09c465da95921460cefb384740249860016040516141be9190615b55565b60405180910390a15b50565b60008060019054906101000a900460ff161590508080156141fb5750600160008054906101000a900460ff1660ff16105b80614228575061420a30614061565b1580156142275750600160008054906101000a900460ff1660ff16145b5b614267576040517f08c379a000000000000000000000000000000000000000000000000000000000815260040161425e90615af0565b60405180910390fd5b60016000806101000a81548160ff021916908360ff16021790555080156142a4576001600060016101000a81548160ff0219169083151502179055505b6142ac611fef565b80156143055760008060016101000a81548160ff0219169083151502179055507f7f26b83ff96e1f2b6a682f133852f6798a09c465da95921460cefb384740249860016040516142fc9190615b55565b60405180910390a15b50565b6000819050919050565b6000819050919050565b61432581614061565b614364576040517f08c379a000000000000000000000000000000000000000000000000000000000815260040161435b90616501565b60405180910390fd5b806143917f360894a13ba1a3210667c828492db98dca3e2076cc3735a920a3ca505d382bbc60001b614308565b60000160006101000a81548173ffffffffffffffffffffffffffffffffffffffff021916908373ffffffffffffffffffffffffffffffffffffffff16021790555050565b6143de836144b3565b6000825111806143eb5750805b156143fc576143fa8383614502565b505b505050565b600033905090565b600060019054906101000a900460ff16614458576040517f08c379a000000000000000000000000000000000000000000000000000000000815260040161444f90616593565b60405180910390fd5b6144606145e6565b565b600060019054906101000a900460ff166144b1576040517f08c379a00000000000000000000000000000000000000000000000000000000081526004016144a890616593565b60405180910390fd5b565b6144bc8161431c565b8073ffffffffffffffffffffffffffffffffffffffff167fbc7cd75a20ee27fd9adebab32041f755214dbc6bffa90cc0225b39da2e5c2d3b60405160405180910390a250565b606061450d83614061565b61454c576040517f08c379a000000000000000000000000000000000000000000000000000000000815260040161454390616625565b60405180910390fd5b6000808473ffffffffffffffffffffffffffffffffffffffff1684604051614574919061668c565b600060405180830381855af49150503d80600081146145af576040519150601f19603f3d011682016040523d82523d6000602084013e6145b4565b606091505b50915091506145dc82826040518060600160405280602781526020016166c660279139614647565b9250505092915050565b600060019054906101000a900460ff16614635576040517f08c379a000000000000000000000000000000000000000000000000000000000815260040161462c90616593565b60405180910390fd5b614645614640614401565b613f9b565b565b6060831561465757829050614662565b6146618383614669565b5b9392505050565b60008251111561467c5781518083602001fd5b806040517f08c379a00000000000000000000000000000000000000000000000000000000081526004016146b091906166a3565b60405180910390fd5b6040518060c00160405280600081526020016146d36147d1565b8152602001600073ffffffffffffffffffffffffffffffffffffffff1681526020016060815260200160008152602001600081525090565b508054614717906157f7565b6000825580601f106147295750614748565b601f0160209004906000526020600020908101906147479190614853565b5b50565b828054614757906157f7565b90600052602060002090601f01602090048101928261477957600085556147c0565b82601f1061479257805160ff19168380011785556147c0565b828001600101855582156147c0579182015b828111156147bf5782518255916020019190600101906147a4565b5b5090506147cd9190614853565b5090565b604051806101400160405280600073ffffffffffffffffffffffffffffffffffffffff168152602001600073ffffffffffffffffffffffffffffffffffffffff168152602001600081526020016000815260200160008152602001600060ff168152602001606081526020016060815260200160608152602001606081525090565b5b8082111561486c576000816000905550600101614854565b5090565b6000604051905090565b600080fd5b600080fd5b6000819050919050565b61489781614884565b81146148a257600080fd5b50565b6000813590506148b48161488e565b92915050565b6000602082840312156148d0576148cf61487a565b5b60006148de848285016148a5565b91505092915050565b6148f081614884565b82525050565b600060208201905061490b60008301846148e7565b92915050565b600073ffffffffffffffffffffffffffffffffffffffff82169050919050565b600061493c82614911565b9050919050565b61494c81614931565b811461495757600080fd5b50565b60008135905061496981614943565b92915050565b6000602082840312156149855761498461487a565b5b60006149938482850161495a565b91505092915050565b600081519050919050565b600082825260208201905092915050565b6000819050602082019050919050565b6149d181614884565b82525050565b6149e081614931565b82525050565b600060ff82169050919050565b6149fc816149e6565b82525050565b600081519050919050565b600082825260208201905092915050565b60005b83811015614a3c578082015181840152602081019050614a21565b83811115614a4b576000848401525b50505050565b6000601f19601f8301169050919050565b6000614a6d82614a02565b614a778185614a0d565b9350614a87818560208601614a1e565b614a9081614a51565b840191505092915050565b600061014083016000830151614ab460008601826149d7565b506020830151614ac760208601826149d7565b506040830151614ada60408601826149c8565b506060830151614aed60608601826149c8565b506080830151614b0060808601826149c8565b5060a0830151614b1360a08601826149f3565b5060c083015184820360c0860152614b2b8282614a62565b91505060e083015184820360e0860152614b458282614a62565b915050610100830151848203610100860152614b618282614a62565b915050610120830151848203610120860152614b7d8282614a62565b9150508091505092915050565b600060c083016000830151614ba260008601826149c8565b5060208301518482036020860152614bba8282614a9b565b9150506040830151614bcf60408601826149d7565b5060608301518482036060860152614be78282614a62565b9150506080830151614bfc60808601826149c8565b5060a0830151614c0f60a08601826149c8565b508091505092915050565b6000614c268383614b8a565b905092915050565b6000602082019050919050565b6000614c468261499c565b614c5081856149a7565b935083602082028501614c62856149b8565b8060005b85811015614c9e5784840389528151614c7f8582614c1a565b9450614c8a83614c2e565b925060208a01995050600181019050614c66565b50829750879550505050505092915050565b60006020820190508181036000830152614cca8184614c3b565b905092915050565b600080fd5b600080fd5b7f4e487b7100000000000000000000000000000000000000000000000000000000600052604160045260246000fd5b614d1482614a51565b810181811067ffffffffffffffff82111715614d3357614d32614cdc565b5b80604052505050565b6000614d46614870565b9050614d528282614d0b565b919050565b600067ffffffffffffffff821115614d7257614d71614cdc565b5b614d7b82614a51565b9050602081019050919050565b82818337600083830152505050565b6000614daa614da584614d57565b614d3c565b905082815260208101848484011115614dc657614dc5614cd7565b5b614dd1848285614d88565b509392505050565b600082601f830112614dee57614ded614cd2565b5b8135614dfe848260208601614d97565b91505092915050565b60008060408385031215614e1e57614e1d61487a565b5b6000614e2c8582860161495a565b925050602083013567ffffffffffffffff811115614e4d57614e4c61487f565b5b614e5985828601614dd9565b9150509250929050565b6000819050919050565b614e7681614e63565b82525050565b6000602082019050614e916000830184614e6d565b92915050565b60008060408385031215614eae57614ead61487a565b5b6000614ebc8582860161495a565b9250506020614ecd858286016148a5565b9150509250929050565b600061014083016000830151614ef060008601826149d7565b506020830151614f0360208601826149d7565b506040830151614f1660408601826149c8565b506060830151614f2960608601826149c8565b506080830151614f3c60808601826149c8565b5060a0830151614f4f60a08601826149f3565b5060c083015184820360c0860152614f678282614a62565b91505060e083015184820360e0860152614f818282614a62565b915050610100830151848203610100860152614f9d8282614a62565b915050610120830151848203610120860152614fb98282614a62565b9150508091505092915050565b614fcf81614931565b82525050565b600082825260208201905092915050565b6000614ff182614a02565b614ffb8185614fd5565b935061500b818560208601614a1e565b61501481614a51565b840191505092915050565b600060c08201905061503460008301896148e7565b81810360208301526150468188614ed7565b90506150556040830187614fc6565b81810360608301526150678186614fe6565b905061507660808301856148e7565b61508360a08301846148e7565b979650505050505050565b600067ffffffffffffffff8211156150a9576150a8614cdc565b5b6150b282614a51565b9050602081019050919050565b60006150d26150cd8461508e565b614d3c565b9050828152602081018484840111156150ee576150ed614cd7565b5b6150f9848285614d88565b509392505050565b600082601f83011261511657615115614cd2565b5b81356151268482602086016150bf565b91505092915050565b600080604083850312156151465761514561487a565b5b6000615154858286016148a5565b925050602083013567ffffffffffffffff8111156151755761517461487f565b5b61518185828601615101565b9150509250929050565b60006020820190506151a06000830184614fc6565b92915050565b60008115159050919050565b6151bb816151a6565b82525050565b60006020820190506151d660008301846151b2565b92915050565b6151e5816149e6565b82525050565b600061014082019050615201600083018d614fc6565b61520e602083018c614fc6565b61521b604083018b6148e7565b615228606083018a6148e7565b61523560808301896148e7565b61524260a08301886151dc565b81810360c08301526152548187614fe6565b905081810360e08301526152688186614fe6565b905081810361010083015261527d8185614fe6565b90508181036101208301526152928184614fe6565b90509b9a5050505050505050505050565b6152ac816151a6565b81146152b757600080fd5b50565b6000813590506152c9816152a3565b92915050565b6000602082840312156152e5576152e461487a565b5b60006152f3848285016152ba565b91505092915050565b600081519050919050565b600082825260208201905092915050565b6000819050602082019050919050565b60006153348383614a9b565b905092915050565b6000602082019050919050565b6000615354826152fc565b61535e8185615307565b93508360208202850161537085615318565b8060005b858110156153ac578484038952815161538d8582615328565b94506153988361533c565b925060208a01995050600181019050615374565b50829750879550505050505092915050565b600060208201905081810360008301526153d88184615349565b905092915050565b6153e9816149e6565b81146153f457600080fd5b50565b600081359050615406816153e0565b92915050565b600080600080600080600080610100898b03121561542d5761542c61487a565b5b600061543b8b828c0161495a565b985050602061544c8b828c016148a5565b975050604061545d8b828c016148a5565b965050606061546e8b828c016153f7565b955050608089013567ffffffffffffffff81111561548f5761548e61487f565b5b61549b8b828c01615101565b94505060a089013567ffffffffffffffff8111156154bc576154bb61487f565b5b6154c88b828c01615101565b93505060c089013567ffffffffffffffff8111156154e9576154e861487f565b5b6154f58b828c01615101565b92505060e089013567ffffffffffffffff8111156155165761551561487f565b5b6155228b828c01615101565b9150509295985092959890939650565b7f7468697320706c616e20646f6573206e6f742065786973740000000000000000600082015250565b6000615568601883614fd5565b915061557382615532565b602082019050919050565b600060208201905081810360008301526155978161555b565b9050919050565b60006040820190506155b36000830185614fc6565b6155c06020830184614fc6565b9392505050565b6000815190506155d68161488e565b92915050565b6000602082840312156155f2576155f161487a565b5b6000615600848285016155c7565b91505092915050565b7f46756e6374696f6e206d7573742062652063616c6c6564207468726f7567682060008201527f64656c656761746563616c6c0000000000000000000000000000000000000000602082015250565b6000615665602c83614fd5565b915061567082615609565b604082019050919050565b6000602082019050818103600083015261569481615658565b9050919050565b7f46756e6374696f6e206d7573742062652063616c6c6564207468726f7567682060008201527f6163746976652070726f78790000000000000000000000000000000000000000602082015250565b60006156f7602c83614fd5565b91506157028261569b565b604082019050919050565b60006020820190508181036000830152615726816156ea565b9050919050565b7f617563756e65207375626372697074696f6e0000000000000000000000000000600082015250565b6000615763601283614fd5565b915061576e8261572d565b602082019050919050565b6000602082019050818103600083015261579281615756565b9050919050565b7f4e487b7100000000000000000000000000000000000000000000000000000000600052603260045260246000fd5b7f4e487b7100000000000000000000000000000000000000000000000000000000600052602260045260246000fd5b6000600282049050600182168061580f57607f821691505b60208210811415615823576158226157c8565b5b50919050565b7f4e487b7100000000000000000000000000000000000000000000000000000000600052601160045260246000fd5b600061586382614884565b91507fffffffffffffffffffffffffffffffffffffffffffffffffffffffffffffffff82141561589657615895615829565b5b600182019050919050565b7f7468697320737562736372697074696f6e20646f6573206e6f7420657869737460008201527f20616e642063616e6e6f742062652063616e63656c6c65640000000000000000602082015250565b60006158fd603883614fd5565b9150615908826158a1565b604082019050919050565b6000602082019050818103600083015261592c816158f0565b9050919050565b600061593e82614884565b915061594983614884565b92508282101561595c5761595b615829565b5b828203905092915050565b600061597282614884565b915061597d83614884565b9250827fffffffffffffffffffffffffffffffffffffffffffffffffffffffffffffffff038211156159b2576159b1615829565b5b828201905092915050565b7f4e487b7100000000000000000000000000000000000000000000000000000000600052603160045260246000fd5b7f555550535570677261646561626c653a206d757374206e6f742062652063616c60008201527f6c6564207468726f7567682064656c656761746563616c6c0000000000000000602082015250565b6000615a48603883614fd5565b9150615a53826159ec565b604082019050919050565b60006020820190508181036000830152615a7781615a3b565b9050919050565b7f496e697469616c697a61626c653a20636f6e747261637420697320616c72656160008201527f647920696e697469616c697a6564000000000000000000000000000000000000602082015250565b6000615ada602e83614fd5565b9150615ae582615a7e565b604082019050919050565b60006020820190508181036000830152615b0981615acd565b9050919050565b6000819050919050565b6000819050919050565b6000615b3f615b3a615b3584615b10565b615b1a565b6149e6565b9050919050565b615b4f81615b24565b82525050565b6000602082019050615b6a6000830184615b46565b92915050565b7f6e6f20796f7520646f6e2774206861766520617070726f766500000000000000600082015250565b6000615ba6601983614fd5565b9150615bb182615b70565b602082019050919050565b60006020820190508181036000830152615bd581615b99565b9050919050565b6000606082019050615bf16000830186614fc6565b615bfe6020830185614fc6565b615c0b60408301846148e7565b949350505050565b600081519050615c22816152a3565b92915050565b600060208284031215615c3e57615c3d61487a565b5b6000615c4c84828501615c13565b91505092915050565b60008160001c9050919050565b600073ffffffffffffffffffffffffffffffffffffffff82169050919050565b6000615c95615c9083615c55565b615c62565b9050919050565b6000819050919050565b6000615cb9615cb483615c55565b615c9c565b9050919050565b600060ff82169050919050565b6000615ce0615cdb83615c55565b615cc0565b9050919050565b60008190508160005260206000209050919050565b60008154615d09816157f7565b615d138186614a0d565b94506001821660008114615d2e5760018114615d4057615d73565b60ff1983168652602086019350615d73565b615d4985615ce7565b60005b83811015615d6b57815481890152600182019150602081019050615d4c565b808801955050505b50505092915050565b600061014083016000808401549050615d9481615c82565b615da160008701826149d7565b5060018401549050615db281615c82565b615dbf60208701826149d7565b5060028401549050615dd081615ca6565b615ddd60408701826149c8565b5060038401549050615dee81615ca6565b615dfb60608701826149c8565b5060048401549050615e0c81615ca6565b615e1960808701826149c8565b5060058401549050615e2a81615ccd565b615e3760a08701826149f3565b506006840185830360c0870152615e4e8382615cfc565b9250506007840185830360e0870152615e678382615cfc565b92505060088401858303610100870152615e818382615cfc565b92505060098401858303610120870152615e9b8382615cfc565b925050819250505092915050565b600060c083016000830151615ec160008601826149c8565b5060208301518482036020860152615ed98282614a9b565b9150506040830151615eee60408601826149d7565b5060608301518482036060860152615f068282614a62565b9150506080830151615f1b60808601826149c8565b5060a0830151615f2e60a08601826149c8565b508091505092915050565b6000608082019050615f4e6000830187614fc6565b8181036020830152615f608186615d7c565b90508181036040830152615f748185615ea9565b9050615f8360608301846148e7565b95945050505050565b7f7468697320737562736372697074696f6e20646f6573206e6f74206578697374600082015250565b6000615fc2602083614fd5565b9150615fcd82615f8c565b602082019050919050565b60006020820190508181036000830152615ff181615fb5565b9050919050565b7f6e6f742064756520796574000000000000000000000000000000000000000000600082015250565b600061602e600b83614fd5565b915061603982615ff8565b602082019050919050565b6000602082019050818103600083015261605d81616021565b9050919050565b7f617563756e20706c616e00000000000000000000000000000000000000000000600082015250565b600061609a600a83614fd5565b91506160a582616064565b602082019050919050565b600060208201905081810360008301526160c98161608d565b9050919050565b7f4f776e61626c653a206e6577206f776e657220697320746865207a65726f206160008201527f6464726573730000000000000000000000000000000000000000000000000000602082015250565b600061612c602683614fd5565b9150616137826160d0565b604082019050919050565b6000602082019050818103600083015261615b8161611f565b9050919050565b7f616464726573732063616e6e6f74206265206e756c6c20616464726573730000600082015250565b6000616198601e83614fd5565b91506161a382616162565b602082019050919050565b600060208201905081810360008301526161c78161618b565b9050919050565b7f616d6f756e74206e6565647320746f206265203e203000000000000000000000600082015250565b6000616204601683614fd5565b915061620f826161ce565b602082019050919050565b60006020820190508181036000830152616233816161f7565b9050919050565b7f6672657175656e6379206e6565647320746f206265203e203000000000000000600082015250565b6000616270601983614fd5565b915061627b8261623a565b602082019050919050565b6000602082019050818103600083015261629f81616263565b9050919050565b6162af81614e63565b81146162ba57600080fd5b50565b6000815190506162cc816162a6565b92915050565b6000602082840312156162e8576162e761487a565b5b60006162f6848285016162bd565b91505092915050565b7f45524331393637557067726164653a206e657720696d706c656d656e7461746960008201527f6f6e206973206e6f742055555053000000000000000000000000000000000000602082015250565b600061635b602e83614fd5565b9150616366826162ff565b604082019050919050565b6000602082019050818103600083015261638a8161634e565b9050919050565b7f45524331393637557067726164653a20756e737570706f727465642070726f7860008201527f6961626c65555549440000000000000000000000000000000000000000000000602082015250565b60006163ed602983614fd5565b91506163f882616391565b604082019050919050565b6000602082019050818103600083015261641c816163e0565b9050919050565b7f4f776e61626c653a2063616c6c6572206973206e6f7420746865206f776e6572600082015250565b6000616459602083614fd5565b915061646482616423565b602082019050919050565b600060208201905081810360008301526164888161644c565b9050919050565b7f455243313936373a206e657720696d706c656d656e746174696f6e206973206e60008201527f6f74206120636f6e747261637400000000000000000000000000000000000000602082015250565b60006164eb602d83614fd5565b91506164f68261648f565b604082019050919050565b6000602082019050818103600083015261651a816164de565b9050919050565b7f496e697469616c697a61626c653a20636f6e7472616374206973206e6f74206960008201527f6e697469616c697a696e67000000000000000000000000000000000000000000602082015250565b600061657d602b83614fd5565b915061658882616521565b604082019050919050565b600060208201905081810360008301526165ac81616570565b9050919050565b7f416464726573733a2064656c65676174652063616c6c20746f206e6f6e2d636f60008201527f6e74726163740000000000000000000000000000000000000000000000000000602082015250565b600061660f602683614fd5565b915061661a826165b3565b604082019050919050565b6000602082019050818103600083015261663e81616602565b9050919050565b600081519050919050565b600081905092915050565b600061666682616645565b6166708185616650565b9350616680818560208601614a1e565b80840191505092915050565b6000616698828461665b565b915081905092915050565b600060208201905081810360008301526166bd8184614fe6565b90509291505056fe416464726573733a206c6f772d6c6576656c2064656c65676174652063616c6c206661696c6564a264697066735822122051de930659606f1bf6794c8159e181d31994b53b1c51bf67410052ef4693851964736f6c63430008090033",
  "linkReferences": {},
  "deployedLinkReferences": {}
}