{
  "_format": "hh-sol-artifact-1",
  "contractName": "Payment",
  "sourceName": "contracts/Payment.sol",
  "abi": [
    {
      "inputs": [],
      "stateMutability": "payable",
      "type": "constructor"
    },
    {
      "anonymous": false,
      "inputs": [
        {
          "indexed": false,
          "internalType": "address",
          "name": "from",
          "type": "address"
        },
        {
          "indexed": false,
          "internalType": "address",
          "name": "to",
          "type": "address"
        },
        {
          "indexed": false,
          "internalType": "uint256",
          "name": "amount",
          "type": "uint256"
        },
        {
          "indexed": false,
          "internalType": "uint256",
          "name": "planId",
          "type": "uint256"
        },
        {
          "indexed": false,
          "internalType": "uint256",
          "name": "date",
          "type": "uint256"
        }
      ],
      "name": "PaymentSent",
      "type": "event"
    },
    {
      "anonymous": false,
      "inputs": [
        {
          "indexed": false,
          "internalType": "address",
          "name": "merchant",
          "type": "address"
        },
        {
          "indexed": false,
          "internalType": "uint256",
          "name": "planId",
          "type": "uint256"
        },
        {
          "indexed": false,
          "internalType": "uint256",
          "name": "date",
          "type": "uint256"
        }
      ],
      "name": "PlanCreated",
      "type": "event"
    },
    {
      "anonymous": false,
      "inputs": [
        {
          "indexed": false,
          "internalType": "address",
          "name": "subscriber",
          "type": "address"
        },
        {
          "indexed": false,
          "internalType": "uint256",
          "name": "planId",
          "type": "uint256"
        },
        {
          "indexed": false,
          "internalType": "uint256",
          "name": "date",
          "type": "uint256"
        }
      ],
      "name": "SubscriptionCancelled",
      "type": "event"
    },
    {
      "anonymous": false,
      "inputs": [
        {
          "indexed": false,
          "internalType": "address",
          "name": "subscriber",
          "type": "address"
        },
        {
          "components": [
            {
              "internalType": "address",
              "name": "merchant",
              "type": "address"
            },
            {
              "internalType": "address",
              "name": "token",
              "type": "address"
            },
            {
              "internalType": "uint256",
              "name": "planId",
              "type": "uint256"
            },
            {
              "internalType": "uint256",
              "name": "amount",
              "type": "uint256"
            },
            {
              "internalType": "uint256",
              "name": "frequency",
              "type": "uint256"
            },
            {
              "internalType": "enum Payment.PlanTypes",
              "name": "planType",
              "type": "uint8"
            },
            {
              "internalType": "string",
              "name": "planTypeInfos",
              "type": "string"
            },
            {
              "internalType": "string",
              "name": "planName",
              "type": "string"
            },
            {
              "internalType": "string",
              "name": "merchantName",
              "type": "string"
            },
            {
              "internalType": "string",
              "name": "tokenName",
              "type": "string"
            }
          ],
          "indexed": false,
          "internalType": "struct Payment.Plan",
          "name": "plan",
          "type": "tuple"
        },
        {
          "components": [
            {
              "internalType": "uint256",
              "name": "subscriptionId",
              "type": "uint256"
            },
            {
              "components": [
                {
                  "internalType": "address",
                  "name": "merchant",
                  "type": "address"
                },
                {
                  "internalType": "address",
                  "name": "token",
                  "type": "address"
                },
                {
                  "internalType": "uint256",
                  "name": "planId",
                  "type": "uint256"
                },
                {
                  "internalType": "uint256",
                  "name": "amount",
                  "type": "uint256"
                },
                {
                  "internalType": "uint256",
                  "name": "frequency",
                  "type": "uint256"
                },
                {
                  "internalType": "enum Payment.PlanTypes",
                  "name": "planType",
                  "type": "uint8"
                },
                {
                  "internalType": "string",
                  "name": "planTypeInfos",
                  "type": "string"
                },
                {
                  "internalType": "string",
                  "name": "planName",
                  "type": "string"
                },
                {
                  "internalType": "string",
                  "name": "merchantName",
                  "type": "string"
                },
                {
                  "internalType": "string",
                  "name": "tokenName",
                  "type": "string"
                }
              ],
              "internalType": "struct Payment.Plan",
              "name": "plan",
              "type": "tuple"
            },
            {
              "internalType": "address",
              "name": "subscriber",
              "type": "address"
            },
            {
              "internalType": "string",
              "name": "subscriberInfos",
              "type": "string"
            },
            {
              "internalType": "uint256",
              "name": "start",
              "type": "uint256"
            },
            {
              "internalType": "uint256",
              "name": "nextPayment",
              "type": "uint256"
            }
          ],
          "indexed": false,
          "internalType": "struct Payment.Subscription",
          "name": "subscription",
          "type": "tuple"
        },
        {
          "indexed": false,
          "internalType": "uint256",
          "name": "date",
          "type": "uint256"
        }
      ],
      "name": "SubscriptionCreated",
      "type": "event"
    },
    {
      "inputs": [
        {
          "internalType": "uint256",
          "name": "planId",
          "type": "uint256"
        }
      ],
      "name": "allowance",
      "outputs": [
        {
          "internalType": "uint256",
          "name": "success",
          "type": "uint256"
        }
      ],
      "stateMutability": "view",
      "type": "function"
    },
    {
      "inputs": [
        {
          "internalType": "uint256",
          "name": "planId",
          "type": "uint256"
        }
      ],
      "name": "cancel",
      "outputs": [],
      "stateMutability": "nonpayable",
      "type": "function"
    },
    {
      "inputs": [
        {
          "internalType": "address",
          "name": "token",
          "type": "address"
        },
        {
          "internalType": "uint256",
          "name": "amount",
          "type": "uint256"
        },
        {
          "internalType": "uint256",
          "name": "frequency",
          "type": "uint256"
        },
        {
          "internalType": "enum Payment.PlanTypes",
          "name": "planType",
          "type": "uint8"
        },
        {
          "internalType": "string",
          "name": "planTypeInfos",
          "type": "string"
        },
        {
          "internalType": "string",
          "name": "tokenName",
          "type": "string"
        },
        {
          "internalType": "string",
          "name": "planName",
          "type": "string"
        },
        {
          "internalType": "string",
          "name": "merchantName",
          "type": "string"
        }
      ],
      "name": "createPlan",
      "outputs": [],
      "stateMutability": "nonpayable",
      "type": "function"
    },
    {
      "inputs": [],
      "name": "getAllPlans",
      "outputs": [
        {
          "components": [
            {
              "internalType": "address",
              "name": "merchant",
              "type": "address"
            },
            {
              "internalType": "address",
              "name": "token",
              "type": "address"
            },
            {
              "internalType": "uint256",
              "name": "planId",
              "type": "uint256"
            },
            {
              "internalType": "uint256",
              "name": "amount",
              "type": "uint256"
            },
            {
              "internalType": "uint256",
              "name": "frequency",
              "type": "uint256"
            },
            {
              "internalType": "enum Payment.PlanTypes",
              "name": "planType",
              "type": "uint8"
            },
            {
              "internalType": "string",
              "name": "planTypeInfos",
              "type": "string"
            },
            {
              "internalType": "string",
              "name": "planName",
              "type": "string"
            },
            {
              "internalType": "string",
              "name": "merchantName",
              "type": "string"
            },
            {
              "internalType": "string",
              "name": "tokenName",
              "type": "string"
            }
          ],
          "internalType": "struct Payment.Plan[]",
          "name": "",
          "type": "tuple[]"
        }
      ],
      "stateMutability": "view",
      "type": "function"
    },
    {
      "inputs": [],
      "name": "getAllSubscriptions",
      "outputs": [
        {
          "components": [
            {
              "internalType": "uint256",
              "name": "subscriptionId",
              "type": "uint256"
            },
            {
              "components": [
                {
                  "internalType": "address",
                  "name": "merchant",
                  "type": "address"
                },
                {
                  "internalType": "address",
                  "name": "token",
                  "type": "address"
                },
                {
                  "internalType": "uint256",
                  "name": "planId",
                  "type": "uint256"
                },
                {
                  "internalType": "uint256",
                  "name": "amount",
                  "type": "uint256"
                },
                {
                  "internalType": "uint256",
                  "name": "frequency",
                  "type": "uint256"
                },
                {
                  "internalType": "enum Payment.PlanTypes",
                  "name": "planType",
                  "type": "uint8"
                },
                {
                  "internalType": "string",
                  "name": "planTypeInfos",
                  "type": "string"
                },
                {
                  "internalType": "string",
                  "name": "planName",
                  "type": "string"
                },
                {
                  "internalType": "string",
                  "name": "merchantName",
                  "type": "string"
                },
                {
                  "internalType": "string",
                  "name": "tokenName",
                  "type": "string"
                }
              ],
              "internalType": "struct Payment.Plan",
              "name": "plan",
              "type": "tuple"
            },
            {
              "internalType": "address",
              "name": "subscriber",
              "type": "address"
            },
            {
              "internalType": "string",
              "name": "subscriberInfos",
              "type": "string"
            },
            {
              "internalType": "uint256",
              "name": "start",
              "type": "uint256"
            },
            {
              "internalType": "uint256",
              "name": "nextPayment",
              "type": "uint256"
            }
          ],
          "internalType": "struct Payment.Subscription[]",
          "name": "",
          "type": "tuple[]"
        }
      ],
      "stateMutability": "view",
      "type": "function"
    },
    {
      "inputs": [],
      "name": "getPlans",
      "outputs": [
        {
          "components": [
            {
              "internalType": "address",
              "name": "merchant",
              "type": "address"
            },
            {
              "internalType": "address",
              "name": "token",
              "type": "address"
            },
            {
              "internalType": "uint256",
              "name": "planId",
              "type": "uint256"
            },
            {
              "internalType": "uint256",
              "name": "amount",
              "type": "uint256"
            },
            {
              "internalType": "uint256",
              "name": "frequency",
              "type": "uint256"
            },
            {
              "internalType": "enum Payment.PlanTypes",
              "name": "planType",
              "type": "uint8"
            },
            {
              "internalType": "string",
              "name": "planTypeInfos",
              "type": "string"
            },
            {
              "internalType": "string",
              "name": "planName",
              "type": "string"
            },
            {
              "internalType": "string",
              "name": "merchantName",
              "type": "string"
            },
            {
              "internalType": "string",
              "name": "tokenName",
              "type": "string"
            }
          ],
          "internalType": "struct Payment.Plan[]",
          "name": "",
          "type": "tuple[]"
        }
      ],
      "stateMutability": "view",
      "type": "function"
    },
    {
      "inputs": [],
      "name": "getSubscriptions",
      "outputs": [
        {
          "components": [
            {
              "internalType": "uint256",
              "name": "subscriptionId",
              "type": "uint256"
            },
            {
              "components": [
                {
                  "internalType": "address",
                  "name": "merchant",
                  "type": "address"
                },
                {
                  "internalType": "address",
                  "name": "token",
                  "type": "address"
                },
                {
                  "internalType": "uint256",
                  "name": "planId",
                  "type": "uint256"
                },
                {
                  "internalType": "uint256",
                  "name": "amount",
                  "type": "uint256"
                },
                {
                  "internalType": "uint256",
                  "name": "frequency",
                  "type": "uint256"
                },
                {
                  "internalType": "enum Payment.PlanTypes",
                  "name": "planType",
                  "type": "uint8"
                },
                {
                  "internalType": "string",
                  "name": "planTypeInfos",
                  "type": "string"
                },
                {
                  "internalType": "string",
                  "name": "planName",
                  "type": "string"
                },
                {
                  "internalType": "string",
                  "name": "merchantName",
                  "type": "string"
                },
                {
                  "internalType": "string",
                  "name": "tokenName",
                  "type": "string"
                }
              ],
              "internalType": "struct Payment.Plan",
              "name": "plan",
              "type": "tuple"
            },
            {
              "internalType": "address",
              "name": "subscriber",
              "type": "address"
            },
            {
              "internalType": "string",
              "name": "subscriberInfos",
              "type": "string"
            },
            {
              "internalType": "uint256",
              "name": "start",
              "type": "uint256"
            },
            {
              "internalType": "uint256",
              "name": "nextPayment",
              "type": "uint256"
            }
          ],
          "internalType": "struct Payment.Subscription[]",
          "name": "",
          "type": "tuple[]"
        }
      ],
      "stateMutability": "view",
      "type": "function"
    },
    {
      "inputs": [
        {
          "internalType": "uint256",
          "name": "planId",
          "type": "uint256"
        }
      ],
      "name": "isPayable",
      "outputs": [
        {
          "internalType": "bool",
          "name": "success",
          "type": "bool"
        }
      ],
      "stateMutability": "view",
      "type": "function"
    },
    {
      "inputs": [],
      "name": "nextPlanId",
      "outputs": [
        {
          "internalType": "uint256",
          "name": "",
          "type": "uint256"
        }
      ],
      "stateMutability": "view",
      "type": "function"
    },
    {
      "inputs": [],
      "name": "nextSubscriptionId",
      "outputs": [
        {
          "internalType": "uint256",
          "name": "",
          "type": "uint256"
        }
      ],
      "stateMutability": "view",
      "type": "function"
    },
    {
      "inputs": [
        {
          "internalType": "address",
          "name": "subscriber",
          "type": "address"
        },
        {
          "internalType": "uint256",
          "name": "planId",
          "type": "uint256"
        }
      ],
      "name": "pay",
      "outputs": [],
      "stateMutability": "nonpayable",
      "type": "function"
    },
    {
      "inputs": [
        {
          "internalType": "uint256",
          "name": "",
          "type": "uint256"
        }
      ],
      "name": "plans",
      "outputs": [
        {
          "internalType": "address",
          "name": "merchant",
          "type": "address"
        },
        {
          "internalType": "address",
          "name": "token",
          "type": "address"
        },
        {
          "internalType": "uint256",
          "name": "planId",
          "type": "uint256"
        },
        {
          "internalType": "uint256",
          "name": "amount",
          "type": "uint256"
        },
        {
          "internalType": "uint256",
          "name": "frequency",
          "type": "uint256"
        },
        {
          "internalType": "enum Payment.PlanTypes",
          "name": "planType",
          "type": "uint8"
        },
        {
          "internalType": "string",
          "name": "planTypeInfos",
          "type": "string"
        },
        {
          "internalType": "string",
          "name": "planName",
          "type": "string"
        },
        {
          "internalType": "string",
          "name": "merchantName",
          "type": "string"
        },
        {
          "internalType": "string",
          "name": "tokenName",
          "type": "string"
        }
      ],
      "stateMutability": "view",
      "type": "function"
    },
    {
      "inputs": [
        {
          "internalType": "uint256",
          "name": "planId",
          "type": "uint256"
        },
        {
          "internalType": "string",
          "name": "customData",
          "type": "string"
        }
      ],
      "name": "subscribe",
      "outputs": [],
      "stateMutability": "nonpayable",
      "type": "function"
    },
    {
      "inputs": [
        {
          "internalType": "address",
          "name": "",
          "type": "address"
        },
        {
          "internalType": "uint256",
          "name": "",
          "type": "uint256"
        }
      ],
      "name": "subscriptions",
      "outputs": [
        {
          "internalType": "uint256",
          "name": "subscriptionId",
          "type": "uint256"
        },
        {
          "components": [
            {
              "internalType": "address",
              "name": "merchant",
              "type": "address"
            },
            {
              "internalType": "address",
              "name": "token",
              "type": "address"
            },
            {
              "internalType": "uint256",
              "name": "planId",
              "type": "uint256"
            },
            {
              "internalType": "uint256",
              "name": "amount",
              "type": "uint256"
            },
            {
              "internalType": "uint256",
              "name": "frequency",
              "type": "uint256"
            },
            {
              "internalType": "enum Payment.PlanTypes",
              "name": "planType",
              "type": "uint8"
            },
            {
              "internalType": "string",
              "name": "planTypeInfos",
              "type": "string"
            },
            {
              "internalType": "string",
              "name": "planName",
              "type": "string"
            },
            {
              "internalType": "string",
              "name": "merchantName",
              "type": "string"
            },
            {
              "internalType": "string",
              "name": "tokenName",
              "type": "string"
            }
          ],
          "internalType": "struct Payment.Plan",
          "name": "plan",
          "type": "tuple"
        },
        {
          "internalType": "address",
          "name": "subscriber",
          "type": "address"
        },
        {
          "internalType": "string",
          "name": "subscriberInfos",
          "type": "string"
        },
        {
          "internalType": "uint256",
          "name": "start",
          "type": "uint256"
        },
        {
          "internalType": "uint256",
          "name": "nextPayment",
          "type": "uint256"
        }
      ],
      "stateMutability": "view",
      "type": "function"
    }
  ],
  "bytecode": "0x6080604052615352806100136000396000f3fe608060405234801561001057600080fd5b50600436106100ea5760003560e01c806398de396a1161008c578063c407687611610066578063c40768761461026d578063d94a862b14610289578063da58935f146102a7578063fedc7445146102c5576100ea565b806398de396a146101e65780639f7d647d14610204578063b162061614610234576100ea565b806356eb00a1116100c857806356eb00a1146101595780635f8d26b214610177578063623da3d11461019557806386d4fbd3146101ca576100ea565b80632e43d7dc146100ef5780633b47a9ac1461011f57806340e58ee51461013d575b600080fd5b61010960048036038101906101049190613d97565b6102e1565b6040516101169190613dd3565b60405180910390f35b61012761052b565b604051610134919061418f565b60405180910390f35b61015760048036038101906101529190613d97565b610b78565b005b610161610e02565b60405161016e919061418f565b60405180910390f35b61017f6113fd565b60405161018c9190613dd3565b60405180910390f35b6101af60048036038101906101aa91906141dd565b611403565b6040516101c196959493929190614365565b60405180910390f35b6101e460048036038101906101df9190614509565b61184c565b005b6101ee6123c5565b6040516101fb9190614627565b60405180910390f35b61021e60048036038101906102199190613d97565b612819565b60405161022b9190614664565b60405180910390f35b61024e60048036038101906102499190613d97565b612b84565b6040516102649a9998979695949392919061468e565b60405180910390f35b610287600480360381019061028291906141dd565b612e45565b005b610291613139565b60405161029e9190614627565b60405180910390f35b6102af61362f565b6040516102bc9190613dd3565b60405180910390f35b6102df60048036038101906102da919061476b565b613635565b005b6000806002600084815260200190815260200160002060010160009054906101000a900473ffffffffffffffffffffffffffffffffffffffff1690506000600260008581526020019081526020016000209050600073ffffffffffffffffffffffffffffffffffffffff168160000160009054906101000a900473ffffffffffffffffffffffffffffffffffffffff1673ffffffffffffffffffffffffffffffffffffffff1614156103c8576040517f08c379a00000000000000000000000000000000000000000000000000000000081526004016103bf906148dd565b60405180910390fd5b6104976040518060400160405280600c81526020017f2573203a202573203e2025730000000000000000000000000000000000000000815250338473ffffffffffffffffffffffffffffffffffffffff1663dd62ed3e33306040518363ffffffff1660e01b815260040161043d9291906148fd565b60206040518083038186803b15801561045557600080fd5b505afa158015610469573d6000803e3d6000fd5b505050506040513d601f19601f8201168201806040525081019061048d919061493b565b8460030154613a1d565b8173ffffffffffffffffffffffffffffffffffffffff1663dd62ed3e33306040518363ffffffff1660e01b81526004016104d29291906148fd565b60206040518083038186803b1580156104ea57600080fd5b505afa1580156104fe573d6000803e3d6000fd5b505050506040513d601f19601f82011682018060405250810190610522919061493b565b92505050919050565b60606000600560003373ffffffffffffffffffffffffffffffffffffffff1673ffffffffffffffffffffffffffffffffffffffff168152602001908152602001600020805490509050600081116105b7576040517f08c379a00000000000000000000000000000000000000000000000000000000081526004016105ae906149b4565b60405180910390fd5b60008167ffffffffffffffff8111156105d3576105d26143de565b5b60405190808252806020026020018201604052801561060c57816020015b6105f9613b87565b8152602001906001900390816105f15790505b50905060005b82811015610b6f576000600560003373ffffffffffffffffffffffffffffffffffffffff1673ffffffffffffffffffffffffffffffffffffffff168152602001908152602001600020828154811061066d5761066c6149d4565b5b90600052602060002001549050600460003373ffffffffffffffffffffffffffffffffffffffff1673ffffffffffffffffffffffffffffffffffffffff16815260200190815260200160002060008281526020019081526020016000206040518060c00160405290816000820154815260200160018201604051806101400160405290816000820160009054906101000a900473ffffffffffffffffffffffffffffffffffffffff1673ffffffffffffffffffffffffffffffffffffffff1673ffffffffffffffffffffffffffffffffffffffff1681526020016001820160009054906101000a900473ffffffffffffffffffffffffffffffffffffffff1673ffffffffffffffffffffffffffffffffffffffff1673ffffffffffffffffffffffffffffffffffffffff1681526020016002820154815260200160038201548152602001600482015481526020016005820160009054906101000a900460ff1660038111156107df576107de613e6a565b5b60038111156107f1576107f0613e6a565b5b815260200160068201805461080590614a32565b80601f016020809104026020016040519081016040528092919081815260200182805461083190614a32565b801561087e5780601f106108535761010080835404028352916020019161087e565b820191906000526020600020905b81548152906001019060200180831161086157829003601f168201915b5050505050815260200160078201805461089790614a32565b80601f01602080910402602001604051908101604052809291908181526020018280546108c390614a32565b80156109105780601f106108e557610100808354040283529160200191610910565b820191906000526020600020905b8154815290600101906020018083116108f357829003601f168201915b5050505050815260200160088201805461092990614a32565b80601f016020809104026020016040519081016040528092919081815260200182805461095590614a32565b80156109a25780601f10610977576101008083540402835291602001916109a2565b820191906000526020600020905b81548152906001019060200180831161098557829003601f168201915b505050505081526020016009820180546109bb90614a32565b80601f01602080910402602001604051908101604052809291908181526020018280546109e790614a32565b8015610a345780601f10610a0957610100808354040283529160200191610a34565b820191906000526020600020905b815481529060010190602001808311610a1757829003601f168201915b5050505050815250508152602001600b820160009054906101000a900473ffffffffffffffffffffffffffffffffffffffff1673ffffffffffffffffffffffffffffffffffffffff1673ffffffffffffffffffffffffffffffffffffffff168152602001600c82018054610aa790614a32565b80601f0160208091040260200160405190810160405280929190818152602001828054610ad390614a32565b8015610b205780601f10610af557610100808354040283529160200191610b20565b820191906000526020600020905b815481529060010190602001808311610b0357829003601f168201915b50505050508152602001600d8201548152602001600e82015481525050838381518110610b5057610b4f6149d4565b5b6020026020010181905250508080610b6790614a93565b915050610612565b50809250505090565b6000600460003373ffffffffffffffffffffffffffffffffffffffff1673ffffffffffffffffffffffffffffffffffffffff16815260200190815260200160002060008381526020019081526020016000209050600073ffffffffffffffffffffffffffffffffffffffff1681600b0160009054906101000a900473ffffffffffffffffffffffffffffffffffffffff1673ffffffffffffffffffffffffffffffffffffffff161415610c60576040517f08c379a0000000000000000000000000000000000000000000000000000000008152600401610c5790614b28565b60405180910390fd5b600460003373ffffffffffffffffffffffffffffffffffffffff1673ffffffffffffffffffffffffffffffffffffffff168152602001908152602001600020600083815260200190815260200160002060008082016000905560018201600080820160006101000a81549073ffffffffffffffffffffffffffffffffffffffff02191690556001820160006101000a81549073ffffffffffffffffffffffffffffffffffffffff02191690556002820160009055600382016000905560048201600090556005820160006101000a81549060ff0219169055600682016000610d489190613bd9565b600782016000610d589190613bd9565b600882016000610d689190613bd9565b600982016000610d789190613bd9565b5050600b820160006101000a81549073ffffffffffffffffffffffffffffffffffffffff0219169055600c82016000610db19190613bd9565b600d820160009055600e82016000905550507fde4047f3bd050ef9b8743c61b37fd72275056d1ccb33d1eb3f22c80cb14df289338342604051610df693929190614b48565b60405180910390a15050565b60606000600154905060008111610e4e576040517f08c379a0000000000000000000000000000000000000000000000000000000008152600401610e45906149b4565b60405180910390fd5b60008167ffffffffffffffff811115610e6a57610e696143de565b5b604051908082528060200260200182016040528015610ea357816020015b610e90613b87565b815260200190600190039081610e885790505b50905060005b828110156113f4576004600060066000848152602001908152602001600020600b0160009054906101000a900473ffffffffffffffffffffffffffffffffffffffff1673ffffffffffffffffffffffffffffffffffffffff1673ffffffffffffffffffffffffffffffffffffffff1681526020019081526020016000206000600660008481526020019081526020016000206001016002015481526020019081526020016000206040518060c00160405290816000820154815260200160018201604051806101400160405290816000820160009054906101000a900473ffffffffffffffffffffffffffffffffffffffff1673ffffffffffffffffffffffffffffffffffffffff1673ffffffffffffffffffffffffffffffffffffffff1681526020016001820160009054906101000a900473ffffffffffffffffffffffffffffffffffffffff1673ffffffffffffffffffffffffffffffffffffffff1673ffffffffffffffffffffffffffffffffffffffff1681526020016002820154815260200160038201548152602001600482015481526020016005820160009054906101000a900460ff16600381111561106557611064613e6a565b5b600381111561107757611076613e6a565b5b815260200160068201805461108b90614a32565b80601f01602080910402602001604051908101604052809291908181526020018280546110b790614a32565b80156111045780601f106110d957610100808354040283529160200191611104565b820191906000526020600020905b8154815290600101906020018083116110e757829003601f168201915b5050505050815260200160078201805461111d90614a32565b80601f016020809104026020016040519081016040528092919081815260200182805461114990614a32565b80156111965780601f1061116b57610100808354040283529160200191611196565b820191906000526020600020905b81548152906001019060200180831161117957829003601f168201915b505050505081526020016008820180546111af90614a32565b80601f01602080910402602001604051908101604052809291908181526020018280546111db90614a32565b80156112285780601f106111fd57610100808354040283529160200191611228565b820191906000526020600020905b81548152906001019060200180831161120b57829003601f168201915b5050505050815260200160098201805461124190614a32565b80601f016020809104026020016040519081016040528092919081815260200182805461126d90614a32565b80156112ba5780601f1061128f576101008083540402835291602001916112ba565b820191906000526020600020905b81548152906001019060200180831161129d57829003601f168201915b5050505050815250508152602001600b820160009054906101000a900473ffffffffffffffffffffffffffffffffffffffff1673ffffffffffffffffffffffffffffffffffffffff1673ffffffffffffffffffffffffffffffffffffffff168152602001600c8201805461132d90614a32565b80601f016020809104026020016040519081016040528092919081815260200182805461135990614a32565b80156113a65780601f1061137b576101008083540402835291602001916113a6565b820191906000526020600020905b81548152906001019060200180831161138957829003601f168201915b50505050508152602001600d8201548152602001600e820154815250508282815181106113d6576113d56149d4565b5b602002602001018190525080806113ec90614a93565b915050610ea9565b50809250505090565b60005481565b60046020528160005260406000206020528060005260406000206000915091505080600001549080600101604051806101400160405290816000820160009054906101000a900473ffffffffffffffffffffffffffffffffffffffff1673ffffffffffffffffffffffffffffffffffffffff1673ffffffffffffffffffffffffffffffffffffffff1681526020016001820160009054906101000a900473ffffffffffffffffffffffffffffffffffffffff1673ffffffffffffffffffffffffffffffffffffffff1673ffffffffffffffffffffffffffffffffffffffff1681526020016002820154815260200160038201548152602001600482015481526020016005820160009054906101000a900460ff16600381111561152957611528613e6a565b5b600381111561153b5761153a613e6a565b5b815260200160068201805461154f90614a32565b80601f016020809104026020016040519081016040528092919081815260200182805461157b90614a32565b80156115c85780601f1061159d576101008083540402835291602001916115c8565b820191906000526020600020905b8154815290600101906020018083116115ab57829003601f168201915b505050505081526020016007820180546115e190614a32565b80601f016020809104026020016040519081016040528092919081815260200182805461160d90614a32565b801561165a5780601f1061162f5761010080835404028352916020019161165a565b820191906000526020600020905b81548152906001019060200180831161163d57829003601f168201915b5050505050815260200160088201805461167390614a32565b80601f016020809104026020016040519081016040528092919081815260200182805461169f90614a32565b80156116ec5780601f106116c1576101008083540402835291602001916116ec565b820191906000526020600020905b8154815290600101906020018083116116cf57829003601f168201915b5050505050815260200160098201805461170590614a32565b80601f016020809104026020016040519081016040528092919081815260200182805461173190614a32565b801561177e5780601f106117535761010080835404028352916020019161177e565b820191906000526020600020905b81548152906001019060200180831161176157829003601f168201915b5050505050815250509080600b0160009054906101000a900473ffffffffffffffffffffffffffffffffffffffff169080600c0180546117bd90614a32565b80601f01602080910402602001604051908101604052809291908181526020018280546117e990614a32565b80156118365780601f1061180b57610100808354040283529160200191611836565b820191906000526020600020905b81548152906001019060200180831161181957829003601f168201915b50505050509080600d01549080600e0154905086565b60006002600084815260200190815260200160002060010160009054906101000a900473ffffffffffffffffffffffffffffffffffffffff1690506000600260008581526020019081526020016000209050600073ffffffffffffffffffffffffffffffffffffffff168160000160009054906101000a900473ffffffffffffffffffffffffffffffffffffffff1673ffffffffffffffffffffffffffffffffffffffff161415611932576040517f08c379a0000000000000000000000000000000000000000000000000000000008152600401611929906148dd565b60405180910390fd5b60008273ffffffffffffffffffffffffffffffffffffffff1663dd62ed3e33306040518363ffffffff1660e01b815260040161196f9291906148fd565b60206040518083038186803b15801561198757600080fd5b505afa15801561199b573d6000803e3d6000fd5b505050506040513d601f19601f820116820180604052508101906119bf919061493b565b905081600301548111611a07576040517f08c379a00000000000000000000000000000000000000000000000000000000081526004016119fe90614bcb565b60405180910390fd5b8273ffffffffffffffffffffffffffffffffffffffff166323b872dd338460000160009054906101000a900473ffffffffffffffffffffffffffffffffffffffff1685600301546040518463ffffffff1660e01b8152600401611a6c93929190614beb565b602060405180830381600087803b158015611a8657600080fd5b505af1158015611a9a573d6000803e3d6000fd5b505050506040513d601f19601f82011682018060405250810190611abe9190614c4e565b507f577462848cc2ec95e5ef95bf0b154b97340221cd1002ea0511a3877a7f20fb8c338360000160009054906101000a900473ffffffffffffffffffffffffffffffffffffffff1684600301548842604051611b1e959493929190614c7b565b60405180910390a160006040518060c00160405280600154815260200184604051806101400160405290816000820160009054906101000a900473ffffffffffffffffffffffffffffffffffffffff1673ffffffffffffffffffffffffffffffffffffffff1673ffffffffffffffffffffffffffffffffffffffff1681526020016001820160009054906101000a900473ffffffffffffffffffffffffffffffffffffffff1673ffffffffffffffffffffffffffffffffffffffff1673ffffffffffffffffffffffffffffffffffffffff1681526020016002820154815260200160038201548152602001600482015481526020016005820160009054906101000a900460ff166003811115611c3757611c36613e6a565b5b6003811115611c4957611c48613e6a565b5b8152602001600682018054611c5d90614a32565b80601f0160208091040260200160405190810160405280929190818152602001828054611c8990614a32565b8015611cd65780601f10611cab57610100808354040283529160200191611cd6565b820191906000526020600020905b815481529060010190602001808311611cb957829003601f168201915b50505050508152602001600782018054611cef90614a32565b80601f0160208091040260200160405190810160405280929190818152602001828054611d1b90614a32565b8015611d685780601f10611d3d57610100808354040283529160200191611d68565b820191906000526020600020905b815481529060010190602001808311611d4b57829003601f168201915b50505050508152602001600882018054611d8190614a32565b80601f0160208091040260200160405190810160405280929190818152602001828054611dad90614a32565b8015611dfa5780601f10611dcf57610100808354040283529160200191611dfa565b820191906000526020600020905b815481529060010190602001808311611ddd57829003601f168201915b50505050508152602001600982018054611e1390614a32565b80601f0160208091040260200160405190810160405280929190818152602001828054611e3f90614a32565b8015611e8c5780601f10611e6157610100808354040283529160200191611e8c565b820191906000526020600020905b815481529060010190602001808311611e6f57829003601f168201915b50505050508152505081526020013373ffffffffffffffffffffffffffffffffffffffff168152602001868152602001428152602001846004015442611ed29190614cce565b815250905080600460003373ffffffffffffffffffffffffffffffffffffffff1673ffffffffffffffffffffffffffffffffffffffff16815260200190815260200160002060008881526020019081526020016000206000820151816000015560208201518160010160008201518160000160006101000a81548173ffffffffffffffffffffffffffffffffffffffff021916908373ffffffffffffffffffffffffffffffffffffffff16021790555060208201518160010160006101000a81548173ffffffffffffffffffffffffffffffffffffffff021916908373ffffffffffffffffffffffffffffffffffffffff16021790555060408201518160020155606082015181600301556080820151816004015560a08201518160050160006101000a81548160ff0219169083600381111561201257612011613e6a565b5b021790555060c0820151816006019080519060200190612033929190613c19565b5060e0820151816007019080519060200190612050929190613c19565b5061010082015181600801908051906020019061206e929190613c19565b5061012082015181600901908051906020019061208c929190613c19565b505050604082015181600b0160006101000a81548173ffffffffffffffffffffffffffffffffffffffff021916908373ffffffffffffffffffffffffffffffffffffffff160217905550606082015181600c0190805190602001906120f2929190613c19565b50608082015181600d015560a082015181600e0155905050600560003373ffffffffffffffffffffffffffffffffffffffff1673ffffffffffffffffffffffffffffffffffffffff168152602001908152602001600020869080600181540180825580915050600190039060005260206000200160009091909190915055806006600060015481526020019081526020016000206000820151816000015560208201518160010160008201518160000160006101000a81548173ffffffffffffffffffffffffffffffffffffffff021916908373ffffffffffffffffffffffffffffffffffffffff16021790555060208201518160010160006101000a81548173ffffffffffffffffffffffffffffffffffffffff021916908373ffffffffffffffffffffffffffffffffffffffff16021790555060408201518160020155606082015181600301556080820151816004015560a08201518160050160006101000a81548160ff021916908360038111156122705761226f613e6a565b5b021790555060c0820151816006019080519060200190612291929190613c19565b5060e08201518160070190805190602001906122ae929190613c19565b506101008201518160080190805190602001906122cc929190613c19565b506101208201518160090190805190602001906122ea929190613c19565b505050604082015181600b0160006101000a81548173ffffffffffffffffffffffffffffffffffffffff021916908373ffffffffffffffffffffffffffffffffffffffff160217905550606082015181600c019080519060200190612350929190613c19565b50608082015181600d015560a082015181600e01559050507fe716126288e3feb16c89656d00f682b21a2e63dbd972dc5e9b143722ac23de273384834260405161239d9493929190615008565b60405180910390a1600160008154809291906123b890614a93565b9190505550505050505050565b606060008054905060008111612410576040517f08c379a0000000000000000000000000000000000000000000000000000000008152600401612407906150a7565b60405180910390fd5b60008167ffffffffffffffff81111561242c5761242b6143de565b5b60405190808252806020026020018201604052801561246557816020015b612452613c9f565b81526020019060019003908161244a5790505b50905060005b828110156128105760026000828152602001908152602001600020604051806101400160405290816000820160009054906101000a900473ffffffffffffffffffffffffffffffffffffffff1673ffffffffffffffffffffffffffffffffffffffff1673ffffffffffffffffffffffffffffffffffffffff1681526020016001820160009054906101000a900473ffffffffffffffffffffffffffffffffffffffff1673ffffffffffffffffffffffffffffffffffffffff1673ffffffffffffffffffffffffffffffffffffffff1681526020016002820154815260200160038201548152602001600482015481526020016005820160009054906101000a900460ff16600381111561258157612580613e6a565b5b600381111561259357612592613e6a565b5b81526020016006820180546125a790614a32565b80601f01602080910402602001604051908101604052809291908181526020018280546125d390614a32565b80156126205780601f106125f557610100808354040283529160200191612620565b820191906000526020600020905b81548152906001019060200180831161260357829003601f168201915b5050505050815260200160078201805461263990614a32565b80601f016020809104026020016040519081016040528092919081815260200182805461266590614a32565b80156126b25780601f10612687576101008083540402835291602001916126b2565b820191906000526020600020905b81548152906001019060200180831161269557829003601f168201915b505050505081526020016008820180546126cb90614a32565b80601f01602080910402602001604051908101604052809291908181526020018280546126f790614a32565b80156127445780601f1061271957610100808354040283529160200191612744565b820191906000526020600020905b81548152906001019060200180831161272757829003601f168201915b5050505050815260200160098201805461275d90614a32565b80601f016020809104026020016040519081016040528092919081815260200182805461278990614a32565b80156127d65780601f106127ab576101008083540402835291602001916127d6565b820191906000526020600020905b8154815290600101906020018083116127b957829003601f168201915b5050505050815250508282815181106127f2576127f16149d4565b5b6020026020010181905250808061280890614a93565b91505061246b565b50809250505090565b6000806002600084815260200190815260200160002060010160009054906101000a900473ffffffffffffffffffffffffffffffffffffffff1690506000600260008581526020019081526020016000209050600073ffffffffffffffffffffffffffffffffffffffff168160000160009054906101000a900473ffffffffffffffffffffffffffffffffffffffff1673ffffffffffffffffffffffffffffffffffffffff161415612900576040517f08c379a00000000000000000000000000000000000000000000000000000000081526004016128f7906148dd565b60405180910390fd5b612a536040518060400160405280600c81526020017f2573203a202573203e2025730000000000000000000000000000000000000000815250338473ffffffffffffffffffffffffffffffffffffffff1663dd62ed3e33306040518363ffffffff1660e01b81526004016129759291906148fd565b60206040518083038186803b15801561298d57600080fd5b505afa1580156129a1573d6000803e3d6000fd5b505050506040513d601f19601f820116820180604052508101906129c5919061493b565b8573ffffffffffffffffffffffffffffffffffffffff166370a08231336040518263ffffffff1660e01b81526004016129fe91906150c7565b60206040518083038186803b158015612a1657600080fd5b505afa158015612a2a573d6000803e3d6000fd5b505050506040513d601f19601f82011682018060405250810190612a4e919061493b565b613a1d565b80600301548273ffffffffffffffffffffffffffffffffffffffff1663dd62ed3e33306040518363ffffffff1660e01b8152600401612a939291906148fd565b60206040518083038186803b158015612aab57600080fd5b505afa158015612abf573d6000803e3d6000fd5b505050506040513d601f19601f82011682018060405250810190612ae3919061493b565b118015612b7b575080600301548273ffffffffffffffffffffffffffffffffffffffff166370a08231336040518263ffffffff1660e01b8152600401612b2991906150c7565b60206040518083038186803b158015612b4157600080fd5b505afa158015612b55573d6000803e3d6000fd5b505050506040513d601f19601f82011682018060405250810190612b79919061493b565b115b92505050919050565b60026020528060005260406000206000915090508060000160009054906101000a900473ffffffffffffffffffffffffffffffffffffffff16908060010160009054906101000a900473ffffffffffffffffffffffffffffffffffffffff16908060020154908060030154908060040154908060050160009054906101000a900460ff1690806006018054612c1890614a32565b80601f0160208091040260200160405190810160405280929190818152602001828054612c4490614a32565b8015612c915780601f10612c6657610100808354040283529160200191612c91565b820191906000526020600020905b815481529060010190602001808311612c7457829003601f168201915b505050505090806007018054612ca690614a32565b80601f0160208091040260200160405190810160405280929190818152602001828054612cd290614a32565b8015612d1f5780601f10612cf457610100808354040283529160200191612d1f565b820191906000526020600020905b815481529060010190602001808311612d0257829003601f168201915b505050505090806008018054612d3490614a32565b80601f0160208091040260200160405190810160405280929190818152602001828054612d6090614a32565b8015612dad5780601f10612d8257610100808354040283529160200191612dad565b820191906000526020600020905b815481529060010190602001808311612d9057829003601f168201915b505050505090806009018054612dc290614a32565b80601f0160208091040260200160405190810160405280929190818152602001828054612dee90614a32565b8015612e3b5780601f10612e1057610100808354040283529160200191612e3b565b820191906000526020600020905b815481529060010190602001808311612e1e57829003601f168201915b505050505090508a565b6000600460008473ffffffffffffffffffffffffffffffffffffffff1673ffffffffffffffffffffffffffffffffffffffff16815260200190815260200160002060008381526020019081526020016000209050600060026000848152602001908152602001600020905060008160010160009054906101000a900473ffffffffffffffffffffffffffffffffffffffff169050600073ffffffffffffffffffffffffffffffffffffffff1683600b0160009054906101000a900473ffffffffffffffffffffffffffffffffffffffff1673ffffffffffffffffffffffffffffffffffffffff161415612f6d576040517f08c379a0000000000000000000000000000000000000000000000000000000008152600401612f6490614b28565b60405180910390fd5b612fb16040518060400160405280600781526020017f2573203e202573000000000000000000000000000000000000000000000000008152504285600e0154613abf565b82600e01544211612ff7576040517f08c379a0000000000000000000000000000000000000000000000000000000008152600401612fee9061512e565b60405180910390fd5b8073ffffffffffffffffffffffffffffffffffffffff166323b872dd868460000160009054906101000a900473ffffffffffffffffffffffffffffffffffffffff1685600301546040518463ffffffff1660e01b815260040161305c93929190614beb565b602060405180830381600087803b15801561307657600080fd5b505af115801561308a573d6000803e3d6000fd5b505050506040513d601f19601f820116820180604052508101906130ae9190614c4e565b507f577462848cc2ec95e5ef95bf0b154b97340221cd1002ea0511a3877a7f20fb8c858360000160009054906101000a900473ffffffffffffffffffffffffffffffffffffffff168460030154874260405161310e959493929190614c7b565b60405180910390a1816004015483600e015461312a9190614cce565b83600e01819055505050505050565b60606000600360003373ffffffffffffffffffffffffffffffffffffffff1673ffffffffffffffffffffffffffffffffffffffff168152602001908152602001600020805490509050600081116131c5576040517f08c379a00000000000000000000000000000000000000000000000000000000081526004016131bc906150a7565b60405180910390fd5b60008167ffffffffffffffff8111156131e1576131e06143de565b5b60405190808252806020026020018201604052801561321a57816020015b613207613c9f565b8152602001906001900390816131ff5790505b50905060005b82811015613626576000600360003373ffffffffffffffffffffffffffffffffffffffff1673ffffffffffffffffffffffffffffffffffffffff168152602001908152602001600020828154811061327b5761327a6149d4565b5b9060005260206000200154905060026000828152602001908152602001600020604051806101400160405290816000820160009054906101000a900473ffffffffffffffffffffffffffffffffffffffff1673ffffffffffffffffffffffffffffffffffffffff1673ffffffffffffffffffffffffffffffffffffffff1681526020016001820160009054906101000a900473ffffffffffffffffffffffffffffffffffffffff1673ffffffffffffffffffffffffffffffffffffffff1673ffffffffffffffffffffffffffffffffffffffff1681526020016002820154815260200160038201548152602001600482015481526020016005820160009054906101000a900460ff16600381111561339657613395613e6a565b5b60038111156133a8576133a7613e6a565b5b81526020016006820180546133bc90614a32565b80601f01602080910402602001604051908101604052809291908181526020018280546133e890614a32565b80156134355780601f1061340a57610100808354040283529160200191613435565b820191906000526020600020905b81548152906001019060200180831161341857829003601f168201915b5050505050815260200160078201805461344e90614a32565b80601f016020809104026020016040519081016040528092919081815260200182805461347a90614a32565b80156134c75780601f1061349c576101008083540402835291602001916134c7565b820191906000526020600020905b8154815290600101906020018083116134aa57829003601f168201915b505050505081526020016008820180546134e090614a32565b80601f016020809104026020016040519081016040528092919081815260200182805461350c90614a32565b80156135595780601f1061352e57610100808354040283529160200191613559565b820191906000526020600020905b81548152906001019060200180831161353c57829003601f168201915b5050505050815260200160098201805461357290614a32565b80601f016020809104026020016040519081016040528092919081815260200182805461359e90614a32565b80156135eb5780601f106135c0576101008083540402835291602001916135eb565b820191906000526020600020905b8154815290600101906020018083116135ce57829003601f168201915b505050505081525050838381518110613607576136066149d4565b5b602002602001018190525050808061361e90614a93565b915050613220565b50809250505090565b60015481565b600073ffffffffffffffffffffffffffffffffffffffff168873ffffffffffffffffffffffffffffffffffffffff1614156136a5576040517f08c379a000000000000000000000000000000000000000000000000000000000815260040161369c9061519a565b60405180910390fd5b600087116136e8576040517f08c379a00000000000000000000000000000000000000000000000000000000081526004016136df90615206565b60405180910390fd5b6000861161372b576040517f08c379a000000000000000000000000000000000000000000000000000000000815260040161372290615272565b60405180910390fd5b6040518061014001604052803373ffffffffffffffffffffffffffffffffffffffff1681526020018973ffffffffffffffffffffffffffffffffffffffff168152602001600054815260200188815260200187815260200186600381111561379657613795613e6a565b5b815260200185815260200183815260200182815260200184815250600260008054815260200190815260200160002060008201518160000160006101000a81548173ffffffffffffffffffffffffffffffffffffffff021916908373ffffffffffffffffffffffffffffffffffffffff16021790555060208201518160010160006101000a81548173ffffffffffffffffffffffffffffffffffffffff021916908373ffffffffffffffffffffffffffffffffffffffff16021790555060408201518160020155606082015181600301556080820151816004015560a08201518160050160006101000a81548160ff0219169083600381111561389c5761389b613e6a565b5b021790555060c08201518160060190805190602001906138bd929190613c19565b5060e08201518160070190805190602001906138da929190613c19565b506101008201518160080190805190602001906138f8929190613c19565b50610120820151816009019080519060200190613916929190613c19565b50905050600360003373ffffffffffffffffffffffffffffffffffffffff1673ffffffffffffffffffffffffffffffffffffffff16815260200190815260200160002060005490806001815401808255809150506001900390600052602060002001600090919091909150556000600260008054815260200190815260200160002090507f89d3f1cdfad4e5c26535ac23dc61cf9e975667801747518f01b1b653545d736a8160000160009054906101000a900473ffffffffffffffffffffffffffffffffffffffff16600054426040516139f393929190614b48565b60405180910390a1600080815480929190613a0d90614a93565b9190505550505050505050505050565b613ab984848484604051602401613a379493929190615292565b6040516020818303038152906040527ff8f51b1e000000000000000000000000000000000000000000000000000000007bffffffffffffffffffffffffffffffffffffffffffffffffffffffff19166020820180517bffffffffffffffffffffffffffffffffffffffffffffffffffffffff8381831617835250505050613b5e565b50505050565b613b59838383604051602401613ad7939291906152de565b6040516020818303038152906040527fca47c4eb000000000000000000000000000000000000000000000000000000007bffffffffffffffffffffffffffffffffffffffffffffffffffffffff19166020820180517bffffffffffffffffffffffffffffffffffffffffffffffffffffffff8381831617835250505050613b5e565b505050565b60008151905060006a636f6e736f6c652e6c6f679050602083016000808483855afa5050505050565b6040518060c0016040528060008152602001613ba1613c9f565b8152602001600073ffffffffffffffffffffffffffffffffffffffff1681526020016060815260200160008152602001600081525090565b508054613be590614a32565b6000825580601f10613bf75750613c16565b601f016020900490600052602060002090810190613c159190613d30565b5b50565b828054613c2590614a32565b90600052602060002090601f016020900481019282613c475760008555613c8e565b82601f10613c6057805160ff1916838001178555613c8e565b82800160010185558215613c8e579182015b82811115613c8d578251825591602001919060010190613c72565b5b509050613c9b9190613d30565b5090565b604051806101400160405280600073ffffffffffffffffffffffffffffffffffffffff168152602001600073ffffffffffffffffffffffffffffffffffffffff16815260200160008152602001600081526020016000815260200160006003811115613d0e57613d0d613e6a565b5b8152602001606081526020016060815260200160608152602001606081525090565b5b80821115613d49576000816000905550600101613d31565b5090565b6000604051905090565b600080fd5b600080fd5b6000819050919050565b613d7481613d61565b8114613d7f57600080fd5b50565b600081359050613d9181613d6b565b92915050565b600060208284031215613dad57613dac613d57565b5b6000613dbb84828501613d82565b91505092915050565b613dcd81613d61565b82525050565b6000602082019050613de86000830184613dc4565b92915050565b600081519050919050565b600082825260208201905092915050565b6000819050602082019050919050565b613e2381613d61565b82525050565b600073ffffffffffffffffffffffffffffffffffffffff82169050919050565b6000613e5482613e29565b9050919050565b613e6481613e49565b82525050565b7f4e487b7100000000000000000000000000000000000000000000000000000000600052602160045260246000fd5b60048110613eaa57613ea9613e6a565b5b50565b6000819050613ebb82613e99565b919050565b6000613ecb82613ead565b9050919050565b613edb81613ec0565b82525050565b600081519050919050565b600082825260208201905092915050565b60005b83811015613f1b578082015181840152602081019050613f00565b83811115613f2a576000848401525b50505050565b6000601f19601f8301169050919050565b6000613f4c82613ee1565b613f568185613eec565b9350613f66818560208601613efd565b613f6f81613f30565b840191505092915050565b600061014083016000830151613f936000860182613e5b565b506020830151613fa66020860182613e5b565b506040830151613fb96040860182613e1a565b506060830151613fcc6060860182613e1a565b506080830151613fdf6080860182613e1a565b5060a0830151613ff260a0860182613ed2565b5060c083015184820360c086015261400a8282613f41565b91505060e083015184820360e08601526140248282613f41565b9150506101008301518482036101008601526140408282613f41565b91505061012083015184820361012086015261405c8282613f41565b9150508091505092915050565b600060c0830160008301516140816000860182613e1a565b50602083015184820360208601526140998282613f7a565b91505060408301516140ae6040860182613e5b565b50606083015184820360608601526140c68282613f41565b91505060808301516140db6080860182613e1a565b5060a08301516140ee60a0860182613e1a565b508091505092915050565b60006141058383614069565b905092915050565b6000602082019050919050565b600061412582613dee565b61412f8185613df9565b93508360208202850161414185613e0a565b8060005b8581101561417d578484038952815161415e85826140f9565b94506141698361410d565b925060208a01995050600181019050614145565b50829750879550505050505092915050565b600060208201905081810360008301526141a9818461411a565b905092915050565b6141ba81613e49565b81146141c557600080fd5b50565b6000813590506141d7816141b1565b92915050565b600080604083850312156141f4576141f3613d57565b5b6000614202858286016141c8565b925050602061421385828601613d82565b9150509250929050565b6000610140830160008301516142366000860182613e5b565b5060208301516142496020860182613e5b565b50604083015161425c6040860182613e1a565b50606083015161426f6060860182613e1a565b5060808301516142826080860182613e1a565b5060a083015161429560a0860182613ed2565b5060c083015184820360c08601526142ad8282613f41565b91505060e083015184820360e08601526142c78282613f41565b9150506101008301518482036101008601526142e38282613f41565b9150506101208301518482036101208601526142ff8282613f41565b9150508091505092915050565b61431581613e49565b82525050565b600082825260208201905092915050565b600061433782613ee1565b614341818561431b565b9350614351818560208601613efd565b61435a81613f30565b840191505092915050565b600060c08201905061437a6000830189613dc4565b818103602083015261438c818861421d565b905061439b604083018761430c565b81810360608301526143ad818661432c565b90506143bc6080830185613dc4565b6143c960a0830184613dc4565b979650505050505050565b600080fd5b600080fd5b7f4e487b7100000000000000000000000000000000000000000000000000000000600052604160045260246000fd5b61441682613f30565b810181811067ffffffffffffffff82111715614435576144346143de565b5b80604052505050565b6000614448613d4d565b9050614454828261440d565b919050565b600067ffffffffffffffff821115614474576144736143de565b5b61447d82613f30565b9050602081019050919050565b82818337600083830152505050565b60006144ac6144a784614459565b61443e565b9050828152602081018484840111156144c8576144c76143d9565b5b6144d384828561448a565b509392505050565b600082601f8301126144f0576144ef6143d4565b5b8135614500848260208601614499565b91505092915050565b600080604083850312156145205761451f613d57565b5b600061452e85828601613d82565b925050602083013567ffffffffffffffff81111561454f5761454e613d5c565b5b61455b858286016144db565b9150509250929050565b600081519050919050565b600082825260208201905092915050565b6000819050602082019050919050565b600061459d8383613f7a565b905092915050565b6000602082019050919050565b60006145bd82614565565b6145c78185614570565b9350836020820285016145d985614581565b8060005b8581101561461557848403895281516145f68582614591565b9450614601836145a5565b925060208a019950506001810190506145dd565b50829750879550505050505092915050565b6000602082019050818103600083015261464181846145b2565b905092915050565b60008115159050919050565b61465e81614649565b82525050565b60006020820190506146796000830184614655565b92915050565b61468881613ec0565b82525050565b6000610140820190506146a4600083018d61430c565b6146b1602083018c61430c565b6146be604083018b613dc4565b6146cb606083018a613dc4565b6146d86080830189613dc4565b6146e560a083018861467f565b81810360c08301526146f7818761432c565b905081810360e083015261470b818661432c565b9050818103610100830152614720818561432c565b9050818103610120830152614735818461432c565b90509b9a5050505050505050505050565b6004811061475357600080fd5b50565b60008135905061476581614746565b92915050565b600080600080600080600080610100898b03121561478c5761478b613d57565b5b600061479a8b828c016141c8565b98505060206147ab8b828c01613d82565b97505060406147bc8b828c01613d82565b96505060606147cd8b828c01614756565b955050608089013567ffffffffffffffff8111156147ee576147ed613d5c565b5b6147fa8b828c016144db565b94505060a089013567ffffffffffffffff81111561481b5761481a613d5c565b5b6148278b828c016144db565b93505060c089013567ffffffffffffffff81111561484857614847613d5c565b5b6148548b828c016144db565b92505060e089013567ffffffffffffffff81111561487557614874613d5c565b5b6148818b828c016144db565b9150509295985092959890939650565b7f7468697320706c616e20646f6573206e6f742065786973740000000000000000600082015250565b60006148c760188361431b565b91506148d282614891565b602082019050919050565b600060208201905081810360008301526148f6816148ba565b9050919050565b6000604082019050614912600083018561430c565b61491f602083018461430c565b9392505050565b60008151905061493581613d6b565b92915050565b60006020828403121561495157614950613d57565b5b600061495f84828501614926565b91505092915050565b7f617563756e65207375626372697074696f6e0000000000000000000000000000600082015250565b600061499e60128361431b565b91506149a982614968565b602082019050919050565b600060208201905081810360008301526149cd81614991565b9050919050565b7f4e487b7100000000000000000000000000000000000000000000000000000000600052603260045260246000fd5b7f4e487b7100000000000000000000000000000000000000000000000000000000600052602260045260246000fd5b60006002820490506001821680614a4a57607f821691505b60208210811415614a5e57614a5d614a03565b5b50919050565b7f4e487b7100000000000000000000000000000000000000000000000000000000600052601160045260246000fd5b6000614a9e82613d61565b91507fffffffffffffffffffffffffffffffffffffffffffffffffffffffffffffffff821415614ad157614ad0614a64565b5b600182019050919050565b7f7468697320737562736372697074696f6e20646f6573206e6f74206578697374600082015250565b6000614b1260208361431b565b9150614b1d82614adc565b602082019050919050565b60006020820190508181036000830152614b4181614b05565b9050919050565b6000606082019050614b5d600083018661430c565b614b6a6020830185613dc4565b614b776040830184613dc4565b949350505050565b7f6e6f20796f7520646f6e2774206861766520617070726f766500000000000000600082015250565b6000614bb560198361431b565b9150614bc082614b7f565b602082019050919050565b60006020820190508181036000830152614be481614ba8565b9050919050565b6000606082019050614c00600083018661430c565b614c0d602083018561430c565b614c1a6040830184613dc4565b949350505050565b614c2b81614649565b8114614c3657600080fd5b50565b600081519050614c4881614c22565b92915050565b600060208284031215614c6457614c63613d57565b5b6000614c7284828501614c39565b91505092915050565b600060a082019050614c90600083018861430c565b614c9d602083018761430c565b614caa6040830186613dc4565b614cb76060830185613dc4565b614cc46080830184613dc4565b9695505050505050565b6000614cd982613d61565b9150614ce483613d61565b9250827fffffffffffffffffffffffffffffffffffffffffffffffffffffffffffffffff03821115614d1957614d18614a64565b5b828201905092915050565b60008160001c9050919050565b600073ffffffffffffffffffffffffffffffffffffffff82169050919050565b6000614d64614d5f83614d24565b614d31565b9050919050565b6000819050919050565b6000614d88614d8383614d24565b614d6b565b9050919050565b600060ff82169050919050565b6000614daf614daa83614d24565b614d8f565b9050919050565b60008190508160005260206000209050919050565b60008154614dd881614a32565b614de28186613eec565b94506001821660008114614dfd5760018114614e0f57614e42565b60ff1983168652602086019350614e42565b614e1885614db6565b60005b83811015614e3a57815481890152600182019150602081019050614e1b565b808801955050505b50505092915050565b600061014083016000808401549050614e6381614d51565b614e706000870182613e5b565b5060018401549050614e8181614d51565b614e8e6020870182613e5b565b5060028401549050614e9f81614d75565b614eac6040870182613e1a565b5060038401549050614ebd81614d75565b614eca6060870182613e1a565b5060048401549050614edb81614d75565b614ee86080870182613e1a565b5060058401549050614ef981614d9c565b614f0660a0870182613ed2565b506006840185830360c0870152614f1d8382614dcb565b9250506007840185830360e0870152614f368382614dcb565b92505060088401858303610100870152614f508382614dcb565b92505060098401858303610120870152614f6a8382614dcb565b925050819250505092915050565b600060c083016000830151614f906000860182613e1a565b5060208301518482036020860152614fa88282613f7a565b9150506040830151614fbd6040860182613e5b565b5060608301518482036060860152614fd58282613f41565b9150506080830151614fea6080860182613e1a565b5060a0830151614ffd60a0860182613e1a565b508091505092915050565b600060808201905061501d600083018761430c565b818103602083015261502f8186614e4b565b905081810360408301526150438185614f78565b90506150526060830184613dc4565b95945050505050565b7f617563756e20706c616e00000000000000000000000000000000000000000000600082015250565b6000615091600a8361431b565b915061509c8261505b565b602082019050919050565b600060208201905081810360008301526150c081615084565b9050919050565b60006020820190506150dc600083018461430c565b92915050565b7f6e6f742064756520796574000000000000000000000000000000000000000000600082015250565b6000615118600b8361431b565b9150615123826150e2565b602082019050919050565b600060208201905081810360008301526151478161510b565b9050919050565b7f616464726573732063616e6e6f74206265206e756c6c20616464726573730000600082015250565b6000615184601e8361431b565b915061518f8261514e565b602082019050919050565b600060208201905081810360008301526151b381615177565b9050919050565b7f616d6f756e74206e6565647320746f206265203e203000000000000000000000600082015250565b60006151f060168361431b565b91506151fb826151ba565b602082019050919050565b6000602082019050818103600083015261521f816151e3565b9050919050565b7f6672657175656e6379206e6565647320746f206265203e203000000000000000600082015250565b600061525c60198361431b565b915061526782615226565b602082019050919050565b6000602082019050818103600083015261528b8161524f565b9050919050565b600060808201905081810360008301526152ac818761432c565b90506152bb602083018661430c565b6152c86040830185613dc4565b6152d56060830184613dc4565b95945050505050565b600060608201905081810360008301526152f8818661432c565b90506153076020830185613dc4565b6153146040830184613dc4565b94935050505056fea264697066735822122035f15d6dfb133789263c77ee56fef868cae5caf25b39cf5a54fd8197e2d8d42664736f6c63430008090033",
  "linkReferences": {},
  "deployedLinkReferences": {}
}