{
  "_format": "hh-sol-artifact-1",
  "contractName": "PaymentV2",
  "sourceName": "contracts/PaymentVersions.sol",
  "abi": [
    {
      "anonymous": false,
      "inputs": [
        {
          "indexed": false,
          "internalType": "address",
          "name": "previousAdmin",
          "type": "address"
        },
        {
          "indexed": false,
          "internalType": "address",
          "name": "newAdmin",
          "type": "address"
        }
      ],
      "name": "AdminChanged",
      "type": "event"
    },
    {
      "anonymous": false,
      "inputs": [
        {
          "indexed": true,
          "internalType": "address",
          "name": "beacon",
          "type": "address"
        }
      ],
      "name": "BeaconUpgraded",
      "type": "event"
    },
    {
      "anonymous": false,
      "inputs": [
        {
          "indexed": false,
          "internalType": "uint8",
          "name": "version",
          "type": "uint8"
        }
      ],
      "name": "Initialized",
      "type": "event"
    },
    {
      "anonymous": false,
      "inputs": [
        {
          "indexed": true,
          "internalType": "address",
          "name": "previousOwner",
          "type": "address"
        },
        {
          "indexed": true,
          "internalType": "address",
          "name": "newOwner",
          "type": "address"
        }
      ],
      "name": "OwnershipTransferred",
      "type": "event"
    },
    {
      "anonymous": false,
      "inputs": [
        {
          "indexed": false,
          "internalType": "address",
          "name": "subscriber",
          "type": "address"
        },
        {
          "components": [
            {
              "internalType": "address",
              "name": "merchant",
              "type": "address"
            },
            {
              "internalType": "address",
              "name": "token",
              "type": "address"
            },
            {
              "internalType": "uint256",
              "name": "planId",
              "type": "uint256"
            },
            {
              "internalType": "uint256",
              "name": "amount",
              "type": "uint256"
            },
            {
              "internalType": "uint256",
              "name": "frequency",
              "type": "uint256"
            },
            {
              "internalType": "uint8",
              "name": "planType",
              "type": "uint8"
            },
            {
              "internalType": "string",
              "name": "planTypeInfos",
              "type": "string"
            },
            {
              "internalType": "string",
              "name": "planName",
              "type": "string"
            },
            {
              "internalType": "string",
              "name": "merchantName",
              "type": "string"
            },
            {
              "internalType": "string",
              "name": "tokenName",
              "type": "string"
            }
          ],
          "indexed": false,
          "internalType": "struct PaymentV0.Plan",
          "name": "plan",
          "type": "tuple"
        },
        {
          "components": [
            {
              "internalType": "uint256",
              "name": "subscriptionId",
              "type": "uint256"
            },
            {
              "internalType": "uint256",
              "name": "planId",
              "type": "uint256"
            },
            {
              "internalType": "address",
              "name": "subscriber",
              "type": "address"
            },
            {
              "internalType": "string",
              "name": "subscriberInfos",
              "type": "string"
            },
            {
              "internalType": "uint256",
              "name": "start",
              "type": "uint256"
            },
            {
              "internalType": "uint256",
              "name": "nextPayment",
              "type": "uint256"
            }
          ],
          "indexed": false,
          "internalType": "struct PaymentV0.Subscription",
          "name": "subscription",
          "type": "tuple"
        },
        {
          "indexed": false,
          "internalType": "uint256",
          "name": "date",
          "type": "uint256"
        }
      ],
      "name": "SubscriptionCreated",
      "type": "event"
    },
    {
      "anonymous": false,
      "inputs": [
        {
          "indexed": true,
          "internalType": "address",
          "name": "implementation",
          "type": "address"
        }
      ],
      "name": "Upgraded",
      "type": "event"
    },
    {
      "inputs": [
        {
          "internalType": "uint256",
          "name": "planId",
          "type": "uint256"
        }
      ],
      "name": "allowance",
      "outputs": [
        {
          "internalType": "uint256",
          "name": "success",
          "type": "uint256"
        }
      ],
      "stateMutability": "view",
      "type": "function"
    },
    {
      "inputs": [
        {
          "internalType": "uint256",
          "name": "subscriptionId",
          "type": "uint256"
        }
      ],
      "name": "cancel",
      "outputs": [],
      "stateMutability": "nonpayable",
      "type": "function"
    },
    {
      "inputs": [
        {
          "internalType": "address",
          "name": "token",
          "type": "address"
        },
        {
          "internalType": "uint256",
          "name": "amount",
          "type": "uint256"
        },
        {
          "internalType": "uint256",
          "name": "frequency",
          "type": "uint256"
        },
        {
          "internalType": "uint8",
          "name": "planType",
          "type": "uint8"
        },
        {
          "internalType": "string",
          "name": "planTypeInfos",
          "type": "string"
        },
        {
          "internalType": "string",
          "name": "tokenName",
          "type": "string"
        },
        {
          "internalType": "string",
          "name": "planName",
          "type": "string"
        },
        {
          "internalType": "string",
          "name": "merchantName",
          "type": "string"
        }
      ],
      "name": "createPlan",
      "outputs": [],
      "stateMutability": "nonpayable",
      "type": "function"
    },
    {
      "inputs": [],
      "name": "getContractVersion",
      "outputs": [
        {
          "internalType": "uint256",
          "name": "",
          "type": "uint256"
        }
      ],
      "stateMutability": "pure",
      "type": "function"
    },
    {
      "inputs": [
        {
          "internalType": "bool",
          "name": "onlyMine",
          "type": "bool"
        }
      ],
      "name": "getPlans",
      "outputs": [
        {
          "components": [
            {
              "internalType": "address",
              "name": "merchant",
              "type": "address"
            },
            {
              "internalType": "address",
              "name": "token",
              "type": "address"
            },
            {
              "internalType": "uint256",
              "name": "planId",
              "type": "uint256"
            },
            {
              "internalType": "uint256",
              "name": "amount",
              "type": "uint256"
            },
            {
              "internalType": "uint256",
              "name": "frequency",
              "type": "uint256"
            },
            {
              "internalType": "uint8",
              "name": "planType",
              "type": "uint8"
            },
            {
              "internalType": "string",
              "name": "planTypeInfos",
              "type": "string"
            },
            {
              "internalType": "string",
              "name": "planName",
              "type": "string"
            },
            {
              "internalType": "string",
              "name": "merchantName",
              "type": "string"
            },
            {
              "internalType": "string",
              "name": "tokenName",
              "type": "string"
            }
          ],
          "internalType": "struct PaymentV0.Plan[]",
          "name": "",
          "type": "tuple[]"
        }
      ],
      "stateMutability": "view",
      "type": "function"
    },
    {
      "inputs": [
        {
          "internalType": "bool",
          "name": "onlyMine",
          "type": "bool"
        }
      ],
      "name": "getSubscriptions",
      "outputs": [
        {
          "components": [
            {
              "internalType": "uint256",
              "name": "subscriptionId",
              "type": "uint256"
            },
            {
              "internalType": "uint256",
              "name": "planId",
              "type": "uint256"
            },
            {
              "internalType": "address",
              "name": "subscriber",
              "type": "address"
            },
            {
              "internalType": "string",
              "name": "subscriberInfos",
              "type": "string"
            },
            {
              "internalType": "uint256",
              "name": "start",
              "type": "uint256"
            },
            {
              "internalType": "uint256",
              "name": "nextPayment",
              "type": "uint256"
            }
          ],
          "internalType": "struct PaymentV0.Subscription[]",
          "name": "",
          "type": "tuple[]"
        }
      ],
      "stateMutability": "view",
      "type": "function"
    },
    {
      "inputs": [],
      "name": "init",
      "outputs": [],
      "stateMutability": "nonpayable",
      "type": "function"
    },
    {
      "inputs": [],
      "name": "initialize",
      "outputs": [],
      "stateMutability": "nonpayable",
      "type": "function"
    },
    {
      "inputs": [
        {
          "internalType": "uint256",
          "name": "planId",
          "type": "uint256"
        }
      ],
      "name": "isPayable",
      "outputs": [
        {
          "internalType": "bool",
          "name": "success",
          "type": "bool"
        }
      ],
      "stateMutability": "view",
      "type": "function"
    },
    {
      "inputs": [],
      "name": "nextPlanId",
      "outputs": [
        {
          "internalType": "uint256",
          "name": "",
          "type": "uint256"
        }
      ],
      "stateMutability": "view",
      "type": "function"
    },
    {
      "inputs": [],
      "name": "nextSubscriptionId",
      "outputs": [
        {
          "internalType": "uint256",
          "name": "",
          "type": "uint256"
        }
      ],
      "stateMutability": "view",
      "type": "function"
    },
    {
      "inputs": [],
      "name": "owner",
      "outputs": [
        {
          "internalType": "address",
          "name": "",
          "type": "address"
        }
      ],
      "stateMutability": "view",
      "type": "function"
    },
    {
      "inputs": [
        {
          "internalType": "address",
          "name": "subscriber",
          "type": "address"
        },
        {
          "internalType": "uint256",
          "name": "subscriptionId",
          "type": "uint256"
        }
      ],
      "name": "pay",
      "outputs": [],
      "stateMutability": "nonpayable",
      "type": "function"
    },
    {
      "inputs": [
        {
          "internalType": "uint256",
          "name": "",
          "type": "uint256"
        }
      ],
      "name": "plans",
      "outputs": [
        {
          "internalType": "address",
          "name": "merchant",
          "type": "address"
        },
        {
          "internalType": "address",
          "name": "token",
          "type": "address"
        },
        {
          "internalType": "uint256",
          "name": "planId",
          "type": "uint256"
        },
        {
          "internalType": "uint256",
          "name": "amount",
          "type": "uint256"
        },
        {
          "internalType": "uint256",
          "name": "frequency",
          "type": "uint256"
        },
        {
          "internalType": "uint8",
          "name": "planType",
          "type": "uint8"
        },
        {
          "internalType": "string",
          "name": "planTypeInfos",
          "type": "string"
        },
        {
          "internalType": "string",
          "name": "planName",
          "type": "string"
        },
        {
          "internalType": "string",
          "name": "merchantName",
          "type": "string"
        },
        {
          "internalType": "string",
          "name": "tokenName",
          "type": "string"
        }
      ],
      "stateMutability": "view",
      "type": "function"
    },
    {
      "inputs": [],
      "name": "proxiableUUID",
      "outputs": [
        {
          "internalType": "bytes32",
          "name": "",
          "type": "bytes32"
        }
      ],
      "stateMutability": "view",
      "type": "function"
    },
    {
      "inputs": [],
      "name": "renounceOwnership",
      "outputs": [],
      "stateMutability": "nonpayable",
      "type": "function"
    },
    {
      "inputs": [
        {
          "internalType": "uint256",
          "name": "planId",
          "type": "uint256"
        },
        {
          "internalType": "string",
          "name": "customData",
          "type": "string"
        }
      ],
      "name": "subscribe",
      "outputs": [],
      "stateMutability": "nonpayable",
      "type": "function"
    },
    {
      "inputs": [
        {
          "internalType": "address",
          "name": "",
          "type": "address"
        },
        {
          "internalType": "uint256",
          "name": "",
          "type": "uint256"
        }
      ],
      "name": "subscriptions",
      "outputs": [
        {
          "internalType": "uint256",
          "name": "subscriptionId",
          "type": "uint256"
        },
        {
          "internalType": "uint256",
          "name": "planId",
          "type": "uint256"
        },
        {
          "internalType": "address",
          "name": "subscriber",
          "type": "address"
        },
        {
          "internalType": "string",
          "name": "subscriberInfos",
          "type": "string"
        },
        {
          "internalType": "uint256",
          "name": "start",
          "type": "uint256"
        },
        {
          "internalType": "uint256",
          "name": "nextPayment",
          "type": "uint256"
        }
      ],
      "stateMutability": "view",
      "type": "function"
    },
    {
      "inputs": [
        {
          "internalType": "address",
          "name": "newOwner",
          "type": "address"
        }
      ],
      "name": "transferOwnership",
      "outputs": [],
      "stateMutability": "nonpayable",
      "type": "function"
    },
    {
      "inputs": [
        {
          "internalType": "address",
          "name": "newImplementation",
          "type": "address"
        }
      ],
      "name": "upgradeTo",
      "outputs": [],
      "stateMutability": "nonpayable",
      "type": "function"
    },
    {
      "inputs": [
        {
          "internalType": "address",
          "name": "newImplementation",
          "type": "address"
        },
        {
          "internalType": "bytes",
          "name": "data",
          "type": "bytes"
        }
      ],
      "name": "upgradeToAndCall",
      "outputs": [],
      "stateMutability": "payable",
      "type": "function"
    }
  ],
  "bytecode": "0x60a06040523073ffffffffffffffffffffffffffffffffffffffff1660809073ffffffffffffffffffffffffffffffffffffffff1681525034801561004357600080fd5b50608051614f5861007b6000396000818161064a015281816106d901528181610a7201528181610b010152610bb10152614f586000f3fe60806040526004361061012a5760003560e01c80638aa10435116100ab578063d8a1854d1161006f578063d8a1854d146103cb578063da58935f14610408578063e1c7392a14610433578063f2fde38b1461044a578063fedc744514610473578063ff8f44021461049c5761012a565b80638aa10435146102c95780638da5cb5b146102f45780639f7d647d1461031f578063b16206161461035c578063c4076876146103a25761012a565b80635f8d26b2116100f25780635f8d26b214610205578063623da3d114610230578063715018a6146102725780638129fc1c1461028957806386d4fbd3146102a05761012a565b80632e43d7dc1461012f5780633659cfe61461016c57806340e58ee5146101955780634f1ef286146101be57806352d1902d146101da575b600080fd5b34801561013b57600080fd5b5061015660048036038101906101519190613505565b6104d9565b6040516101639190613541565b60405180910390f35b34801561017857600080fd5b50610193600480360381019061018e91906135ba565b610648565b005b3480156101a157600080fd5b506101bc60048036038101906101b79190613505565b6107d1565b005b6101d860048036038101906101d3919061372d565b610a70565b005b3480156101e657600080fd5b506101ef610bad565b6040516101fc91906137a2565b60405180910390f35b34801561021157600080fd5b5061021a610c66565b6040516102279190613541565b60405180910390f35b34801561023c57600080fd5b50610257600480360381019061025291906137bd565b610c6c565b60405161026996959493929190613894565b60405180910390f35b34801561027e57600080fd5b50610287610d5d565b005b34801561029557600080fd5b5061029e610d71565b005b3480156102ac57600080fd5b506102c760048036038101906102c2919061399d565b610ebf565b005b3480156102d557600080fd5b506102de61136c565b6040516102eb9190613541565b60405180910390f35b34801561030057600080fd5b50610309611375565b60405161031691906139f9565b60405180910390f35b34801561032b57600080fd5b5061034660048036038101906103419190613505565b61139f565b6040516103539190613a2f565b60405180910390f35b34801561036857600080fd5b50610383600480360381019061037e9190613505565b611605565b6040516103999a99989796959493929190613a66565b60405180910390f35b3480156103ae57600080fd5b506103c960048036038101906103c491906137bd565b6118c6565b005b3480156103d757600080fd5b506103f260048036038101906103ed9190613b4a565b611b0d565b6040516103ff9190613d9f565b60405180910390f35b34801561041457600080fd5b5061041d612105565b60405161042a9190613541565b60405180910390f35b34801561043f57600080fd5b5061044861210b565b005b34801561045657600080fd5b50610471600480360381019061046c91906135ba565b612249565b005b34801561047f57600080fd5b5061049a60048036038101906104959190613ded565b6122cd565b005b3480156104a857600080fd5b506104c360048036038101906104be9190613b4a565b6125b7565b6040516104d0919061405e565b60405180910390f35b60008073ffffffffffffffffffffffffffffffffffffffff1660cb600084815260200190815260200160002060000160009054906101000a900473ffffffffffffffffffffffffffffffffffffffff1673ffffffffffffffffffffffffffffffffffffffff161415610580576040517f08c379a0000000000000000000000000000000000000000000000000000000008152600401610577906140cc565b60405180910390fd5b60cb600083815260200190815260200160002060010160009054906101000a900473ffffffffffffffffffffffffffffffffffffffff1673ffffffffffffffffffffffffffffffffffffffff1663dd62ed3e33306040518363ffffffff1660e01b81526004016105f19291906140ec565b60206040518083038186803b15801561060957600080fd5b505afa15801561061d573d6000803e3d6000fd5b505050506040513d601f19601f82011682018060405250810190610641919061412a565b9050919050565b7f000000000000000000000000000000000000000000000000000000000000000073ffffffffffffffffffffffffffffffffffffffff163073ffffffffffffffffffffffffffffffffffffffff1614156106d7576040517f08c379a00000000000000000000000000000000000000000000000000000000081526004016106ce906141c9565b60405180910390fd5b7f000000000000000000000000000000000000000000000000000000000000000073ffffffffffffffffffffffffffffffffffffffff1661071661298f565b73ffffffffffffffffffffffffffffffffffffffff161461076c576040517f08c379a00000000000000000000000000000000000000000000000000000000081526004016107639061425b565b60405180910390fd5b610775816129e6565b6107ce81600067ffffffffffffffff81111561079457610793613602565b5b6040519080825280601f01601f1916602001820160405280156107c65781602001600182028036833780820191505090505b5060006129f1565b50565b600060cc60003373ffffffffffffffffffffffffffffffffffffffff1673ffffffffffffffffffffffffffffffffffffffff16815260200190815260200160002060008381526020019081526020016000209050600073ffffffffffffffffffffffffffffffffffffffff168160020160009054906101000a900473ffffffffffffffffffffffffffffffffffffffff1673ffffffffffffffffffffffffffffffffffffffff1614156108b9576040517f08c379a00000000000000000000000000000000000000000000000000000000081526004016108b0906140cc565b60405180910390fd5b6000805b60ca548111610953573373ffffffffffffffffffffffffffffffffffffffff1660cd600083815260200190815260200160002060020160009054906101000a900473ffffffffffffffffffffffffffffffffffffffff1673ffffffffffffffffffffffffffffffffffffffff1614156109405760018261093d91906142aa565b91505b808061094b90614300565b9150506108bd565b5060cc60003373ffffffffffffffffffffffffffffffffffffffff1673ffffffffffffffffffffffffffffffffffffffff168152602001908152602001600020600084815260200190815260200160002060008082016000905560018201600090556002820160006101000a81549073ffffffffffffffffffffffffffffffffffffffff02191690556003820160006109ec919061330a565b60048201600090556005820160009055505060cd600084815260200190815260200160002060008082016000905560018201600090556002820160006101000a81549073ffffffffffffffffffffffffffffffffffffffff0219169055600382016000610a59919061330a565b600482016000905560058201600090555050505050565b7f000000000000000000000000000000000000000000000000000000000000000073ffffffffffffffffffffffffffffffffffffffff163073ffffffffffffffffffffffffffffffffffffffff161415610aff576040517f08c379a0000000000000000000000000000000000000000000000000000000008152600401610af6906141c9565b60405180910390fd5b7f000000000000000000000000000000000000000000000000000000000000000073ffffffffffffffffffffffffffffffffffffffff16610b3e61298f565b73ffffffffffffffffffffffffffffffffffffffff1614610b94576040517f08c379a0000000000000000000000000000000000000000000000000000000008152600401610b8b9061425b565b60405180910390fd5b610b9d826129e6565b610ba9828260016129f1565b5050565b60007f000000000000000000000000000000000000000000000000000000000000000073ffffffffffffffffffffffffffffffffffffffff163073ffffffffffffffffffffffffffffffffffffffff1614610c3d576040517f08c379a0000000000000000000000000000000000000000000000000000000008152600401610c34906143bb565b60405180910390fd5b7f360894a13ba1a3210667c828492db98dca3e2076cc3735a920a3ca505d382bbc60001b905090565b60c95481565b60cc602052816000526040600020602052806000526040600020600091509150508060000154908060010154908060020160009054906101000a900473ffffffffffffffffffffffffffffffffffffffff1690806003018054610cce9061440a565b80601f0160208091040260200160405190810160405280929190818152602001828054610cfa9061440a565b8015610d475780601f10610d1c57610100808354040283529160200191610d47565b820191906000526020600020905b815481529060010190602001808311610d2a57829003601f168201915b5050505050908060040154908060050154905086565b610d65612b6e565b610d6f6000612bec565b565b60008060019054906101000a900460ff16159050808015610da25750600160008054906101000a900460ff1660ff16105b80610dcf5750610db130612cb2565b158015610dce5750600160008054906101000a900460ff1660ff16145b5b610e0e576040517f08c379a0000000000000000000000000000000000000000000000000000000008152600401610e05906144ae565b60405180910390fd5b60016000806101000a81548160ff021916908360ff1602179055508015610e4b576001600060016101000a81548160ff0219169083151502179055505b610e53612cd5565b600060ca81905550600060c9819055508015610ebc5760008060016101000a81548160ff0219169083151502179055507f7f26b83ff96e1f2b6a682f133852f6798a09c465da95921460cefb38474024986001604051610eb39190614513565b60405180910390a15b50565b600060cb600084815260200190815260200160002060010160009054906101000a900473ffffffffffffffffffffffffffffffffffffffff169050600060cb60008581526020019081526020016000209050600073ffffffffffffffffffffffffffffffffffffffff168160000160009054906101000a900473ffffffffffffffffffffffffffffffffffffffff1673ffffffffffffffffffffffffffffffffffffffff161415610fa5576040517f08c379a0000000000000000000000000000000000000000000000000000000008152600401610f9c906140cc565b60405180910390fd5b80600301548273ffffffffffffffffffffffffffffffffffffffff1663dd62ed3e33306040518363ffffffff1660e01b8152600401610fe59291906140ec565b60206040518083038186803b158015610ffd57600080fd5b505afa158015611011573d6000803e3d6000fd5b505050506040513d601f19601f82011682018060405250810190611035919061412a565b11611075576040517f08c379a000000000000000000000000000000000000000000000000000000000815260040161106c9061457a565b60405180910390fd5b8173ffffffffffffffffffffffffffffffffffffffff166323b872dd338360000160009054906101000a900473ffffffffffffffffffffffffffffffffffffffff1684600301546040518463ffffffff1660e01b81526004016110da9392919061459a565b602060405180830381600087803b1580156110f457600080fd5b505af1158015611108573d6000803e3d6000fd5b505050506040513d601f19601f8201168201806040525081019061112c91906145e6565b5060006040518060c0016040528060ca548152602001836002015481526020013373ffffffffffffffffffffffffffffffffffffffff16815260200185815260200142815260200183600401544261118491906142aa565b81525090508060cc60003373ffffffffffffffffffffffffffffffffffffffff1673ffffffffffffffffffffffffffffffffffffffff168152602001908152602001600020600060ca548152602001908152602001600020600082015181600001556020820151816001015560408201518160020160006101000a81548173ffffffffffffffffffffffffffffffffffffffff021916908373ffffffffffffffffffffffffffffffffffffffff160217905550606082015181600301908051906020019061125392919061334a565b506080820151816004015560a082015181600501559050508060cd600060ca548152602001908152602001600020600082015181600001556020820151816001015560408201518160020160006101000a81548173ffffffffffffffffffffffffffffffffffffffff021916908373ffffffffffffffffffffffffffffffffffffffff16021790555060608201518160030190805190602001906112f892919061334a565b506080820151816004015560a082015181600501559050507f8c110060d8eaabcbd8f839fbfc0a0499b47b3e6880ea5736c6e8b67c75eaa57e3383834260405161134594939291906148f0565b60405180910390a160ca600081548092919061136090614300565b91905055505050505050565b60006002905090565b6000603360009054906101000a900473ffffffffffffffffffffffffffffffffffffffff16905090565b60008073ffffffffffffffffffffffffffffffffffffffff1660cb600084815260200190815260200160002060000160009054906101000a900473ffffffffffffffffffffffffffffffffffffffff1673ffffffffffffffffffffffffffffffffffffffff161415611446576040517f08c379a000000000000000000000000000000000000000000000000000000000815260040161143d906140cc565b60405180910390fd5b60cb60008381526020019081526020016000206003015460cb600084815260200190815260200160002060010160009054906101000a900473ffffffffffffffffffffffffffffffffffffffff1673ffffffffffffffffffffffffffffffffffffffff1663dd62ed3e33306040518363ffffffff1660e01b81526004016114ce9291906140ec565b60206040518083038186803b1580156114e657600080fd5b505afa1580156114fa573d6000803e3d6000fd5b505050506040513d601f19601f8201168201806040525081019061151e919061412a565b1180156115fe575060cb60008381526020019081526020016000206003015460cb600084815260200190815260200160002060010160009054906101000a900473ffffffffffffffffffffffffffffffffffffffff1673ffffffffffffffffffffffffffffffffffffffff166370a08231336040518263ffffffff1660e01b81526004016115ac91906139f9565b60206040518083038186803b1580156115c457600080fd5b505afa1580156115d8573d6000803e3d6000fd5b505050506040513d601f19601f820116820180604052508101906115fc919061412a565b115b9050919050565b60cb6020528060005260406000206000915090508060000160009054906101000a900473ffffffffffffffffffffffffffffffffffffffff16908060010160009054906101000a900473ffffffffffffffffffffffffffffffffffffffff16908060020154908060030154908060040154908060050160009054906101000a900460ff16908060060180546116999061440a565b80601f01602080910402602001604051908101604052809291908181526020018280546116c59061440a565b80156117125780601f106116e757610100808354040283529160200191611712565b820191906000526020600020905b8154815290600101906020018083116116f557829003601f168201915b5050505050908060070180546117279061440a565b80601f01602080910402602001604051908101604052809291908181526020018280546117539061440a565b80156117a05780601f10611775576101008083540402835291602001916117a0565b820191906000526020600020905b81548152906001019060200180831161178357829003601f168201915b5050505050908060080180546117b59061440a565b80601f01602080910402602001604051908101604052809291908181526020018280546117e19061440a565b801561182e5780601f106118035761010080835404028352916020019161182e565b820191906000526020600020905b81548152906001019060200180831161181157829003601f168201915b5050505050908060090180546118439061440a565b80601f016020809104026020016040519081016040528092919081815260200182805461186f9061440a565b80156118bc5780601f10611891576101008083540402835291602001916118bc565b820191906000526020600020905b81548152906001019060200180831161189f57829003601f168201915b505050505090508a565b600060cc60008473ffffffffffffffffffffffffffffffffffffffff1673ffffffffffffffffffffffffffffffffffffffff16815260200190815260200160002060008381526020019081526020016000209050600073ffffffffffffffffffffffffffffffffffffffff168160020160009054906101000a900473ffffffffffffffffffffffffffffffffffffffff1673ffffffffffffffffffffffffffffffffffffffff1614156119ae576040517f08c379a00000000000000000000000000000000000000000000000000000000081526004016119a5906140cc565b60405180910390fd5b806005015442116119f4576040517f08c379a00000000000000000000000000000000000000000000000000000000081526004016119eb9061498f565b60405180910390fd5b600060cb60008360010154815260200190815260200160002090508060010160009054906101000a900473ffffffffffffffffffffffffffffffffffffffff1673ffffffffffffffffffffffffffffffffffffffff166323b872dd858360000160009054906101000a900473ffffffffffffffffffffffffffffffffffffffff1684600301546040518463ffffffff1660e01b8152600401611a989392919061459a565b602060405180830381600087803b158015611ab257600080fd5b505af1158015611ac6573d6000803e3d6000fd5b505050506040513d601f19601f82011682018060405250810190611aea91906145e6565b5080600401548260050154611aff91906142aa565b826005018190555050505050565b60606000805b818111611c2d578315611b9f573373ffffffffffffffffffffffffffffffffffffffff1660cb600083815260200190815260200160002060000160009054906101000a900473ffffffffffffffffffffffffffffffffffffffff1673ffffffffffffffffffffffffffffffffffffffff161415611b9a57600182611b9791906142aa565b91505b611c1a565b600073ffffffffffffffffffffffffffffffffffffffff1660cb600083815260200190815260200160002060000160009054906101000a900473ffffffffffffffffffffffffffffffffffffffff1673ffffffffffffffffffffffffffffffffffffffff1614611c1957600182611c1691906142aa565b91505b5b8080611c2590614300565b915050611b13565b5060008167ffffffffffffffff811115611c4a57611c49613602565b5b604051908082528060200260200182016040528015611c8357816020015b611c706133d0565b815260200190600190039081611c685790505b50905060005b60c9548110156120fa57600073ffffffffffffffffffffffffffffffffffffffff1660cb600083815260200190815260200160002060000160009054906101000a900473ffffffffffffffffffffffffffffffffffffffff1673ffffffffffffffffffffffffffffffffffffffff16146120e757841580611d745750848015611d7357503373ffffffffffffffffffffffffffffffffffffffff1660cb600083815260200190815260200160002060000160009054906101000a900473ffffffffffffffffffffffffffffffffffffffff1673ffffffffffffffffffffffffffffffffffffffff16145b5b156120e65760cb6000828152602001908152602001600020604051806101400160405290816000820160009054906101000a900473ffffffffffffffffffffffffffffffffffffffff1673ffffffffffffffffffffffffffffffffffffffff1673ffffffffffffffffffffffffffffffffffffffff1681526020016001820160009054906101000a900473ffffffffffffffffffffffffffffffffffffffff1673ffffffffffffffffffffffffffffffffffffffff1673ffffffffffffffffffffffffffffffffffffffff1681526020016002820154815260200160038201548152602001600482015481526020016005820160009054906101000a900460ff1660ff1660ff168152602001600682018054611e8f9061440a565b80601f0160208091040260200160405190810160405280929190818152602001828054611ebb9061440a565b8015611f085780601f10611edd57610100808354040283529160200191611f08565b820191906000526020600020905b815481529060010190602001808311611eeb57829003601f168201915b50505050508152602001600782018054611f219061440a565b80601f0160208091040260200160405190810160405280929190818152602001828054611f4d9061440a565b8015611f9a5780601f10611f6f57610100808354040283529160200191611f9a565b820191906000526020600020905b815481529060010190602001808311611f7d57829003601f168201915b50505050508152602001600882018054611fb39061440a565b80601f0160208091040260200160405190810160405280929190818152602001828054611fdf9061440a565b801561202c5780601f106120015761010080835404028352916020019161202c565b820191906000526020600020905b81548152906001019060200180831161200f57829003601f168201915b505050505081526020016009820180546120459061440a565b80601f01602080910402602001604051908101604052809291908181526020018280546120719061440a565b80156120be5780601f10612093576101008083540402835291602001916120be565b820191906000526020600020905b8154815290600101906020018083116120a157829003601f168201915b5050505050815250508282815181106120da576120d96149af565b5b60200260200101819052505b5b80806120f290614300565b915050611c89565b508092505050919050565b60ca5481565b60008060019054906101000a900460ff1615905080801561213c5750600160008054906101000a900460ff1660ff16105b80612169575061214b30612cb2565b1580156121685750600160008054906101000a900460ff1660ff16145b5b6121a8576040517f08c379a000000000000000000000000000000000000000000000000000000000815260040161219f906144ae565b60405180910390fd5b60016000806101000a81548160ff021916908360ff16021790555080156121e5576001600060016101000a81548160ff0219169083151502179055505b6121ed612e1b565b80156122465760008060016101000a81548160ff0219169083151502179055507f7f26b83ff96e1f2b6a682f133852f6798a09c465da95921460cefb3847402498600160405161223d9190614513565b60405180910390a15b50565b612251612b6e565b600073ffffffffffffffffffffffffffffffffffffffff168173ffffffffffffffffffffffffffffffffffffffff1614156122c1576040517f08c379a00000000000000000000000000000000000000000000000000000000081526004016122b890614a50565b60405180910390fd5b6122ca81612bec565b50565b600073ffffffffffffffffffffffffffffffffffffffff168873ffffffffffffffffffffffffffffffffffffffff16141561233d576040517f08c379a0000000000000000000000000000000000000000000000000000000008152600401612334906140cc565b60405180910390fd5b60008711612380576040517f08c379a000000000000000000000000000000000000000000000000000000000815260040161237790614abc565b60405180910390fd5b600086116123c3576040517f08c379a00000000000000000000000000000000000000000000000000000000081526004016123ba90614abc565b60405180910390fd5b6040518061014001604052803373ffffffffffffffffffffffffffffffffffffffff1681526020018973ffffffffffffffffffffffffffffffffffffffff16815260200160c95481526020018881526020018781526020018660ff1681526020018581526020018381526020018281526020018481525060cb600060c954815260200190815260200160002060008201518160000160006101000a81548173ffffffffffffffffffffffffffffffffffffffff021916908373ffffffffffffffffffffffffffffffffffffffff16021790555060208201518160010160006101000a81548173ffffffffffffffffffffffffffffffffffffffff021916908373ffffffffffffffffffffffffffffffffffffffff16021790555060408201518160020155606082015181600301556080820151816004015560a08201518160050160006101000a81548160ff021916908360ff16021790555060c082015181600601908051906020019061253892919061334a565b5060e082015181600701908051906020019061255592919061334a565b5061010082015181600801908051906020019061257392919061334a565b5061012082015181600901908051906020019061259192919061334a565b5090505060c960008154809291906125a890614300565b91905055505050505050505050565b60606000805b8181116126d7578315612649573373ffffffffffffffffffffffffffffffffffffffff1660cd600083815260200190815260200160002060020160009054906101000a900473ffffffffffffffffffffffffffffffffffffffff1673ffffffffffffffffffffffffffffffffffffffff1614156126445760018261264191906142aa565b91505b6126c4565b600073ffffffffffffffffffffffffffffffffffffffff1660cd600083815260200190815260200160002060020160009054906101000a900473ffffffffffffffffffffffffffffffffffffffff1673ffffffffffffffffffffffffffffffffffffffff16146126c3576001826126c091906142aa565b91505b5b80806126cf90614300565b9150506125bd565b5060008167ffffffffffffffff8111156126f4576126f3613602565b5b60405190808252806020026020018201604052801561272d57816020015b61271a613452565b8152602001906001900390816127125790505b50905060005b60ca5481101561298457600073ffffffffffffffffffffffffffffffffffffffff1660cd600083815260200190815260200160002060020160009054906101000a900473ffffffffffffffffffffffffffffffffffffffff1673ffffffffffffffffffffffffffffffffffffffff16146129715784158061281e575084801561281d57503373ffffffffffffffffffffffffffffffffffffffff1660cd600083815260200190815260200160002060020160009054906101000a900473ffffffffffffffffffffffffffffffffffffffff1673ffffffffffffffffffffffffffffffffffffffff16145b5b156129705760cd60008281526020019081526020016000206040518060c001604052908160008201548152602001600182015481526020016002820160009054906101000a900473ffffffffffffffffffffffffffffffffffffffff1673ffffffffffffffffffffffffffffffffffffffff1673ffffffffffffffffffffffffffffffffffffffff1681526020016003820180546128bb9061440a565b80601f01602080910402602001604051908101604052809291908181526020018280546128e79061440a565b80156129345780601f1061290957610100808354040283529160200191612934565b820191906000526020600020905b81548152906001019060200180831161291757829003601f168201915b5050505050815260200160048201548152602001600582015481525050828281518110612964576129636149af565b5b60200260200101819052505b5b808061297c90614300565b915050612733565b508092505050919050565b60006129bd7f360894a13ba1a3210667c828492db98dca3e2076cc3735a920a3ca505d382bbc60001b612f59565b60000160009054906101000a900473ffffffffffffffffffffffffffffffffffffffff16905090565b6129ee612b6e565b50565b612a1d7f4910fdfa16fed3260ed0e7147f7cc6da11a60208b5b9406d12a635614ffd914360001b612f63565b60000160009054906101000a900460ff1615612a4157612a3c83612f6d565b612b69565b8273ffffffffffffffffffffffffffffffffffffffff166352d1902d6040518163ffffffff1660e01b815260040160206040518083038186803b158015612a8757600080fd5b505afa925050508015612ab857506040513d601f19601f82011682018060405250810190612ab59190614b08565b60015b612af7576040517f08c379a0000000000000000000000000000000000000000000000000000000008152600401612aee90614ba7565b60405180910390fd5b7f360894a13ba1a3210667c828492db98dca3e2076cc3735a920a3ca505d382bbc60001b8114612b5c576040517f08c379a0000000000000000000000000000000000000000000000000000000008152600401612b5390614c39565b60405180910390fd5b50612b68838383613026565b5b505050565b612b76613052565b73ffffffffffffffffffffffffffffffffffffffff16612b94611375565b73ffffffffffffffffffffffffffffffffffffffff1614612bea576040517f08c379a0000000000000000000000000000000000000000000000000000000008152600401612be190614ca5565b60405180910390fd5b565b6000603360009054906101000a900473ffffffffffffffffffffffffffffffffffffffff16905081603360006101000a81548173ffffffffffffffffffffffffffffffffffffffff021916908373ffffffffffffffffffffffffffffffffffffffff1602179055508173ffffffffffffffffffffffffffffffffffffffff168173ffffffffffffffffffffffffffffffffffffffff167f8be0079c531659141344cd1fd0a4f28419497f9722a3daafe3b4186f6b6457e060405160405180910390a35050565b6000808273ffffffffffffffffffffffffffffffffffffffff163b119050919050565b60008060019054906101000a900460ff16159050808015612d065750600160008054906101000a900460ff1660ff16105b80612d335750612d1530612cb2565b158015612d325750600160008054906101000a900460ff1660ff16145b5b612d72576040517f08c379a0000000000000000000000000000000000000000000000000000000008152600401612d69906144ae565b60405180910390fd5b60016000806101000a81548160ff021916908360ff1602179055508015612daf576001600060016101000a81548160ff0219169083151502179055505b612db761305a565b612dbf6130b3565b8015612e185760008060016101000a81548160ff0219169083151502179055507f7f26b83ff96e1f2b6a682f133852f6798a09c465da95921460cefb38474024986001604051612e0f9190614513565b60405180910390a15b50565b60008060019054906101000a900460ff16159050808015612e4c5750600160008054906101000a900460ff1660ff16105b80612e795750612e5b30612cb2565b158015612e785750600160008054906101000a900460ff1660ff16145b5b612eb8576040517f08c379a0000000000000000000000000000000000000000000000000000000008152600401612eaf906144ae565b60405180910390fd5b60016000806101000a81548160ff021916908360ff1602179055508015612ef5576001600060016101000a81548160ff0219169083151502179055505b612efd610d71565b8015612f565760008060016101000a81548160ff0219169083151502179055507f7f26b83ff96e1f2b6a682f133852f6798a09c465da95921460cefb38474024986001604051612f4d9190614513565b60405180910390a15b50565b6000819050919050565b6000819050919050565b612f7681612cb2565b612fb5576040517f08c379a0000000000000000000000000000000000000000000000000000000008152600401612fac90614d37565b60405180910390fd5b80612fe27f360894a13ba1a3210667c828492db98dca3e2076cc3735a920a3ca505d382bbc60001b612f59565b60000160006101000a81548173ffffffffffffffffffffffffffffffffffffffff021916908373ffffffffffffffffffffffffffffffffffffffff16021790555050565b61302f83613104565b60008251118061303c5750805b1561304d5761304b8383613153565b505b505050565b600033905090565b600060019054906101000a900460ff166130a9576040517f08c379a00000000000000000000000000000000000000000000000000000000081526004016130a090614dc9565b60405180910390fd5b6130b1613237565b565b600060019054906101000a900460ff16613102576040517f08c379a00000000000000000000000000000000000000000000000000000000081526004016130f990614dc9565b60405180910390fd5b565b61310d81612f6d565b8073ffffffffffffffffffffffffffffffffffffffff167fbc7cd75a20ee27fd9adebab32041f755214dbc6bffa90cc0225b39da2e5c2d3b60405160405180910390a250565b606061315e83612cb2565b61319d576040517f08c379a000000000000000000000000000000000000000000000000000000000815260040161319490614e5b565b60405180910390fd5b6000808473ffffffffffffffffffffffffffffffffffffffff16846040516131c59190614ec2565b600060405180830381855af49150503d8060008114613200576040519150601f19603f3d011682016040523d82523d6000602084013e613205565b606091505b509150915061322d8282604051806060016040528060278152602001614efc60279139613298565b9250505092915050565b600060019054906101000a900460ff16613286576040517f08c379a000000000000000000000000000000000000000000000000000000000815260040161327d90614dc9565b60405180910390fd5b613296613291613052565b612bec565b565b606083156132a8578290506132b3565b6132b283836132ba565b5b9392505050565b6000825111156132cd5781518083602001fd5b806040517f08c379a00000000000000000000000000000000000000000000000000000000081526004016133019190614ed9565b60405180910390fd5b5080546133169061440a565b6000825580601f106133285750613347565b601f016020900490600052602060002090810190613346919061349e565b5b50565b8280546133569061440a565b90600052602060002090601f01602090048101928261337857600085556133bf565b82601f1061339157805160ff19168380011785556133bf565b828001600101855582156133bf579182015b828111156133be5782518255916020019190600101906133a3565b5b5090506133cc919061349e565b5090565b604051806101400160405280600073ffffffffffffffffffffffffffffffffffffffff168152602001600073ffffffffffffffffffffffffffffffffffffffff168152602001600081526020016000815260200160008152602001600060ff168152602001606081526020016060815260200160608152602001606081525090565b6040518060c001604052806000815260200160008152602001600073ffffffffffffffffffffffffffffffffffffffff1681526020016060815260200160008152602001600081525090565b5b808211156134b757600081600090555060010161349f565b5090565b6000604051905090565b600080fd5b600080fd5b6000819050919050565b6134e2816134cf565b81146134ed57600080fd5b50565b6000813590506134ff816134d9565b92915050565b60006020828403121561351b5761351a6134c5565b5b6000613529848285016134f0565b91505092915050565b61353b816134cf565b82525050565b60006020820190506135566000830184613532565b92915050565b600073ffffffffffffffffffffffffffffffffffffffff82169050919050565b60006135878261355c565b9050919050565b6135978161357c565b81146135a257600080fd5b50565b6000813590506135b48161358e565b92915050565b6000602082840312156135d0576135cf6134c5565b5b60006135de848285016135a5565b91505092915050565b600080fd5b600080fd5b6000601f19601f8301169050919050565b7f4e487b7100000000000000000000000000000000000000000000000000000000600052604160045260246000fd5b61363a826135f1565b810181811067ffffffffffffffff8211171561365957613658613602565b5b80604052505050565b600061366c6134bb565b90506136788282613631565b919050565b600067ffffffffffffffff82111561369857613697613602565b5b6136a1826135f1565b9050602081019050919050565b82818337600083830152505050565b60006136d06136cb8461367d565b613662565b9050828152602081018484840111156136ec576136eb6135ec565b5b6136f78482856136ae565b509392505050565b600082601f830112613714576137136135e7565b5b81356137248482602086016136bd565b91505092915050565b60008060408385031215613744576137436134c5565b5b6000613752858286016135a5565b925050602083013567ffffffffffffffff811115613773576137726134ca565b5b61377f858286016136ff565b9150509250929050565b6000819050919050565b61379c81613789565b82525050565b60006020820190506137b76000830184613793565b92915050565b600080604083850312156137d4576137d36134c5565b5b60006137e2858286016135a5565b92505060206137f3858286016134f0565b9150509250929050565b6138068161357c565b82525050565b600081519050919050565b600082825260208201905092915050565b60005b8381101561384657808201518184015260208101905061382b565b83811115613855576000848401525b50505050565b60006138668261380c565b6138708185613817565b9350613880818560208601613828565b613889816135f1565b840191505092915050565b600060c0820190506138a96000830189613532565b6138b66020830188613532565b6138c360408301876137fd565b81810360608301526138d5818661385b565b90506138e46080830185613532565b6138f160a0830184613532565b979650505050505050565b600067ffffffffffffffff82111561391757613916613602565b5b613920826135f1565b9050602081019050919050565b600061394061393b846138fc565b613662565b90508281526020810184848401111561395c5761395b6135ec565b5b6139678482856136ae565b509392505050565b600082601f830112613984576139836135e7565b5b813561399484826020860161392d565b91505092915050565b600080604083850312156139b4576139b36134c5565b5b60006139c2858286016134f0565b925050602083013567ffffffffffffffff8111156139e3576139e26134ca565b5b6139ef8582860161396f565b9150509250929050565b6000602082019050613a0e60008301846137fd565b92915050565b60008115159050919050565b613a2981613a14565b82525050565b6000602082019050613a446000830184613a20565b92915050565b600060ff82169050919050565b613a6081613a4a565b82525050565b600061014082019050613a7c600083018d6137fd565b613a89602083018c6137fd565b613a96604083018b613532565b613aa3606083018a613532565b613ab06080830189613532565b613abd60a0830188613a57565b81810360c0830152613acf818761385b565b905081810360e0830152613ae3818661385b565b9050818103610100830152613af8818561385b565b9050818103610120830152613b0d818461385b565b90509b9a5050505050505050505050565b613b2781613a14565b8114613b3257600080fd5b50565b600081359050613b4481613b1e565b92915050565b600060208284031215613b6057613b5f6134c5565b5b6000613b6e84828501613b35565b91505092915050565b600081519050919050565b600082825260208201905092915050565b6000819050602082019050919050565b613bac8161357c565b82525050565b613bbb816134cf565b82525050565b613bca81613a4a565b82525050565b600082825260208201905092915050565b6000613bec8261380c565b613bf68185613bd0565b9350613c06818560208601613828565b613c0f816135f1565b840191505092915050565b600061014083016000830151613c336000860182613ba3565b506020830151613c466020860182613ba3565b506040830151613c596040860182613bb2565b506060830151613c6c6060860182613bb2565b506080830151613c7f6080860182613bb2565b5060a0830151613c9260a0860182613bc1565b5060c083015184820360c0860152613caa8282613be1565b91505060e083015184820360e0860152613cc48282613be1565b915050610100830151848203610100860152613ce08282613be1565b915050610120830151848203610120860152613cfc8282613be1565b9150508091505092915050565b6000613d158383613c1a565b905092915050565b6000602082019050919050565b6000613d3582613b77565b613d3f8185613b82565b935083602082028501613d5185613b93565b8060005b85811015613d8d5784840389528151613d6e8582613d09565b9450613d7983613d1d565b925060208a01995050600181019050613d55565b50829750879550505050505092915050565b60006020820190508181036000830152613db98184613d2a565b905092915050565b613dca81613a4a565b8114613dd557600080fd5b50565b600081359050613de781613dc1565b92915050565b600080600080600080600080610100898b031215613e0e57613e0d6134c5565b5b6000613e1c8b828c016135a5565b9850506020613e2d8b828c016134f0565b9750506040613e3e8b828c016134f0565b9650506060613e4f8b828c01613dd8565b955050608089013567ffffffffffffffff811115613e7057613e6f6134ca565b5b613e7c8b828c0161396f565b94505060a089013567ffffffffffffffff811115613e9d57613e9c6134ca565b5b613ea98b828c0161396f565b93505060c089013567ffffffffffffffff811115613eca57613ec96134ca565b5b613ed68b828c0161396f565b92505060e089013567ffffffffffffffff811115613ef757613ef66134ca565b5b613f038b828c0161396f565b9150509295985092959890939650565b600081519050919050565b600082825260208201905092915050565b6000819050602082019050919050565b600060c083016000830151613f576000860182613bb2565b506020830151613f6a6020860182613bb2565b506040830151613f7d6040860182613ba3565b5060608301518482036060860152613f958282613be1565b9150506080830151613faa6080860182613bb2565b5060a0830151613fbd60a0860182613bb2565b508091505092915050565b6000613fd48383613f3f565b905092915050565b6000602082019050919050565b6000613ff482613f13565b613ffe8185613f1e565b93508360208202850161401085613f2f565b8060005b8581101561404c578484038952815161402d8582613fc8565b945061403883613fdc565b925060208a01995050600181019050614014565b50829750879550505050505092915050565b600060208201905081810360008301526140788184613fe9565b905092915050565b7f4e45000000000000000000000000000000000000000000000000000000000000600082015250565b60006140b6600283613817565b91506140c182614080565b602082019050919050565b600060208201905081810360008301526140e5816140a9565b9050919050565b600060408201905061410160008301856137fd565b61410e60208301846137fd565b9392505050565b600081519050614124816134d9565b92915050565b6000602082840312156141405761413f6134c5565b5b600061414e84828501614115565b91505092915050565b7f46756e6374696f6e206d7573742062652063616c6c6564207468726f7567682060008201527f64656c656761746563616c6c0000000000000000000000000000000000000000602082015250565b60006141b3602c83613817565b91506141be82614157565b604082019050919050565b600060208201905081810360008301526141e2816141a6565b9050919050565b7f46756e6374696f6e206d7573742062652063616c6c6564207468726f7567682060008201527f6163746976652070726f78790000000000000000000000000000000000000000602082015250565b6000614245602c83613817565b9150614250826141e9565b604082019050919050565b6000602082019050818103600083015261427481614238565b9050919050565b7f4e487b7100000000000000000000000000000000000000000000000000000000600052601160045260246000fd5b60006142b5826134cf565b91506142c0836134cf565b9250827fffffffffffffffffffffffffffffffffffffffffffffffffffffffffffffffff038211156142f5576142f461427b565b5b828201905092915050565b600061430b826134cf565b91507fffffffffffffffffffffffffffffffffffffffffffffffffffffffffffffffff82141561433e5761433d61427b565b5b600182019050919050565b7f555550535570677261646561626c653a206d757374206e6f742062652063616c60008201527f6c6564207468726f7567682064656c656761746563616c6c0000000000000000602082015250565b60006143a5603883613817565b91506143b082614349565b604082019050919050565b600060208201905081810360008301526143d481614398565b9050919050565b7f4e487b7100000000000000000000000000000000000000000000000000000000600052602260045260246000fd5b6000600282049050600182168061442257607f821691505b60208210811415614436576144356143db565b5b50919050565b7f496e697469616c697a61626c653a20636f6e747261637420697320616c72656160008201527f647920696e697469616c697a6564000000000000000000000000000000000000602082015250565b6000614498602e83613817565b91506144a38261443c565b604082019050919050565b600060208201905081810360008301526144c78161448b565b9050919050565b6000819050919050565b6000819050919050565b60006144fd6144f86144f3846144ce565b6144d8565b613a4a565b9050919050565b61450d816144e2565b82525050565b60006020820190506145286000830184614504565b92915050565b7f4e41000000000000000000000000000000000000000000000000000000000000600082015250565b6000614564600283613817565b915061456f8261452e565b602082019050919050565b6000602082019050818103600083015261459381614557565b9050919050565b60006060820190506145af60008301866137fd565b6145bc60208301856137fd565b6145c96040830184613532565b949350505050565b6000815190506145e081613b1e565b92915050565b6000602082840312156145fc576145fb6134c5565b5b600061460a848285016145d1565b91505092915050565b60008160001c9050919050565b600073ffffffffffffffffffffffffffffffffffffffff82169050919050565b600061465361464e83614613565b614620565b9050919050565b6000819050919050565b600061467761467283614613565b61465a565b9050919050565b600060ff82169050919050565b600061469e61469983614613565b61467e565b9050919050565b60008190508160005260206000209050919050565b600081546146c78161440a565b6146d18186613bd0565b945060018216600081146146ec57600181146146fe57614731565b60ff1983168652602086019350614731565b614707856146a5565b60005b838110156147295781548189015260018201915060208101905061470a565b808801955050505b50505092915050565b60006101408301600080840154905061475281614640565b61475f6000870182613ba3565b506001840154905061477081614640565b61477d6020870182613ba3565b506002840154905061478e81614664565b61479b6040870182613bb2565b50600384015490506147ac81614664565b6147b96060870182613bb2565b50600484015490506147ca81614664565b6147d76080870182613bb2565b50600584015490506147e88161468b565b6147f560a0870182613bc1565b506006840185830360c087015261480c83826146ba565b9250506007840185830360e087015261482583826146ba565b9250506008840185830361010087015261483f83826146ba565b9250506009840185830361012087015261485983826146ba565b925050819250505092915050565b600060c08301600083015161487f6000860182613bb2565b5060208301516148926020860182613bb2565b5060408301516148a56040860182613ba3565b50606083015184820360608601526148bd8282613be1565b91505060808301516148d26080860182613bb2565b5060a08301516148e560a0860182613bb2565b508091505092915050565b600060808201905061490560008301876137fd565b8181036020830152614917818661473a565b9050818103604083015261492b8185614867565b905061493a6060830184613532565b95945050505050565b7f4e4f545f44554500000000000000000000000000000000000000000000000000600082015250565b6000614979600783613817565b915061498482614943565b602082019050919050565b600060208201905081810360008301526149a88161496c565b9050919050565b7f4e487b7100000000000000000000000000000000000000000000000000000000600052603260045260246000fd5b7f4f776e61626c653a206e6577206f776e657220697320746865207a65726f206160008201527f6464726573730000000000000000000000000000000000000000000000000000602082015250565b6000614a3a602683613817565b9150614a45826149de565b604082019050919050565b60006020820190508181036000830152614a6981614a2d565b9050919050565b7f4754300000000000000000000000000000000000000000000000000000000000600082015250565b6000614aa6600383613817565b9150614ab182614a70565b602082019050919050565b60006020820190508181036000830152614ad581614a99565b9050919050565b614ae581613789565b8114614af057600080fd5b50565b600081519050614b0281614adc565b92915050565b600060208284031215614b1e57614b1d6134c5565b5b6000614b2c84828501614af3565b91505092915050565b7f45524331393637557067726164653a206e657720696d706c656d656e7461746960008201527f6f6e206973206e6f742055555053000000000000000000000000000000000000602082015250565b6000614b91602e83613817565b9150614b9c82614b35565b604082019050919050565b60006020820190508181036000830152614bc081614b84565b9050919050565b7f45524331393637557067726164653a20756e737570706f727465642070726f7860008201527f6961626c65555549440000000000000000000000000000000000000000000000602082015250565b6000614c23602983613817565b9150614c2e82614bc7565b604082019050919050565b60006020820190508181036000830152614c5281614c16565b9050919050565b7f4f776e61626c653a2063616c6c6572206973206e6f7420746865206f776e6572600082015250565b6000614c8f602083613817565b9150614c9a82614c59565b602082019050919050565b60006020820190508181036000830152614cbe81614c82565b9050919050565b7f455243313936373a206e657720696d706c656d656e746174696f6e206973206e60008201527f6f74206120636f6e747261637400000000000000000000000000000000000000602082015250565b6000614d21602d83613817565b9150614d2c82614cc5565b604082019050919050565b60006020820190508181036000830152614d5081614d14565b9050919050565b7f496e697469616c697a61626c653a20636f6e7472616374206973206e6f74206960008201527f6e697469616c697a696e67000000000000000000000000000000000000000000602082015250565b6000614db3602b83613817565b9150614dbe82614d57565b604082019050919050565b60006020820190508181036000830152614de281614da6565b9050919050565b7f416464726573733a2064656c65676174652063616c6c20746f206e6f6e2d636f60008201527f6e74726163740000000000000000000000000000000000000000000000000000602082015250565b6000614e45602683613817565b9150614e5082614de9565b604082019050919050565b60006020820190508181036000830152614e7481614e38565b9050919050565b600081519050919050565b600081905092915050565b6000614e9c82614e7b565b614ea68185614e86565b9350614eb6818560208601613828565b80840191505092915050565b6000614ece8284614e91565b915081905092915050565b60006020820190508181036000830152614ef3818461385b565b90509291505056fe416464726573733a206c6f772d6c6576656c2064656c65676174652063616c6c206661696c6564a26469706673582212201472e3dfb26d7a53c3d299fd3728dfd2bba567f7c4da72c1925d7eecf0a8fed164736f6c63430008090033",
  "linkReferences": {},
  "deployedLinkReferences": {}
}